
Bootloader_STM32L432.elf:     file format elf32-littlearm

Sections:
Idx Name          Size      VMA       LMA       File off  Algn
  0 .isr_vector   0000018c  08000000  08000000  00010000  2**0
                  CONTENTS, ALLOC, LOAD, READONLY, DATA
  1 .text         000020f4  0800018c  0800018c  0001018c  2**2
                  CONTENTS, ALLOC, LOAD, READONLY, CODE
  2 .rodata       00000118  08002280  08002280  00012280  2**2
                  CONTENTS, ALLOC, LOAD, READONLY, DATA
  3 .ARM          00000008  08002398  08002398  00012398  2**2
                  CONTENTS, ALLOC, LOAD, READONLY, DATA
  4 .init_array   00000004  080023a0  080023a0  000123a0  2**2
                  CONTENTS, ALLOC, LOAD, DATA
  5 .fini_array   00000004  080023a4  080023a4  000123a4  2**2
                  CONTENTS, ALLOC, LOAD, DATA
  6 .data         0000001c  20000000  080023a8  00020000  2**2
                  CONTENTS, ALLOC, LOAD, DATA
  7 .bss          00000510  2000001c  080023c4  0002001c  2**2
                  ALLOC
  8 ._user_heap_stack 00000600  2000052c  080023c4  0002052c  2**0
                  ALLOC
  9 .ARM.attributes 00000030  00000000  00000000  0002001c  2**0
                  CONTENTS, READONLY
 10 .debug_info   0000f1a6  00000000  00000000  0002004c  2**0
                  CONTENTS, READONLY, DEBUGGING
 11 .debug_abbrev 000027fa  00000000  00000000  0002f1f2  2**0
                  CONTENTS, READONLY, DEBUGGING
 12 .debug_loc    00004a4c  00000000  00000000  000319ec  2**0
                  CONTENTS, READONLY, DEBUGGING
 13 .debug_aranges 00000908  00000000  00000000  00036438  2**3
                  CONTENTS, READONLY, DEBUGGING
 14 .debug_ranges 00000a68  00000000  00000000  00036d40  2**3
                  CONTENTS, READONLY, DEBUGGING
 15 .debug_line   00004f3e  00000000  00000000  000377a8  2**0
                  CONTENTS, READONLY, DEBUGGING
 16 .debug_str    000038bd  00000000  00000000  0003c6e6  2**0
                  CONTENTS, READONLY, DEBUGGING
 17 .comment      0000007c  00000000  00000000  0003ffa3  2**0
                  CONTENTS, READONLY
 18 .debug_frame  000016c4  00000000  00000000  00040020  2**2
                  CONTENTS, READONLY, DEBUGGING

Disassembly of section .text:

0800018c <__do_global_dtors_aux>:
 800018c:	b510      	push	{r4, lr}
 800018e:	4c05      	ldr	r4, [pc, #20]	; (80001a4 <__do_global_dtors_aux+0x18>)
 8000190:	7823      	ldrb	r3, [r4, #0]
 8000192:	b933      	cbnz	r3, 80001a2 <__do_global_dtors_aux+0x16>
 8000194:	4b04      	ldr	r3, [pc, #16]	; (80001a8 <__do_global_dtors_aux+0x1c>)
 8000196:	b113      	cbz	r3, 800019e <__do_global_dtors_aux+0x12>
 8000198:	4804      	ldr	r0, [pc, #16]	; (80001ac <__do_global_dtors_aux+0x20>)
 800019a:	f3af 8000 	nop.w
 800019e:	2301      	movs	r3, #1
 80001a0:	7023      	strb	r3, [r4, #0]
 80001a2:	bd10      	pop	{r4, pc}
 80001a4:	2000001c 	.word	0x2000001c
 80001a8:	00000000 	.word	0x00000000
 80001ac:	08002268 	.word	0x08002268

080001b0 <frame_dummy>:
 80001b0:	b508      	push	{r3, lr}
 80001b2:	4b03      	ldr	r3, [pc, #12]	; (80001c0 <frame_dummy+0x10>)
 80001b4:	b11b      	cbz	r3, 80001be <frame_dummy+0xe>
 80001b6:	4903      	ldr	r1, [pc, #12]	; (80001c4 <frame_dummy+0x14>)
 80001b8:	4803      	ldr	r0, [pc, #12]	; (80001c8 <frame_dummy+0x18>)
 80001ba:	f3af 8000 	nop.w
 80001be:	bd08      	pop	{r3, pc}
 80001c0:	00000000 	.word	0x00000000
 80001c4:	20000020 	.word	0x20000020
 80001c8:	08002268 	.word	0x08002268

080001cc <strlen>:
 80001cc:	4603      	mov	r3, r0
 80001ce:	f813 2b01 	ldrb.w	r2, [r3], #1
 80001d2:	2a00      	cmp	r2, #0
 80001d4:	d1fb      	bne.n	80001ce <strlen+0x2>
 80001d6:	1a18      	subs	r0, r3, r0
 80001d8:	3801      	subs	r0, #1
 80001da:	4770      	bx	lr

080001dc <__aeabi_uldivmod>:
 80001dc:	b953      	cbnz	r3, 80001f4 <__aeabi_uldivmod+0x18>
 80001de:	b94a      	cbnz	r2, 80001f4 <__aeabi_uldivmod+0x18>
 80001e0:	2900      	cmp	r1, #0
 80001e2:	bf08      	it	eq
 80001e4:	2800      	cmpeq	r0, #0
 80001e6:	bf1c      	itt	ne
 80001e8:	f04f 31ff 	movne.w	r1, #4294967295
 80001ec:	f04f 30ff 	movne.w	r0, #4294967295
 80001f0:	f000 b97a 	b.w	80004e8 <__aeabi_idiv0>
 80001f4:	f1ad 0c08 	sub.w	ip, sp, #8
 80001f8:	e96d ce04 	strd	ip, lr, [sp, #-16]!
 80001fc:	f000 f806 	bl	800020c <__udivmoddi4>
 8000200:	f8dd e004 	ldr.w	lr, [sp, #4]
 8000204:	e9dd 2302 	ldrd	r2, r3, [sp, #8]
 8000208:	b004      	add	sp, #16
 800020a:	4770      	bx	lr

0800020c <__udivmoddi4>:
 800020c:	e92d 47f0 	stmdb	sp!, {r4, r5, r6, r7, r8, r9, sl, lr}
 8000210:	468c      	mov	ip, r1
 8000212:	460d      	mov	r5, r1
 8000214:	4604      	mov	r4, r0
 8000216:	9e08      	ldr	r6, [sp, #32]
 8000218:	2b00      	cmp	r3, #0
 800021a:	d151      	bne.n	80002c0 <__udivmoddi4+0xb4>
 800021c:	428a      	cmp	r2, r1
 800021e:	4617      	mov	r7, r2
 8000220:	d96d      	bls.n	80002fe <__udivmoddi4+0xf2>
 8000222:	fab2 fe82 	clz	lr, r2
 8000226:	f1be 0f00 	cmp.w	lr, #0
 800022a:	d00b      	beq.n	8000244 <__udivmoddi4+0x38>
 800022c:	f1ce 0c20 	rsb	ip, lr, #32
 8000230:	fa01 f50e 	lsl.w	r5, r1, lr
 8000234:	fa20 fc0c 	lsr.w	ip, r0, ip
 8000238:	fa02 f70e 	lsl.w	r7, r2, lr
 800023c:	ea4c 0c05 	orr.w	ip, ip, r5
 8000240:	fa00 f40e 	lsl.w	r4, r0, lr
 8000244:	ea4f 4a17 	mov.w	sl, r7, lsr #16
 8000248:	0c25      	lsrs	r5, r4, #16
 800024a:	fbbc f8fa 	udiv	r8, ip, sl
 800024e:	fa1f f987 	uxth.w	r9, r7
 8000252:	fb0a cc18 	mls	ip, sl, r8, ip
 8000256:	ea45 450c 	orr.w	r5, r5, ip, lsl #16
 800025a:	fb08 f309 	mul.w	r3, r8, r9
 800025e:	42ab      	cmp	r3, r5
 8000260:	d90a      	bls.n	8000278 <__udivmoddi4+0x6c>
 8000262:	19ed      	adds	r5, r5, r7
 8000264:	f108 32ff 	add.w	r2, r8, #4294967295
 8000268:	f080 8123 	bcs.w	80004b2 <__udivmoddi4+0x2a6>
 800026c:	42ab      	cmp	r3, r5
 800026e:	f240 8120 	bls.w	80004b2 <__udivmoddi4+0x2a6>
 8000272:	f1a8 0802 	sub.w	r8, r8, #2
 8000276:	443d      	add	r5, r7
 8000278:	1aed      	subs	r5, r5, r3
 800027a:	b2a4      	uxth	r4, r4
 800027c:	fbb5 f0fa 	udiv	r0, r5, sl
 8000280:	fb0a 5510 	mls	r5, sl, r0, r5
 8000284:	ea44 4405 	orr.w	r4, r4, r5, lsl #16
 8000288:	fb00 f909 	mul.w	r9, r0, r9
 800028c:	45a1      	cmp	r9, r4
 800028e:	d909      	bls.n	80002a4 <__udivmoddi4+0x98>
 8000290:	19e4      	adds	r4, r4, r7
 8000292:	f100 33ff 	add.w	r3, r0, #4294967295
 8000296:	f080 810a 	bcs.w	80004ae <__udivmoddi4+0x2a2>
 800029a:	45a1      	cmp	r9, r4
 800029c:	f240 8107 	bls.w	80004ae <__udivmoddi4+0x2a2>
 80002a0:	3802      	subs	r0, #2
 80002a2:	443c      	add	r4, r7
 80002a4:	eba4 0409 	sub.w	r4, r4, r9
 80002a8:	ea40 4008 	orr.w	r0, r0, r8, lsl #16
 80002ac:	2100      	movs	r1, #0
 80002ae:	2e00      	cmp	r6, #0
 80002b0:	d061      	beq.n	8000376 <__udivmoddi4+0x16a>
 80002b2:	fa24 f40e 	lsr.w	r4, r4, lr
 80002b6:	2300      	movs	r3, #0
 80002b8:	6034      	str	r4, [r6, #0]
 80002ba:	6073      	str	r3, [r6, #4]
 80002bc:	e8bd 87f0 	ldmia.w	sp!, {r4, r5, r6, r7, r8, r9, sl, pc}
 80002c0:	428b      	cmp	r3, r1
 80002c2:	d907      	bls.n	80002d4 <__udivmoddi4+0xc8>
 80002c4:	2e00      	cmp	r6, #0
 80002c6:	d054      	beq.n	8000372 <__udivmoddi4+0x166>
 80002c8:	2100      	movs	r1, #0
 80002ca:	e886 0021 	stmia.w	r6, {r0, r5}
 80002ce:	4608      	mov	r0, r1
 80002d0:	e8bd 87f0 	ldmia.w	sp!, {r4, r5, r6, r7, r8, r9, sl, pc}
 80002d4:	fab3 f183 	clz	r1, r3
 80002d8:	2900      	cmp	r1, #0
 80002da:	f040 808e 	bne.w	80003fa <__udivmoddi4+0x1ee>
 80002de:	42ab      	cmp	r3, r5
 80002e0:	d302      	bcc.n	80002e8 <__udivmoddi4+0xdc>
 80002e2:	4282      	cmp	r2, r0
 80002e4:	f200 80fa 	bhi.w	80004dc <__udivmoddi4+0x2d0>
 80002e8:	1a84      	subs	r4, r0, r2
 80002ea:	eb65 0503 	sbc.w	r5, r5, r3
 80002ee:	2001      	movs	r0, #1
 80002f0:	46ac      	mov	ip, r5
 80002f2:	2e00      	cmp	r6, #0
 80002f4:	d03f      	beq.n	8000376 <__udivmoddi4+0x16a>
 80002f6:	e886 1010 	stmia.w	r6, {r4, ip}
 80002fa:	e8bd 87f0 	ldmia.w	sp!, {r4, r5, r6, r7, r8, r9, sl, pc}
 80002fe:	b912      	cbnz	r2, 8000306 <__udivmoddi4+0xfa>
 8000300:	2701      	movs	r7, #1
 8000302:	fbb7 f7f2 	udiv	r7, r7, r2
 8000306:	fab7 fe87 	clz	lr, r7
 800030a:	f1be 0f00 	cmp.w	lr, #0
 800030e:	d134      	bne.n	800037a <__udivmoddi4+0x16e>
 8000310:	1beb      	subs	r3, r5, r7
 8000312:	0c3a      	lsrs	r2, r7, #16
 8000314:	fa1f fc87 	uxth.w	ip, r7
 8000318:	2101      	movs	r1, #1
 800031a:	fbb3 f8f2 	udiv	r8, r3, r2
 800031e:	0c25      	lsrs	r5, r4, #16
 8000320:	fb02 3318 	mls	r3, r2, r8, r3
 8000324:	ea45 4503 	orr.w	r5, r5, r3, lsl #16
 8000328:	fb0c f308 	mul.w	r3, ip, r8
 800032c:	42ab      	cmp	r3, r5
 800032e:	d907      	bls.n	8000340 <__udivmoddi4+0x134>
 8000330:	19ed      	adds	r5, r5, r7
 8000332:	f108 30ff 	add.w	r0, r8, #4294967295
 8000336:	d202      	bcs.n	800033e <__udivmoddi4+0x132>
 8000338:	42ab      	cmp	r3, r5
 800033a:	f200 80d1 	bhi.w	80004e0 <__udivmoddi4+0x2d4>
 800033e:	4680      	mov	r8, r0
 8000340:	1aed      	subs	r5, r5, r3
 8000342:	b2a3      	uxth	r3, r4
 8000344:	fbb5 f0f2 	udiv	r0, r5, r2
 8000348:	fb02 5510 	mls	r5, r2, r0, r5
 800034c:	ea43 4405 	orr.w	r4, r3, r5, lsl #16
 8000350:	fb0c fc00 	mul.w	ip, ip, r0
 8000354:	45a4      	cmp	ip, r4
 8000356:	d907      	bls.n	8000368 <__udivmoddi4+0x15c>
 8000358:	19e4      	adds	r4, r4, r7
 800035a:	f100 33ff 	add.w	r3, r0, #4294967295
 800035e:	d202      	bcs.n	8000366 <__udivmoddi4+0x15a>
 8000360:	45a4      	cmp	ip, r4
 8000362:	f200 80b8 	bhi.w	80004d6 <__udivmoddi4+0x2ca>
 8000366:	4618      	mov	r0, r3
 8000368:	eba4 040c 	sub.w	r4, r4, ip
 800036c:	ea40 4008 	orr.w	r0, r0, r8, lsl #16
 8000370:	e79d      	b.n	80002ae <__udivmoddi4+0xa2>
 8000372:	4631      	mov	r1, r6
 8000374:	4630      	mov	r0, r6
 8000376:	e8bd 87f0 	ldmia.w	sp!, {r4, r5, r6, r7, r8, r9, sl, pc}
 800037a:	f1ce 0420 	rsb	r4, lr, #32
 800037e:	fa05 f30e 	lsl.w	r3, r5, lr
 8000382:	fa07 f70e 	lsl.w	r7, r7, lr
 8000386:	fa20 f804 	lsr.w	r8, r0, r4
 800038a:	0c3a      	lsrs	r2, r7, #16
 800038c:	fa25 f404 	lsr.w	r4, r5, r4
 8000390:	ea48 0803 	orr.w	r8, r8, r3
 8000394:	fbb4 f1f2 	udiv	r1, r4, r2
 8000398:	ea4f 4518 	mov.w	r5, r8, lsr #16
 800039c:	fb02 4411 	mls	r4, r2, r1, r4
 80003a0:	fa1f fc87 	uxth.w	ip, r7
 80003a4:	ea45 4504 	orr.w	r5, r5, r4, lsl #16
 80003a8:	fb01 f30c 	mul.w	r3, r1, ip
 80003ac:	42ab      	cmp	r3, r5
 80003ae:	fa00 f40e 	lsl.w	r4, r0, lr
 80003b2:	d909      	bls.n	80003c8 <__udivmoddi4+0x1bc>
 80003b4:	19ed      	adds	r5, r5, r7
 80003b6:	f101 30ff 	add.w	r0, r1, #4294967295
 80003ba:	f080 808a 	bcs.w	80004d2 <__udivmoddi4+0x2c6>
 80003be:	42ab      	cmp	r3, r5
 80003c0:	f240 8087 	bls.w	80004d2 <__udivmoddi4+0x2c6>
 80003c4:	3902      	subs	r1, #2
 80003c6:	443d      	add	r5, r7
 80003c8:	1aeb      	subs	r3, r5, r3
 80003ca:	fa1f f588 	uxth.w	r5, r8
 80003ce:	fbb3 f0f2 	udiv	r0, r3, r2
 80003d2:	fb02 3310 	mls	r3, r2, r0, r3
 80003d6:	ea45 4503 	orr.w	r5, r5, r3, lsl #16
 80003da:	fb00 f30c 	mul.w	r3, r0, ip
 80003de:	42ab      	cmp	r3, r5
 80003e0:	d907      	bls.n	80003f2 <__udivmoddi4+0x1e6>
 80003e2:	19ed      	adds	r5, r5, r7
 80003e4:	f100 38ff 	add.w	r8, r0, #4294967295
 80003e8:	d26f      	bcs.n	80004ca <__udivmoddi4+0x2be>
 80003ea:	42ab      	cmp	r3, r5
 80003ec:	d96d      	bls.n	80004ca <__udivmoddi4+0x2be>
 80003ee:	3802      	subs	r0, #2
 80003f0:	443d      	add	r5, r7
 80003f2:	1aeb      	subs	r3, r5, r3
 80003f4:	ea40 4101 	orr.w	r1, r0, r1, lsl #16
 80003f8:	e78f      	b.n	800031a <__udivmoddi4+0x10e>
 80003fa:	f1c1 0720 	rsb	r7, r1, #32
 80003fe:	fa22 f807 	lsr.w	r8, r2, r7
 8000402:	408b      	lsls	r3, r1
 8000404:	fa05 f401 	lsl.w	r4, r5, r1
 8000408:	ea48 0303 	orr.w	r3, r8, r3
 800040c:	fa20 fe07 	lsr.w	lr, r0, r7
 8000410:	ea4f 4c13 	mov.w	ip, r3, lsr #16
 8000414:	40fd      	lsrs	r5, r7
 8000416:	ea4e 0e04 	orr.w	lr, lr, r4
 800041a:	fbb5 f9fc 	udiv	r9, r5, ip
 800041e:	ea4f 441e 	mov.w	r4, lr, lsr #16
 8000422:	fb0c 5519 	mls	r5, ip, r9, r5
 8000426:	fa1f f883 	uxth.w	r8, r3
 800042a:	ea44 4505 	orr.w	r5, r4, r5, lsl #16
 800042e:	fb09 f408 	mul.w	r4, r9, r8
 8000432:	42ac      	cmp	r4, r5
 8000434:	fa02 f201 	lsl.w	r2, r2, r1
 8000438:	fa00 fa01 	lsl.w	sl, r0, r1
 800043c:	d908      	bls.n	8000450 <__udivmoddi4+0x244>
 800043e:	18ed      	adds	r5, r5, r3
 8000440:	f109 30ff 	add.w	r0, r9, #4294967295
 8000444:	d243      	bcs.n	80004ce <__udivmoddi4+0x2c2>
 8000446:	42ac      	cmp	r4, r5
 8000448:	d941      	bls.n	80004ce <__udivmoddi4+0x2c2>
 800044a:	f1a9 0902 	sub.w	r9, r9, #2
 800044e:	441d      	add	r5, r3
 8000450:	1b2d      	subs	r5, r5, r4
 8000452:	fa1f fe8e 	uxth.w	lr, lr
 8000456:	fbb5 f0fc 	udiv	r0, r5, ip
 800045a:	fb0c 5510 	mls	r5, ip, r0, r5
 800045e:	ea4e 4405 	orr.w	r4, lr, r5, lsl #16
 8000462:	fb00 f808 	mul.w	r8, r0, r8
 8000466:	45a0      	cmp	r8, r4
 8000468:	d907      	bls.n	800047a <__udivmoddi4+0x26e>
 800046a:	18e4      	adds	r4, r4, r3
 800046c:	f100 35ff 	add.w	r5, r0, #4294967295
 8000470:	d229      	bcs.n	80004c6 <__udivmoddi4+0x2ba>
 8000472:	45a0      	cmp	r8, r4
 8000474:	d927      	bls.n	80004c6 <__udivmoddi4+0x2ba>
 8000476:	3802      	subs	r0, #2
 8000478:	441c      	add	r4, r3
 800047a:	ea40 4009 	orr.w	r0, r0, r9, lsl #16
 800047e:	eba4 0408 	sub.w	r4, r4, r8
 8000482:	fba0 8902 	umull	r8, r9, r0, r2
 8000486:	454c      	cmp	r4, r9
 8000488:	46c6      	mov	lr, r8
 800048a:	464d      	mov	r5, r9
 800048c:	d315      	bcc.n	80004ba <__udivmoddi4+0x2ae>
 800048e:	d012      	beq.n	80004b6 <__udivmoddi4+0x2aa>
 8000490:	b156      	cbz	r6, 80004a8 <__udivmoddi4+0x29c>
 8000492:	ebba 030e 	subs.w	r3, sl, lr
 8000496:	eb64 0405 	sbc.w	r4, r4, r5
 800049a:	fa04 f707 	lsl.w	r7, r4, r7
 800049e:	40cb      	lsrs	r3, r1
 80004a0:	431f      	orrs	r7, r3
 80004a2:	40cc      	lsrs	r4, r1
 80004a4:	6037      	str	r7, [r6, #0]
 80004a6:	6074      	str	r4, [r6, #4]
 80004a8:	2100      	movs	r1, #0
 80004aa:	e8bd 87f0 	ldmia.w	sp!, {r4, r5, r6, r7, r8, r9, sl, pc}
 80004ae:	4618      	mov	r0, r3
 80004b0:	e6f8      	b.n	80002a4 <__udivmoddi4+0x98>
 80004b2:	4690      	mov	r8, r2
 80004b4:	e6e0      	b.n	8000278 <__udivmoddi4+0x6c>
 80004b6:	45c2      	cmp	sl, r8
 80004b8:	d2ea      	bcs.n	8000490 <__udivmoddi4+0x284>
 80004ba:	ebb8 0e02 	subs.w	lr, r8, r2
 80004be:	eb69 0503 	sbc.w	r5, r9, r3
 80004c2:	3801      	subs	r0, #1
 80004c4:	e7e4      	b.n	8000490 <__udivmoddi4+0x284>
 80004c6:	4628      	mov	r0, r5
 80004c8:	e7d7      	b.n	800047a <__udivmoddi4+0x26e>
 80004ca:	4640      	mov	r0, r8
 80004cc:	e791      	b.n	80003f2 <__udivmoddi4+0x1e6>
 80004ce:	4681      	mov	r9, r0
 80004d0:	e7be      	b.n	8000450 <__udivmoddi4+0x244>
 80004d2:	4601      	mov	r1, r0
 80004d4:	e778      	b.n	80003c8 <__udivmoddi4+0x1bc>
 80004d6:	3802      	subs	r0, #2
 80004d8:	443c      	add	r4, r7
 80004da:	e745      	b.n	8000368 <__udivmoddi4+0x15c>
 80004dc:	4608      	mov	r0, r1
 80004de:	e708      	b.n	80002f2 <__udivmoddi4+0xe6>
 80004e0:	f1a8 0802 	sub.w	r8, r8, #2
 80004e4:	443d      	add	r5, r7
 80004e6:	e72b      	b.n	8000340 <__udivmoddi4+0x134>

080004e8 <__aeabi_idiv0>:
 80004e8:	4770      	bx	lr
 80004ea:	bf00      	nop

080004ec <DBG_println>:
	uint8_t clear_page = 0x0C;
	HAL_UART_Transmit(&DBG_UART_PORT, &clear_page, 1, 250);
}

void DBG_println(const char *fmt, ...)
{
 80004ec:	b40f      	push	{r0, r1, r2, r3}
 80004ee:	b530      	push	{r4, r5, lr}
 80004f0:	b0cd      	sub	sp, #308	; 0x134
 80004f2:	ac50      	add	r4, sp, #320	; 0x140
	char buffer[300] = "";
 80004f4:	2100      	movs	r1, #0
{
 80004f6:	f854 5b04 	ldr.w	r5, [r4], #4
	char buffer[300] = "";
 80004fa:	9101      	str	r1, [sp, #4]
 80004fc:	f44f 7294 	mov.w	r2, #296	; 0x128
 8000500:	a802      	add	r0, sp, #8
 8000502:	f001 fea9 	bl	8002258 <memset>
	va_list args;
	va_start(args, fmt);
	tfp_vsnprintf(buffer, sizeof(buffer), fmt, args);
 8000506:	4623      	mov	r3, r4
 8000508:	462a      	mov	r2, r5
 800050a:	f44f 7196 	mov.w	r1, #300	; 0x12c
 800050e:	a801      	add	r0, sp, #4
	va_start(args, fmt);
 8000510:	9400      	str	r4, [sp, #0]
	tfp_vsnprintf(buffer, sizeof(buffer), fmt, args);
 8000512:	f000 fae5 	bl	8000ae0 <tfp_vsnprintf>
	va_end(args);

	HAL_UART_Transmit(&DBG_UART_PORT, (uint8_t *) buffer, strlen(buffer), 250);
 8000516:	a801      	add	r0, sp, #4
 8000518:	f7ff fe58 	bl	80001cc <strlen>
 800051c:	4c08      	ldr	r4, [pc, #32]	; (8000540 <DBG_println+0x54>)
 800051e:	b282      	uxth	r2, r0
 8000520:	a901      	add	r1, sp, #4
 8000522:	23fa      	movs	r3, #250	; 0xfa
 8000524:	4620      	mov	r0, r4
 8000526:	f001 fbb8 	bl	8001c9a <HAL_UART_Transmit>
	HAL_UART_Transmit(&DBG_UART_PORT, (uint8_t *) "\r\n", strlen("\r\n"), 250);
 800052a:	23fa      	movs	r3, #250	; 0xfa
 800052c:	2202      	movs	r2, #2
 800052e:	4905      	ldr	r1, [pc, #20]	; (8000544 <DBG_println+0x58>)
 8000530:	4620      	mov	r0, r4
 8000532:	f001 fbb2 	bl	8001c9a <HAL_UART_Transmit>
}
 8000536:	b04d      	add	sp, #308	; 0x134
 8000538:	e8bd 4030 	ldmia.w	sp!, {r4, r5, lr}
 800053c:	b004      	add	sp, #16
 800053e:	4770      	bx	lr
 8000540:	200004b4 	.word	0x200004b4
 8000544:	08002280 	.word	0x08002280

08000548 <ulli2a>:


#ifdef PRINTF_LONG_LONG_SUPPORT
static void _TFP_GCC_NO_INLINE_ ulli2a(
    unsigned long long int num, struct param *p)
{
 8000548:	e92d 4ff8 	stmdb	sp!, {r3, r4, r5, r6, r7, r8, r9, sl, fp, lr}
    int n = 0;
    unsigned long long int d = 1;
    char *bf = p->bf;
 800054c:	f8d2 a010 	ldr.w	sl, [r2, #16]
    while (num / d >= p->base)
 8000550:	68d6      	ldr	r6, [r2, #12]
{
 8000552:	4680      	mov	r8, r0
 8000554:	4689      	mov	r9, r1
 8000556:	4693      	mov	fp, r2
    while (num / d >= p->base)
 8000558:	2700      	movs	r7, #0
    unsigned long long int d = 1;
 800055a:	2401      	movs	r4, #1
 800055c:	2500      	movs	r5, #0
    while (num / d >= p->base)
 800055e:	4622      	mov	r2, r4
 8000560:	462b      	mov	r3, r5
 8000562:	4640      	mov	r0, r8
 8000564:	4649      	mov	r1, r9
 8000566:	f7ff fe39 	bl	80001dc <__aeabi_uldivmod>
 800056a:	42b9      	cmp	r1, r7
 800056c:	bf08      	it	eq
 800056e:	42b0      	cmpeq	r0, r6
 8000570:	d208      	bcs.n	8000584 <ulli2a+0x3c>
 8000572:	2600      	movs	r6, #0
        d *= p->base;
    while (d != 0) {
 8000574:	ea54 0305 	orrs.w	r3, r4, r5
 8000578:	d10c      	bne.n	8000594 <ulli2a+0x4c>
        if (n || dgt > 0 || d == 0) {
            *bf++ = dgt + (dgt < 10 ? '0' : (p->uc ? 'A' : 'a') - 10);
            ++n;
        }
    }
    *bf = 0;
 800057a:	2300      	movs	r3, #0
 800057c:	f88a 3000 	strb.w	r3, [sl]
 8000580:	e8bd 8ff8 	ldmia.w	sp!, {r3, r4, r5, r6, r7, r8, r9, sl, fp, pc}
        d *= p->base;
 8000584:	fb04 f307 	mul.w	r3, r4, r7
 8000588:	fb06 3305 	mla	r3, r6, r5, r3
 800058c:	fba4 4506 	umull	r4, r5, r4, r6
 8000590:	441d      	add	r5, r3
 8000592:	e7e4      	b.n	800055e <ulli2a+0x16>
        int dgt = num / d;
 8000594:	4622      	mov	r2, r4
 8000596:	462b      	mov	r3, r5
 8000598:	4640      	mov	r0, r8
 800059a:	4649      	mov	r1, r9
 800059c:	f7ff fe1e 	bl	80001dc <__aeabi_uldivmod>
        num %= d;
 80005a0:	4622      	mov	r2, r4
 80005a2:	462b      	mov	r3, r5
 80005a4:	4649      	mov	r1, r9
        int dgt = num / d;
 80005a6:	4607      	mov	r7, r0
        num %= d;
 80005a8:	4640      	mov	r0, r8
 80005aa:	f7ff fe17 	bl	80001dc <__aeabi_uldivmod>
        d /= p->base;
 80005ae:	4620      	mov	r0, r4
 80005b0:	4629      	mov	r1, r5
        num %= d;
 80005b2:	4690      	mov	r8, r2
 80005b4:	4699      	mov	r9, r3
        d /= p->base;
 80005b6:	f8db 200c 	ldr.w	r2, [fp, #12]
 80005ba:	2300      	movs	r3, #0
 80005bc:	f7ff fe0e 	bl	80001dc <__aeabi_uldivmod>
 80005c0:	4604      	mov	r4, r0
 80005c2:	460d      	mov	r5, r1
        if (n || dgt > 0 || d == 0) {
 80005c4:	b926      	cbnz	r6, 80005d0 <ulli2a+0x88>
 80005c6:	2f00      	cmp	r7, #0
 80005c8:	dc02      	bgt.n	80005d0 <ulli2a+0x88>
 80005ca:	ea54 0305 	orrs.w	r3, r4, r5
 80005ce:	d1d1      	bne.n	8000574 <ulli2a+0x2c>
            *bf++ = dgt + (dgt < 10 ? '0' : (p->uc ? 'A' : 'a') - 10);
 80005d0:	2f09      	cmp	r7, #9
 80005d2:	f10a 0201 	add.w	r2, sl, #1
 80005d6:	dd0c      	ble.n	80005f2 <ulli2a+0xaa>
 80005d8:	f89b 3000 	ldrb.w	r3, [fp]
 80005dc:	f013 0f04 	tst.w	r3, #4
 80005e0:	bf14      	ite	ne
 80005e2:	2337      	movne	r3, #55	; 0x37
 80005e4:	2357      	moveq	r3, #87	; 0x57
 80005e6:	441f      	add	r7, r3
 80005e8:	f88a 7000 	strb.w	r7, [sl]
            ++n;
 80005ec:	3601      	adds	r6, #1
            *bf++ = dgt + (dgt < 10 ? '0' : (p->uc ? 'A' : 'a') - 10);
 80005ee:	4692      	mov	sl, r2
 80005f0:	e7c0      	b.n	8000574 <ulli2a+0x2c>
 80005f2:	2330      	movs	r3, #48	; 0x30
 80005f4:	e7f7      	b.n	80005e6 <ulli2a+0x9e>

080005f6 <uli2a>:
}
#endif

#ifdef PRINTF_LONG_SUPPORT
static void uli2a(unsigned long int num, struct param *p)
{
 80005f6:	b5f0      	push	{r4, r5, r6, r7, lr}
    int n = 0;
    unsigned long int d = 1;
    char *bf = p->bf;
 80005f8:	690a      	ldr	r2, [r1, #16]
    while (num / d >= p->base)
 80005fa:	68cc      	ldr	r4, [r1, #12]
    unsigned long int d = 1;
 80005fc:	2301      	movs	r3, #1
    while (num / d >= p->base)
 80005fe:	fbb0 f5f3 	udiv	r5, r0, r3
 8000602:	42a5      	cmp	r5, r4
 8000604:	d203      	bcs.n	800060e <uli2a+0x18>
 8000606:	2600      	movs	r6, #0
        d *= p->base;
    while (d != 0) {
 8000608:	b91b      	cbnz	r3, 8000612 <uli2a+0x1c>
        if (n || dgt > 0 || d == 0) {
            *bf++ = dgt + (dgt < 10 ? '0' : (p->uc ? 'A' : 'a') - 10);
            ++n;
        }
    }
    *bf = 0;
 800060a:	7013      	strb	r3, [r2, #0]
 800060c:	bdf0      	pop	{r4, r5, r6, r7, pc}
        d *= p->base;
 800060e:	4363      	muls	r3, r4
 8000610:	e7f5      	b.n	80005fe <uli2a+0x8>
        int dgt = num / d;
 8000612:	fbb0 f5f3 	udiv	r5, r0, r3
        d /= p->base;
 8000616:	68cc      	ldr	r4, [r1, #12]
        num %= d;
 8000618:	fb03 0015 	mls	r0, r3, r5, r0
        d /= p->base;
 800061c:	fbb3 f3f4 	udiv	r3, r3, r4
        if (n || dgt > 0 || d == 0) {
 8000620:	b91e      	cbnz	r6, 800062a <uli2a+0x34>
 8000622:	2d00      	cmp	r5, #0
 8000624:	dc01      	bgt.n	800062a <uli2a+0x34>
 8000626:	2b00      	cmp	r3, #0
 8000628:	d1ee      	bne.n	8000608 <uli2a+0x12>
            *bf++ = dgt + (dgt < 10 ? '0' : (p->uc ? 'A' : 'a') - 10);
 800062a:	2d09      	cmp	r5, #9
 800062c:	f102 0701 	add.w	r7, r2, #1
 8000630:	dd0a      	ble.n	8000648 <uli2a+0x52>
 8000632:	780c      	ldrb	r4, [r1, #0]
 8000634:	f014 0f04 	tst.w	r4, #4
 8000638:	bf14      	ite	ne
 800063a:	2437      	movne	r4, #55	; 0x37
 800063c:	2457      	moveq	r4, #87	; 0x57
 800063e:	442c      	add	r4, r5
 8000640:	7014      	strb	r4, [r2, #0]
            ++n;
 8000642:	3601      	adds	r6, #1
            *bf++ = dgt + (dgt < 10 ? '0' : (p->uc ? 'A' : 'a') - 10);
 8000644:	463a      	mov	r2, r7
 8000646:	e7df      	b.n	8000608 <uli2a+0x12>
 8000648:	2430      	movs	r4, #48	; 0x30
 800064a:	e7f8      	b.n	800063e <uli2a+0x48>

0800064c <ui2a>:
    uli2a(num, p);
}
#endif

static void ui2a(unsigned int num, struct param *p)
{
 800064c:	b5f0      	push	{r4, r5, r6, r7, lr}
    int n = 0;
    unsigned int d = 1;
    char *bf = p->bf;
 800064e:	690a      	ldr	r2, [r1, #16]
    while (num / d >= p->base)
 8000650:	68cc      	ldr	r4, [r1, #12]
    unsigned int d = 1;
 8000652:	2301      	movs	r3, #1
    while (num / d >= p->base)
 8000654:	fbb0 f5f3 	udiv	r5, r0, r3
 8000658:	42a5      	cmp	r5, r4
 800065a:	d203      	bcs.n	8000664 <ui2a+0x18>
 800065c:	2600      	movs	r6, #0
        d *= p->base;
    while (d != 0) {
 800065e:	b91b      	cbnz	r3, 8000668 <ui2a+0x1c>
        if (n || dgt > 0 || d == 0) {
            *bf++ = dgt + (dgt < 10 ? '0' : (p->uc ? 'A' : 'a') - 10);
            ++n;
        }
    }
    *bf = 0;
 8000660:	7013      	strb	r3, [r2, #0]
 8000662:	bdf0      	pop	{r4, r5, r6, r7, pc}
        d *= p->base;
 8000664:	4363      	muls	r3, r4
 8000666:	e7f5      	b.n	8000654 <ui2a+0x8>
        int dgt = num / d;
 8000668:	fbb0 f5f3 	udiv	r5, r0, r3
        d /= p->base;
 800066c:	68cc      	ldr	r4, [r1, #12]
        num %= d;
 800066e:	fb03 0015 	mls	r0, r3, r5, r0
        d /= p->base;
 8000672:	fbb3 f3f4 	udiv	r3, r3, r4
        if (n || dgt > 0 || d == 0) {
 8000676:	b91e      	cbnz	r6, 8000680 <ui2a+0x34>
 8000678:	2d00      	cmp	r5, #0
 800067a:	dc01      	bgt.n	8000680 <ui2a+0x34>
 800067c:	2b00      	cmp	r3, #0
 800067e:	d1ee      	bne.n	800065e <ui2a+0x12>
            *bf++ = dgt + (dgt < 10 ? '0' : (p->uc ? 'A' : 'a') - 10);
 8000680:	2d09      	cmp	r5, #9
 8000682:	f102 0701 	add.w	r7, r2, #1
 8000686:	dd0a      	ble.n	800069e <ui2a+0x52>
 8000688:	780c      	ldrb	r4, [r1, #0]
 800068a:	f014 0f04 	tst.w	r4, #4
 800068e:	bf14      	ite	ne
 8000690:	2437      	movne	r4, #55	; 0x37
 8000692:	2457      	moveq	r4, #87	; 0x57
 8000694:	442c      	add	r4, r5
 8000696:	7014      	strb	r4, [r2, #0]
            ++n;
 8000698:	3601      	adds	r6, #1
            *bf++ = dgt + (dgt < 10 ? '0' : (p->uc ? 'A' : 'a') - 10);
 800069a:	463a      	mov	r2, r7
 800069c:	e7df      	b.n	800065e <ui2a+0x12>
 800069e:	2430      	movs	r4, #48	; 0x30
 80006a0:	e7f8      	b.n	8000694 <ui2a+0x48>

080006a2 <putchw>:
    *nump = num;
    return ch;
}

static void putchw(void *putp, putcf putf, struct param *p)
{
 80006a2:	e92d 41f0 	stmdb	sp!, {r4, r5, r6, r7, r8, lr}
    char ch;
    int n = p->width;
    char *bf = p->bf;
 80006a6:	6913      	ldr	r3, [r2, #16]
    int n = p->width;
 80006a8:	6854      	ldr	r4, [r2, #4]
{
 80006aa:	4606      	mov	r6, r0
 80006ac:	460f      	mov	r7, r1
 80006ae:	4615      	mov	r5, r2

    /* Number of filling characters */
    while (*bf++ && n > 0)
 80006b0:	f813 2b01 	ldrb.w	r2, [r3], #1
 80006b4:	2a00      	cmp	r2, #0
 80006b6:	d144      	bne.n	8000742 <putchw+0xa0>
        n--;
    if (p->sign)
 80006b8:	7a2b      	ldrb	r3, [r5, #8]
 80006ba:	2b00      	cmp	r3, #0
 80006bc:	d145      	bne.n	800074a <putchw+0xa8>
        n--;
    if (p->alt && p->base == 16)
 80006be:	782b      	ldrb	r3, [r5, #0]
 80006c0:	0799      	lsls	r1, r3, #30
 80006c2:	d503      	bpl.n	80006cc <putchw+0x2a>
 80006c4:	68ea      	ldr	r2, [r5, #12]
 80006c6:	2a10      	cmp	r2, #16
 80006c8:	d141      	bne.n	800074e <putchw+0xac>
        n -= 2;
 80006ca:	3c02      	subs	r4, #2
    else if (p->alt && p->base == 8)
        n--;

    /* Fill with space to align to the right, before alternate or sign */
    if (!p->lz && !p->align_left) {
 80006cc:	f013 0f09 	tst.w	r3, #9
 80006d0:	d108      	bne.n	80006e4 <putchw+0x42>
 80006d2:	46a0      	mov	r8, r4
        while (n-- > 0)
 80006d4:	f1b8 0f00 	cmp.w	r8, #0
 80006d8:	dc3e      	bgt.n	8000758 <putchw+0xb6>
 80006da:	1e63      	subs	r3, r4, #1
 80006dc:	2c00      	cmp	r4, #0
 80006de:	bfac      	ite	ge
 80006e0:	1b1c      	subge	r4, r3, r4
 80006e2:	461c      	movlt	r4, r3
            putf(putp, ' ');
    }

    /* print sign */
    if (p->sign)
 80006e4:	7a29      	ldrb	r1, [r5, #8]
 80006e6:	b109      	cbz	r1, 80006ec <putchw+0x4a>
        putf(putp, p->sign);
 80006e8:	4630      	mov	r0, r6
 80006ea:	47b8      	blx	r7

    /* Alternate */
    if (p->alt && p->base == 16) {
 80006ec:	782b      	ldrb	r3, [r5, #0]
 80006ee:	079a      	lsls	r2, r3, #30
 80006f0:	d50d      	bpl.n	800070e <putchw+0x6c>
 80006f2:	68eb      	ldr	r3, [r5, #12]
 80006f4:	2b10      	cmp	r3, #16
 80006f6:	d135      	bne.n	8000764 <putchw+0xc2>
        putf(putp, '0');
 80006f8:	2130      	movs	r1, #48	; 0x30
 80006fa:	4630      	mov	r0, r6
 80006fc:	47b8      	blx	r7
        putf(putp, (p->uc ? 'X' : 'x'));
 80006fe:	782b      	ldrb	r3, [r5, #0]
 8000700:	f013 0f04 	tst.w	r3, #4
 8000704:	bf14      	ite	ne
 8000706:	2158      	movne	r1, #88	; 0x58
 8000708:	2178      	moveq	r1, #120	; 0x78
    } else if (p->alt && p->base == 8) {
        putf(putp, '0');
 800070a:	4630      	mov	r0, r6
 800070c:	47b8      	blx	r7
    }

    /* Fill with zeros, after alternate or sign */
    if (p->lz) {
 800070e:	782b      	ldrb	r3, [r5, #0]
 8000710:	07db      	lsls	r3, r3, #31
 8000712:	d508      	bpl.n	8000726 <putchw+0x84>
 8000714:	46a0      	mov	r8, r4
        while (n-- > 0)
 8000716:	f1b8 0f00 	cmp.w	r8, #0
 800071a:	dc27      	bgt.n	800076c <putchw+0xca>
 800071c:	1e63      	subs	r3, r4, #1
 800071e:	2c00      	cmp	r4, #0
 8000720:	bfac      	ite	ge
 8000722:	1b1c      	subge	r4, r3, r4
 8000724:	461c      	movlt	r4, r3
            putf(putp, '0');
    }

    /* Put actual buffer */
    bf = p->bf;
 8000726:	f8d5 8010 	ldr.w	r8, [r5, #16]
    while ((ch = *bf++))
 800072a:	f818 1b01 	ldrb.w	r1, [r8], #1
 800072e:	bb19      	cbnz	r1, 8000778 <putchw+0xd6>
        putf(putp, ch);

    /* Fill with space to align to the left, after string */
    if (!p->lz && p->align_left) {
 8000730:	782b      	ldrb	r3, [r5, #0]
 8000732:	f003 0309 	and.w	r3, r3, #9
 8000736:	2b08      	cmp	r3, #8
 8000738:	d101      	bne.n	800073e <putchw+0x9c>
        while (n-- > 0)
 800073a:	2c00      	cmp	r4, #0
 800073c:	dc1f      	bgt.n	800077e <putchw+0xdc>
 800073e:	e8bd 81f0 	ldmia.w	sp!, {r4, r5, r6, r7, r8, pc}
    while (*bf++ && n > 0)
 8000742:	2c00      	cmp	r4, #0
 8000744:	ddb8      	ble.n	80006b8 <putchw+0x16>
        n--;
 8000746:	3c01      	subs	r4, #1
 8000748:	e7b2      	b.n	80006b0 <putchw+0xe>
        n--;
 800074a:	3c01      	subs	r4, #1
 800074c:	e7b7      	b.n	80006be <putchw+0x1c>
    else if (p->alt && p->base == 8)
 800074e:	2a08      	cmp	r2, #8
        n--;
 8000750:	bf08      	it	eq
 8000752:	f104 34ff 	addeq.w	r4, r4, #4294967295
 8000756:	e7b9      	b.n	80006cc <putchw+0x2a>
            putf(putp, ' ');
 8000758:	2120      	movs	r1, #32
 800075a:	4630      	mov	r0, r6
 800075c:	47b8      	blx	r7
 800075e:	f108 38ff 	add.w	r8, r8, #4294967295
 8000762:	e7b7      	b.n	80006d4 <putchw+0x32>
    } else if (p->alt && p->base == 8) {
 8000764:	2b08      	cmp	r3, #8
 8000766:	d1d2      	bne.n	800070e <putchw+0x6c>
        putf(putp, '0');
 8000768:	2130      	movs	r1, #48	; 0x30
 800076a:	e7ce      	b.n	800070a <putchw+0x68>
            putf(putp, '0');
 800076c:	2130      	movs	r1, #48	; 0x30
 800076e:	4630      	mov	r0, r6
 8000770:	47b8      	blx	r7
 8000772:	f108 38ff 	add.w	r8, r8, #4294967295
 8000776:	e7ce      	b.n	8000716 <putchw+0x74>
        putf(putp, ch);
 8000778:	4630      	mov	r0, r6
 800077a:	47b8      	blx	r7
 800077c:	e7d5      	b.n	800072a <putchw+0x88>
            putf(putp, ' ');
 800077e:	2120      	movs	r1, #32
 8000780:	4630      	mov	r0, r6
 8000782:	47b8      	blx	r7
 8000784:	3c01      	subs	r4, #1
 8000786:	e7d8      	b.n	800073a <putchw+0x98>

08000788 <_vsnprintf_putcf>:
};

static void _vsnprintf_putcf(void *p, char c)
{
  struct _vsnprintf_putcf_data *data = (struct _vsnprintf_putcf_data*)p;
  if (data->num_chars < data->dest_capacity)
 8000788:	6883      	ldr	r3, [r0, #8]
 800078a:	6802      	ldr	r2, [r0, #0]
 800078c:	4293      	cmp	r3, r2
    data->dest[data->num_chars] = c;
 800078e:	bf3c      	itt	cc
 8000790:	6842      	ldrcc	r2, [r0, #4]
 8000792:	54d1      	strbcc	r1, [r2, r3]
  data->num_chars ++;
 8000794:	6883      	ldr	r3, [r0, #8]
 8000796:	3301      	adds	r3, #1
 8000798:	6083      	str	r3, [r0, #8]
 800079a:	4770      	bx	lr

0800079c <tfp_format>:
{
 800079c:	e92d 47f0 	stmdb	sp!, {r4, r5, r6, r7, r8, r9, sl, lr}
 80007a0:	b08c      	sub	sp, #48	; 0x30
    p.bf = bf;
 80007a2:	ae06      	add	r6, sp, #24
{
 80007a4:	4680      	mov	r8, r0
 80007a6:	4689      	mov	r9, r1
 80007a8:	461c      	mov	r4, r3
    p.bf = bf;
 80007aa:	9605      	str	r6, [sp, #20]
    while ((ch = *(fmt++))) {
 80007ac:	7811      	ldrb	r1, [r2, #0]
 80007ae:	1c57      	adds	r7, r2, #1
 80007b0:	b911      	cbnz	r1, 80007b8 <tfp_format+0x1c>
}
 80007b2:	b00c      	add	sp, #48	; 0x30
 80007b4:	e8bd 87f0 	ldmia.w	sp!, {r4, r5, r6, r7, r8, r9, sl, pc}
        if (ch != '%') {
 80007b8:	2925      	cmp	r1, #37	; 0x25
 80007ba:	d002      	beq.n	80007c2 <tfp_format+0x26>
                putf(putp, ch);
 80007bc:	4640      	mov	r0, r8
 80007be:	47c8      	blx	r9
 80007c0:	e097      	b.n	80008f2 <tfp_format+0x156>
            p.lz = 0;
 80007c2:	f89d 3004 	ldrb.w	r3, [sp, #4]
            p.width = 0;
 80007c6:	2200      	movs	r2, #0
            p.align_left = 0;
 80007c8:	f003 03fc 	and.w	r3, r3, #252	; 0xfc
 80007cc:	f362 03c3 	bfi	r3, r2, #3, #1
            p.width = 0;
 80007d0:	9202      	str	r2, [sp, #8]
            p.align_left = 0;
 80007d2:	f88d 3004 	strb.w	r3, [sp, #4]
            p.sign = 0;
 80007d6:	f88d 200c 	strb.w	r2, [sp, #12]
            while ((ch = *(fmt++))) {
 80007da:	4696      	mov	lr, r2
 80007dc:	4611      	mov	r1, r2
 80007de:	4694      	mov	ip, r2
 80007e0:	4610      	mov	r0, r2
 80007e2:	4692      	mov	sl, r2
 80007e4:	463d      	mov	r5, r7
 80007e6:	f815 3b01 	ldrb.w	r3, [r5], #1
 80007ea:	2b00      	cmp	r3, #0
 80007ec:	d149      	bne.n	8000882 <tfp_format+0xe6>
 80007ee:	b128      	cbz	r0, 80007fc <tfp_format+0x60>
 80007f0:	f89d 0004 	ldrb.w	r0, [sp, #4]
 80007f4:	f36a 00c3 	bfi	r0, sl, #3, #1
 80007f8:	f88d 0004 	strb.w	r0, [sp, #4]
 80007fc:	b129      	cbz	r1, 800080a <tfp_format+0x6e>
 80007fe:	f89d 1004 	ldrb.w	r1, [sp, #4]
 8000802:	f36c 0100 	bfi	r1, ip, #0, #1
 8000806:	f88d 1004 	strb.w	r1, [sp, #4]
 800080a:	b12a      	cbz	r2, 8000818 <tfp_format+0x7c>
 800080c:	f89d 2004 	ldrb.w	r2, [sp, #4]
 8000810:	f36e 0241 	bfi	r2, lr, #1, #1
 8000814:	f88d 2004 	strb.w	r2, [sp, #4]
            if (ch >= '0' && ch <= '9') {
 8000818:	f1a3 0230 	sub.w	r2, r3, #48	; 0x30
 800081c:	2a09      	cmp	r2, #9
 800081e:	d80f      	bhi.n	8000840 <tfp_format+0xa4>
 8000820:	2100      	movs	r1, #0
        num = num * base + digit;
 8000822:	200a      	movs	r0, #10
    if (ch >= '0' && ch <= '9')
 8000824:	f1a3 0230 	sub.w	r2, r3, #48	; 0x30
 8000828:	b2d7      	uxtb	r7, r2
 800082a:	2f09      	cmp	r7, #9
 800082c:	d939      	bls.n	80008a2 <tfp_format+0x106>
    else if (ch >= 'a' && ch <= 'f')
 800082e:	f1a3 0261 	sub.w	r2, r3, #97	; 0x61
 8000832:	2a05      	cmp	r2, #5
 8000834:	d83a      	bhi.n	80008ac <tfp_format+0x110>
        return ch - 'a' + 10;
 8000836:	f1a3 0257 	sub.w	r2, r3, #87	; 0x57
        if (digit > base)
 800083a:	2a0a      	cmp	r2, #10
 800083c:	dd31      	ble.n	80008a2 <tfp_format+0x106>
    *nump = num;
 800083e:	9102      	str	r1, [sp, #8]
            if (ch == '.') {
 8000840:	2b2e      	cmp	r3, #46	; 0x2e
 8000842:	d10b      	bne.n	800085c <tfp_format+0xc0>
              p.lz = 1;  /* zero-padding */
 8000844:	f89d 3004 	ldrb.w	r3, [sp, #4]
 8000848:	f043 0301 	orr.w	r3, r3, #1
 800084c:	f88d 3004 	strb.w	r3, [sp, #4]
                ch = *(fmt++);
 8000850:	f815 3b01 	ldrb.w	r3, [r5], #1
              } while ((ch >= '0') && (ch <= '9'));
 8000854:	f1a3 0230 	sub.w	r2, r3, #48	; 0x30
 8000858:	2a09      	cmp	r2, #9
 800085a:	d9f9      	bls.n	8000850 <tfp_format+0xb4>
            if (ch == 'z') {
 800085c:	2b7a      	cmp	r3, #122	; 0x7a
 800085e:	d12c      	bne.n	80008ba <tfp_format+0x11e>
                ch = *(fmt++);
 8000860:	782b      	ldrb	r3, [r5, #0]
 8000862:	1c6f      	adds	r7, r5, #1
            switch (ch) {
 8000864:	2b69      	cmp	r3, #105	; 0x69
 8000866:	d00a      	beq.n	800087e <tfp_format+0xe2>
 8000868:	f200 80df 	bhi.w	8000a2a <tfp_format+0x28e>
 800086c:	2b58      	cmp	r3, #88	; 0x58
 800086e:	f000 80e5 	beq.w	8000a3c <tfp_format+0x2a0>
 8000872:	d932      	bls.n	80008da <tfp_format+0x13e>
 8000874:	2b63      	cmp	r3, #99	; 0x63
 8000876:	f000 80c3 	beq.w	8000a00 <tfp_format+0x264>
 800087a:	2b64      	cmp	r3, #100	; 0x64
 800087c:	d139      	bne.n	80008f2 <tfp_format+0x156>
 800087e:	2301      	movs	r3, #1
 8000880:	e07d      	b.n	800097e <tfp_format+0x1e2>
                switch (ch) {
 8000882:	2b2d      	cmp	r3, #45	; 0x2d
 8000884:	d006      	beq.n	8000894 <tfp_format+0xf8>
 8000886:	2b30      	cmp	r3, #48	; 0x30
 8000888:	d008      	beq.n	800089c <tfp_format+0x100>
 800088a:	2b23      	cmp	r3, #35	; 0x23
 800088c:	d1af      	bne.n	80007ee <tfp_format+0x52>
                    continue;
 800088e:	2201      	movs	r2, #1
                    p.alt = 1;
 8000890:	4696      	mov	lr, r2
                    continue;
 8000892:	e001      	b.n	8000898 <tfp_format+0xfc>
                switch (ch) {
 8000894:	2001      	movs	r0, #1
                    p.align_left = 1;
 8000896:	4682      	mov	sl, r0
 8000898:	462f      	mov	r7, r5
 800089a:	e7a3      	b.n	80007e4 <tfp_format+0x48>
                switch (ch) {
 800089c:	2101      	movs	r1, #1
                    p.lz = 1;
 800089e:	468c      	mov	ip, r1
 80008a0:	e7fa      	b.n	8000898 <tfp_format+0xfc>
        num = num * base + digit;
 80008a2:	fb00 2101 	mla	r1, r0, r1, r2
        ch = *p++;
 80008a6:	f815 3b01 	ldrb.w	r3, [r5], #1
 80008aa:	e7bb      	b.n	8000824 <tfp_format+0x88>
    else if (ch >= 'A' && ch <= 'F')
 80008ac:	f1a3 0241 	sub.w	r2, r3, #65	; 0x41
 80008b0:	2a05      	cmp	r2, #5
 80008b2:	d8c4      	bhi.n	800083e <tfp_format+0xa2>
        return ch - 'A' + 10;
 80008b4:	f1a3 0237 	sub.w	r2, r3, #55	; 0x37
 80008b8:	e7bf      	b.n	800083a <tfp_format+0x9e>
            if (ch == 'l') {
 80008ba:	2b6c      	cmp	r3, #108	; 0x6c
 80008bc:	f040 80ce 	bne.w	8000a5c <tfp_format+0x2c0>
                ch = *(fmt++);
 80008c0:	782b      	ldrb	r3, [r5, #0]
                if (ch == 'l') {
 80008c2:	2b6c      	cmp	r3, #108	; 0x6c
 80008c4:	f040 80af 	bne.w	8000a26 <tfp_format+0x28a>
                  ch = *(fmt++);
 80008c8:	786b      	ldrb	r3, [r5, #1]
            switch (ch) {
 80008ca:	2b69      	cmp	r3, #105	; 0x69
                  ch = *(fmt++);
 80008cc:	f105 0702 	add.w	r7, r5, #2
            switch (ch) {
 80008d0:	d054      	beq.n	800097c <tfp_format+0x1e0>
 80008d2:	d810      	bhi.n	80008f6 <tfp_format+0x15a>
 80008d4:	2b58      	cmp	r3, #88	; 0x58
 80008d6:	d01c      	beq.n	8000912 <tfp_format+0x176>
 80008d8:	d806      	bhi.n	80008e8 <tfp_format+0x14c>
 80008da:	2b00      	cmp	r3, #0
 80008dc:	f43f af69 	beq.w	80007b2 <tfp_format+0x16>
 80008e0:	2b25      	cmp	r3, #37	; 0x25
 80008e2:	f000 809e 	beq.w	8000a22 <tfp_format+0x286>
 80008e6:	e004      	b.n	80008f2 <tfp_format+0x156>
 80008e8:	2b63      	cmp	r3, #99	; 0x63
 80008ea:	f000 8089 	beq.w	8000a00 <tfp_format+0x264>
 80008ee:	2b64      	cmp	r3, #100	; 0x64
 80008f0:	d044      	beq.n	800097c <tfp_format+0x1e0>
 80008f2:	463a      	mov	r2, r7
 80008f4:	e75a      	b.n	80007ac <tfp_format+0x10>
 80008f6:	2b73      	cmp	r3, #115	; 0x73
 80008f8:	f000 8088 	beq.w	8000a0c <tfp_format+0x270>
 80008fc:	d805      	bhi.n	800090a <tfp_format+0x16e>
 80008fe:	2b6f      	cmp	r3, #111	; 0x6f
 8000900:	d06f      	beq.n	80009e2 <tfp_format+0x246>
 8000902:	2b70      	cmp	r3, #112	; 0x70
 8000904:	f000 80c6 	beq.w	8000a94 <tfp_format+0x2f8>
 8000908:	e7f3      	b.n	80008f2 <tfp_format+0x156>
 800090a:	2b75      	cmp	r3, #117	; 0x75
 800090c:	d014      	beq.n	8000938 <tfp_format+0x19c>
 800090e:	2b78      	cmp	r3, #120	; 0x78
 8000910:	d1ef      	bne.n	80008f2 <tfp_format+0x156>
                p.base = 16;
 8000912:	2210      	movs	r2, #16
 8000914:	9204      	str	r2, [sp, #16]
                p.uc = (ch == 'X')?1:0;
 8000916:	f1a3 0258 	sub.w	r2, r3, #88	; 0x58
 800091a:	4253      	negs	r3, r2
 800091c:	f89d 1004 	ldrb.w	r1, [sp, #4]
 8000920:	4153      	adcs	r3, r2
 8000922:	f363 0182 	bfi	r1, r3, #2, #1
 8000926:	aa0c      	add	r2, sp, #48	; 0x30
                    ulli2a(va_arg(va, unsigned long long int), &p);
 8000928:	1de3      	adds	r3, r4, #7
 800092a:	f023 0307 	bic.w	r3, r3, #7
                p.uc = (ch == 'X')?1:0;
 800092e:	f802 1d2c 	strb.w	r1, [r2, #-44]!
                    ulli2a(va_arg(va, unsigned long long int), &p);
 8000932:	f103 0408 	add.w	r4, r3, #8
 8000936:	e00a      	b.n	800094e <tfp_format+0x1b2>
                  lng = 2;
 8000938:	2302      	movs	r3, #2
                p.base = 10;
 800093a:	220a      	movs	r2, #10
                if (2 == lng)
 800093c:	2b02      	cmp	r3, #2
                p.base = 10;
 800093e:	9204      	str	r2, [sp, #16]
                if (2 == lng)
 8000940:	d10d      	bne.n	800095e <tfp_format+0x1c2>
                    ulli2a(va_arg(va, unsigned long long int), &p);
 8000942:	1de3      	adds	r3, r4, #7
 8000944:	f023 0307 	bic.w	r3, r3, #7
 8000948:	f103 0408 	add.w	r4, r3, #8
 800094c:	aa01      	add	r2, sp, #4
                    ulli2a(va_arg(va, unsigned long long int), &p);
 800094e:	e9d3 0100 	ldrd	r0, r1, [r3]
 8000952:	e02b      	b.n	80009ac <tfp_format+0x210>
            switch (ch) {
 8000954:	2301      	movs	r3, #1
 8000956:	e7f0      	b.n	800093a <tfp_format+0x19e>
 8000958:	462f      	mov	r7, r5
            char lng = 0;  /* 1 for long, 2 for long long */
 800095a:	2300      	movs	r3, #0
 800095c:	e7ed      	b.n	800093a <tfp_format+0x19e>
                  if (1 == lng)
 800095e:	2b01      	cmp	r3, #1
                    uli2a(va_arg(va, unsigned long int), &p);
 8000960:	a901      	add	r1, sp, #4
 8000962:	6820      	ldr	r0, [r4, #0]
 8000964:	f104 0504 	add.w	r5, r4, #4
                  if (1 == lng)
 8000968:	d137      	bne.n	80009da <tfp_format+0x23e>
    uli2a(num, p);
 800096a:	f7ff fe44 	bl	80005f6 <uli2a>
                    i2a(va_arg(va, int), &p);
 800096e:	462c      	mov	r4, r5
                putchw(putp, putf, &p);
 8000970:	aa01      	add	r2, sp, #4
 8000972:	4649      	mov	r1, r9
 8000974:	4640      	mov	r0, r8
 8000976:	f7ff fe94 	bl	80006a2 <putchw>
                break;
 800097a:	e7ba      	b.n	80008f2 <tfp_format+0x156>
                  lng = 2;
 800097c:	2302      	movs	r3, #2
                p.base = 10;
 800097e:	220a      	movs	r2, #10
                if (2 == lng)
 8000980:	2b02      	cmp	r3, #2
                p.base = 10;
 8000982:	9204      	str	r2, [sp, #16]
                if (2 == lng)
 8000984:	d115      	bne.n	80009b2 <tfp_format+0x216>
                    lli2a(va_arg(va, long long int), &p);
 8000986:	1de3      	adds	r3, r4, #7
 8000988:	f023 0307 	bic.w	r3, r3, #7
 800098c:	e9d3 0100 	ldrd	r0, r1, [r3]
    if (num < 0) {
 8000990:	2800      	cmp	r0, #0
                    lli2a(va_arg(va, long long int), &p);
 8000992:	f103 0408 	add.w	r4, r3, #8
    if (num < 0) {
 8000996:	f171 0300 	sbcs.w	r3, r1, #0
 800099a:	da06      	bge.n	80009aa <tfp_format+0x20e>
        num = -num;
 800099c:	4240      	negs	r0, r0
        p->sign = '-';
 800099e:	f04f 032d 	mov.w	r3, #45	; 0x2d
        num = -num;
 80009a2:	eb61 0141 	sbc.w	r1, r1, r1, lsl #1
        p->sign = '-';
 80009a6:	f88d 300c 	strb.w	r3, [sp, #12]
    ulli2a(num, p);
 80009aa:	aa01      	add	r2, sp, #4
                    ulli2a(va_arg(va, unsigned long long int), &p);
 80009ac:	f7ff fdcc 	bl	8000548 <ulli2a>
 80009b0:	e7de      	b.n	8000970 <tfp_format+0x1d4>
                  if (1 == lng)
 80009b2:	2b01      	cmp	r3, #1
                    li2a(va_arg(va, long int), &p);
 80009b4:	6820      	ldr	r0, [r4, #0]
 80009b6:	f104 0504 	add.w	r5, r4, #4
                  if (1 == lng)
 80009ba:	d107      	bne.n	80009cc <tfp_format+0x230>
    if (num < 0) {
 80009bc:	2800      	cmp	r0, #0
        p->sign = '-';
 80009be:	bfbe      	ittt	lt
 80009c0:	232d      	movlt	r3, #45	; 0x2d
        num = -num;
 80009c2:	4240      	neglt	r0, r0
        p->sign = '-';
 80009c4:	f88d 300c 	strblt.w	r3, [sp, #12]
    uli2a(num, p);
 80009c8:	a901      	add	r1, sp, #4
 80009ca:	e7ce      	b.n	800096a <tfp_format+0x1ce>
    if (num < 0) {
 80009cc:	2800      	cmp	r0, #0
        p->sign = '-';
 80009ce:	bfbe      	ittt	lt
 80009d0:	232d      	movlt	r3, #45	; 0x2d
        num = -num;
 80009d2:	4240      	neglt	r0, r0
        p->sign = '-';
 80009d4:	f88d 300c 	strblt.w	r3, [sp, #12]
    ui2a(num, p);
 80009d8:	a901      	add	r1, sp, #4
 80009da:	f7ff fe37 	bl	800064c <ui2a>
 80009de:	e7c6      	b.n	800096e <tfp_format+0x1d2>
            switch (ch) {
 80009e0:	462f      	mov	r7, r5
                p.base = 8;
 80009e2:	2308      	movs	r3, #8
                ui2a(va_arg(va, unsigned int), &p);
 80009e4:	a901      	add	r1, sp, #4
 80009e6:	6820      	ldr	r0, [r4, #0]
                p.base = 8;
 80009e8:	9304      	str	r3, [sp, #16]
                ui2a(va_arg(va, unsigned int), &p);
 80009ea:	f7ff fe2f 	bl	800064c <ui2a>
                putchw(putp, putf, &p);
 80009ee:	aa01      	add	r2, sp, #4
 80009f0:	4649      	mov	r1, r9
 80009f2:	4640      	mov	r0, r8
                ui2a(va_arg(va, unsigned int), &p);
 80009f4:	1d25      	adds	r5, r4, #4
                putchw(putp, putf, &p);
 80009f6:	f7ff fe54 	bl	80006a2 <putchw>
                putf(putp, (char)(va_arg(va, int)));
 80009fa:	462c      	mov	r4, r5
                break;
 80009fc:	e779      	b.n	80008f2 <tfp_format+0x156>
            switch (ch) {
 80009fe:	462f      	mov	r7, r5
                putf(putp, (char)(va_arg(va, int)));
 8000a00:	7821      	ldrb	r1, [r4, #0]
 8000a02:	4640      	mov	r0, r8
 8000a04:	1d25      	adds	r5, r4, #4
 8000a06:	47c8      	blx	r9
 8000a08:	e7f7      	b.n	80009fa <tfp_format+0x25e>
            switch (ch) {
 8000a0a:	462f      	mov	r7, r5
                p.bf = va_arg(va, char *);
 8000a0c:	6823      	ldr	r3, [r4, #0]
 8000a0e:	9305      	str	r3, [sp, #20]
                putchw(putp, putf, &p);
 8000a10:	aa01      	add	r2, sp, #4
 8000a12:	4649      	mov	r1, r9
 8000a14:	4640      	mov	r0, r8
 8000a16:	f7ff fe44 	bl	80006a2 <putchw>
                p.bf = va_arg(va, char *);
 8000a1a:	1d25      	adds	r5, r4, #4
                p.bf = bf;
 8000a1c:	9605      	str	r6, [sp, #20]
 8000a1e:	e7ec      	b.n	80009fa <tfp_format+0x25e>
            switch (ch) {
 8000a20:	462f      	mov	r7, r5
                putf(putp, ch);
 8000a22:	2125      	movs	r1, #37	; 0x25
 8000a24:	e6ca      	b.n	80007bc <tfp_format+0x20>
                ch = *(fmt++);
 8000a26:	1c6f      	adds	r7, r5, #1
 8000a28:	e71c      	b.n	8000864 <tfp_format+0xc8>
            switch (ch) {
 8000a2a:	2b73      	cmp	r3, #115	; 0x73
 8000a2c:	d0ee      	beq.n	8000a0c <tfp_format+0x270>
 8000a2e:	f67f af66 	bls.w	80008fe <tfp_format+0x162>
 8000a32:	2b75      	cmp	r3, #117	; 0x75
 8000a34:	d08e      	beq.n	8000954 <tfp_format+0x1b8>
 8000a36:	2b78      	cmp	r3, #120	; 0x78
 8000a38:	f47f af5b 	bne.w	80008f2 <tfp_format+0x156>
                p.uc = (ch == 'X')?1:0;
 8000a3c:	f1a3 0058 	sub.w	r0, r3, #88	; 0x58
                p.base = 16;
 8000a40:	2210      	movs	r2, #16
                p.uc = (ch == 'X')?1:0;
 8000a42:	4243      	negs	r3, r0
                p.base = 16;
 8000a44:	9204      	str	r2, [sp, #16]
                p.uc = (ch == 'X')?1:0;
 8000a46:	f89d 2004 	ldrb.w	r2, [sp, #4]
 8000a4a:	4143      	adcs	r3, r0
 8000a4c:	a90c      	add	r1, sp, #48	; 0x30
 8000a4e:	f363 0282 	bfi	r2, r3, #2, #1
 8000a52:	f801 2d2c 	strb.w	r2, [r1, #-44]!
                    uli2a(va_arg(va, unsigned long int), &p);
 8000a56:	1d25      	adds	r5, r4, #4
 8000a58:	6820      	ldr	r0, [r4, #0]
 8000a5a:	e786      	b.n	800096a <tfp_format+0x1ce>
            switch (ch) {
 8000a5c:	2b69      	cmp	r3, #105	; 0x69
 8000a5e:	d00e      	beq.n	8000a7e <tfp_format+0x2e2>
 8000a60:	d810      	bhi.n	8000a84 <tfp_format+0x2e8>
 8000a62:	2b58      	cmp	r3, #88	; 0x58
 8000a64:	d02f      	beq.n	8000ac6 <tfp_format+0x32a>
 8000a66:	d806      	bhi.n	8000a76 <tfp_format+0x2da>
 8000a68:	2b00      	cmp	r3, #0
 8000a6a:	f43f aea2 	beq.w	80007b2 <tfp_format+0x16>
 8000a6e:	2b25      	cmp	r3, #37	; 0x25
 8000a70:	d0d6      	beq.n	8000a20 <tfp_format+0x284>
 8000a72:	462f      	mov	r7, r5
 8000a74:	e73d      	b.n	80008f2 <tfp_format+0x156>
 8000a76:	2b63      	cmp	r3, #99	; 0x63
 8000a78:	d0c1      	beq.n	80009fe <tfp_format+0x262>
 8000a7a:	2b64      	cmp	r3, #100	; 0x64
 8000a7c:	d1f9      	bne.n	8000a72 <tfp_format+0x2d6>
 8000a7e:	462f      	mov	r7, r5
            char lng = 0;  /* 1 for long, 2 for long long */
 8000a80:	2300      	movs	r3, #0
 8000a82:	e77c      	b.n	800097e <tfp_format+0x1e2>
            switch (ch) {
 8000a84:	2b73      	cmp	r3, #115	; 0x73
 8000a86:	d0c0      	beq.n	8000a0a <tfp_format+0x26e>
 8000a88:	d818      	bhi.n	8000abc <tfp_format+0x320>
 8000a8a:	2b6f      	cmp	r3, #111	; 0x6f
 8000a8c:	d0a8      	beq.n	80009e0 <tfp_format+0x244>
 8000a8e:	2b70      	cmp	r3, #112	; 0x70
 8000a90:	d1ef      	bne.n	8000a72 <tfp_format+0x2d6>
 8000a92:	462f      	mov	r7, r5
                p.alt = 1;
 8000a94:	f89d 3004 	ldrb.w	r3, [sp, #4]
                p.uc = (ch == 'X')?1:0;
 8000a98:	f043 0302 	orr.w	r3, r3, #2
                p.base = 16;
 8000a9c:	2210      	movs	r2, #16
                p.uc = (ch == 'X')?1:0;
 8000a9e:	f36f 0382 	bfc	r3, #2, #1
                p.base = 16;
 8000aa2:	9204      	str	r2, [sp, #16]
                p.uc = (ch == 'X')?1:0;
 8000aa4:	f88d 3004 	strb.w	r3, [sp, #4]
 8000aa8:	463d      	mov	r5, r7
                    ui2a(va_arg(va, unsigned int), &p);
 8000aaa:	6820      	ldr	r0, [r4, #0]
 8000aac:	f104 0a04 	add.w	sl, r4, #4
 8000ab0:	a901      	add	r1, sp, #4
 8000ab2:	f7ff fdcb 	bl	800064c <ui2a>
 8000ab6:	462f      	mov	r7, r5
 8000ab8:	4654      	mov	r4, sl
 8000aba:	e759      	b.n	8000970 <tfp_format+0x1d4>
            switch (ch) {
 8000abc:	2b75      	cmp	r3, #117	; 0x75
 8000abe:	f43f af4b 	beq.w	8000958 <tfp_format+0x1bc>
 8000ac2:	2b78      	cmp	r3, #120	; 0x78
 8000ac4:	d1d5      	bne.n	8000a72 <tfp_format+0x2d6>
                p.base = 16;
 8000ac6:	2210      	movs	r2, #16
                p.uc = (ch == 'X')?1:0;
 8000ac8:	f1a3 0158 	sub.w	r1, r3, #88	; 0x58
                p.base = 16;
 8000acc:	9204      	str	r2, [sp, #16]
                p.uc = (ch == 'X')?1:0;
 8000ace:	424b      	negs	r3, r1
 8000ad0:	f89d 2004 	ldrb.w	r2, [sp, #4]
 8000ad4:	414b      	adcs	r3, r1
 8000ad6:	f363 0282 	bfi	r2, r3, #2, #1
 8000ada:	f88d 2004 	strb.w	r2, [sp, #4]
 8000ade:	e7e4      	b.n	8000aaa <tfp_format+0x30e>

08000ae0 <tfp_vsnprintf>:
}

int tfp_vsnprintf(char *str, size_t size, const char *format, va_list ap)
{
 8000ae0:	b51f      	push	{r0, r1, r2, r3, r4, lr}
 8000ae2:	2400      	movs	r4, #0
  struct _vsnprintf_putcf_data data;

  if (size < 1)
 8000ae4:	b189      	cbz	r1, 8000b0a <tfp_vsnprintf+0x2a>
    return 0;

  data.dest = str;
  data.dest_capacity = size-1;
 8000ae6:	3901      	subs	r1, #1
  data.dest = str;
 8000ae8:	9002      	str	r0, [sp, #8]
  data.dest_capacity = size-1;
 8000aea:	9101      	str	r1, [sp, #4]
  data.num_chars = 0;
  tfp_format(&data, _vsnprintf_putcf, format, ap);
 8000aec:	a801      	add	r0, sp, #4
 8000aee:	4908      	ldr	r1, [pc, #32]	; (8000b10 <tfp_vsnprintf+0x30>)
  data.num_chars = 0;
 8000af0:	9403      	str	r4, [sp, #12]
  tfp_format(&data, _vsnprintf_putcf, format, ap);
 8000af2:	f7ff fe53 	bl	800079c <tfp_format>

  if (data.num_chars < data.dest_capacity)
 8000af6:	9903      	ldr	r1, [sp, #12]
 8000af8:	9b01      	ldr	r3, [sp, #4]
 8000afa:	9a02      	ldr	r2, [sp, #8]
 8000afc:	4299      	cmp	r1, r3
    data.dest[data.num_chars] = '\0';
 8000afe:	bf34      	ite	cc
 8000b00:	5454      	strbcc	r4, [r2, r1]
  else
    data.dest[data.dest_capacity] = '\0';
 8000b02:	54d4      	strbcs	r4, [r2, r3]

  return data.num_chars;
 8000b04:	9803      	ldr	r0, [sp, #12]
}
 8000b06:	b004      	add	sp, #16
 8000b08:	bd10      	pop	{r4, pc}
    return 0;
 8000b0a:	4608      	mov	r0, r1
 8000b0c:	e7fb      	b.n	8000b06 <tfp_vsnprintf+0x26>
 8000b0e:	bf00      	nop
 8000b10:	08000789 	.word	0x08000789

08000b14 <HAL_InitTick>:
  *       implementation  in user file.
  * @param TickPriority  Tick interrupt priority.
  * @retval HAL status
  */
__weak HAL_StatusTypeDef HAL_InitTick(uint32_t TickPriority)
{
 8000b14:	b538      	push	{r3, r4, r5, lr}
  HAL_StatusTypeDef  status = HAL_OK;

  /*Configure the SysTick to have interrupt in 1ms time basis*/
  if (HAL_SYSTICK_Config(SystemCoreClock/1000UL) != 0U)
 8000b16:	4b0a      	ldr	r3, [pc, #40]	; (8000b40 <HAL_InitTick+0x2c>)
{
 8000b18:	4605      	mov	r5, r0
  if (HAL_SYSTICK_Config(SystemCoreClock/1000UL) != 0U)
 8000b1a:	6818      	ldr	r0, [r3, #0]
 8000b1c:	f44f 737a 	mov.w	r3, #1000	; 0x3e8
 8000b20:	fbb0 f0f3 	udiv	r0, r0, r3
 8000b24:	f000 f880 	bl	8000c28 <HAL_SYSTICK_Config>
 8000b28:	4604      	mov	r4, r0
 8000b2a:	b938      	cbnz	r0, 8000b3c <HAL_InitTick+0x28>
    status = HAL_ERROR;
  }
  else
  {
    /*Configure the SysTick IRQ priority */
    HAL_NVIC_SetPriority(SysTick_IRQn, TickPriority, 0);
 8000b2c:	4602      	mov	r2, r0
 8000b2e:	4629      	mov	r1, r5
 8000b30:	f04f 30ff 	mov.w	r0, #4294967295
 8000b34:	f000 f844 	bl	8000bc0 <HAL_NVIC_SetPriority>
 8000b38:	4620      	mov	r0, r4
 8000b3a:	bd38      	pop	{r3, r4, r5, pc}
    status = HAL_ERROR;
 8000b3c:	2001      	movs	r0, #1
  }

  /* Return function status */
  return status;
}
 8000b3e:	bd38      	pop	{r3, r4, r5, pc}
 8000b40:	20000000 	.word	0x20000000

08000b44 <HAL_Init>:
{
 8000b44:	b510      	push	{r4, lr}
  HAL_NVIC_SetPriorityGrouping(NVIC_PRIORITYGROUP_4);
 8000b46:	2003      	movs	r0, #3
 8000b48:	f000 f828 	bl	8000b9c <HAL_NVIC_SetPriorityGrouping>
  if (HAL_InitTick(TICK_INT_PRIORITY) != HAL_OK)
 8000b4c:	2000      	movs	r0, #0
 8000b4e:	f7ff ffe1 	bl	8000b14 <HAL_InitTick>
 8000b52:	4604      	mov	r4, r0
 8000b54:	b918      	cbnz	r0, 8000b5e <HAL_Init+0x1a>
    HAL_MspInit();
 8000b56:	f001 fa97 	bl	8002088 <HAL_MspInit>
}
 8000b5a:	4620      	mov	r0, r4
 8000b5c:	bd10      	pop	{r4, pc}
    status = HAL_ERROR;
 8000b5e:	2401      	movs	r4, #1
 8000b60:	e7fb      	b.n	8000b5a <HAL_Init+0x16>
	...

08000b64 <HAL_IncTick>:
  *      implementations in user file.
  * @retval None
  */
__weak void HAL_IncTick(void)
{
  uwTick++;
 8000b64:	4a02      	ldr	r2, [pc, #8]	; (8000b70 <HAL_IncTick+0xc>)
 8000b66:	6813      	ldr	r3, [r2, #0]
 8000b68:	3301      	adds	r3, #1
 8000b6a:	6013      	str	r3, [r2, #0]
 8000b6c:	4770      	bx	lr
 8000b6e:	bf00      	nop
 8000b70:	20000048 	.word	0x20000048

08000b74 <HAL_GetTick>:
  *       implementations in user file.
  * @retval tick value
  */
__weak uint32_t HAL_GetTick(void)
{
  return uwTick;
 8000b74:	4b01      	ldr	r3, [pc, #4]	; (8000b7c <HAL_GetTick+0x8>)
 8000b76:	6818      	ldr	r0, [r3, #0]
}
 8000b78:	4770      	bx	lr
 8000b7a:	bf00      	nop
 8000b7c:	20000048 	.word	0x20000048

08000b80 <HAL_Delay>:
  *       implementations in user file.
  * @param Delay  specifies the delay time length, in milliseconds.
  * @retval None
  */
__weak void HAL_Delay(uint32_t Delay)
{
 8000b80:	b538      	push	{r3, r4, r5, lr}
 8000b82:	4604      	mov	r4, r0
  uint32_t tickstart = HAL_GetTick();
 8000b84:	f7ff fff6 	bl	8000b74 <HAL_GetTick>
  uint32_t wait = Delay;

  /* Add a period to guaranty minimum wait */
  if (wait < HAL_MAX_DELAY)
 8000b88:	1c63      	adds	r3, r4, #1
  uint32_t tickstart = HAL_GetTick();
 8000b8a:	4605      	mov	r5, r0
  {
    wait++;
 8000b8c:	bf18      	it	ne
 8000b8e:	3401      	addne	r4, #1
  }

  while((HAL_GetTick() - tickstart) < wait)
 8000b90:	f7ff fff0 	bl	8000b74 <HAL_GetTick>
 8000b94:	1b40      	subs	r0, r0, r5
 8000b96:	4284      	cmp	r4, r0
 8000b98:	d8fa      	bhi.n	8000b90 <HAL_Delay+0x10>
  {
  }
}
 8000b9a:	bd38      	pop	{r3, r4, r5, pc}

08000b9c <HAL_NVIC_SetPriorityGrouping>:
__STATIC_INLINE void NVIC_SetPriorityGrouping(uint32_t PriorityGroup)
{
  uint32_t reg_value;
  uint32_t PriorityGroupTmp = (PriorityGroup & (uint32_t)0x07UL);             /* only values 0..7 are used          */

  reg_value  =  SCB->AIRCR;                                                   /* read old register configuration    */
 8000b9c:	4a07      	ldr	r2, [pc, #28]	; (8000bbc <HAL_NVIC_SetPriorityGrouping+0x20>)
 8000b9e:	68d3      	ldr	r3, [r2, #12]
  reg_value &= ~((uint32_t)(SCB_AIRCR_VECTKEY_Msk | SCB_AIRCR_PRIGROUP_Msk)); /* clear bits to change               */
 8000ba0:	f423 63e0 	bic.w	r3, r3, #1792	; 0x700
 8000ba4:	041b      	lsls	r3, r3, #16
 8000ba6:	0c1b      	lsrs	r3, r3, #16
 8000ba8:	f043 63bf 	orr.w	r3, r3, #100139008	; 0x5f80000
  reg_value  =  (reg_value                                   |
                ((uint32_t)0x5FAUL << SCB_AIRCR_VECTKEY_Pos) |
                (PriorityGroupTmp << 8U)                      );              /* Insert write key and priorty group */
 8000bac:	0200      	lsls	r0, r0, #8
 8000bae:	f443 3300 	orr.w	r3, r3, #131072	; 0x20000
 8000bb2:	f400 60e0 	and.w	r0, r0, #1792	; 0x700
  reg_value  =  (reg_value                                   |
 8000bb6:	4303      	orrs	r3, r0
  SCB->AIRCR =  reg_value;
 8000bb8:	60d3      	str	r3, [r2, #12]
 8000bba:	4770      	bx	lr
 8000bbc:	e000ed00 	.word	0xe000ed00

08000bc0 <HAL_NVIC_SetPriority>:
  \details Reads the priority grouping field from the NVIC Interrupt Controller.
  \return                Priority grouping field (SCB->AIRCR [10:8] PRIGROUP field).
 */
__STATIC_INLINE uint32_t NVIC_GetPriorityGrouping(void)
{
  return ((uint32_t)((SCB->AIRCR & SCB_AIRCR_PRIGROUP_Msk) >> SCB_AIRCR_PRIGROUP_Pos));
 8000bc0:	4b17      	ldr	r3, [pc, #92]	; (8000c20 <HAL_NVIC_SetPriority+0x60>)
  *         This parameter can be a value between 0 and 15
  *         A lower priority value indicates a higher priority.
  * @retval None
  */
void HAL_NVIC_SetPriority(IRQn_Type IRQn, uint32_t PreemptPriority, uint32_t SubPriority)
{
 8000bc2:	b530      	push	{r4, r5, lr}
 8000bc4:	68dc      	ldr	r4, [r3, #12]
 8000bc6:	f3c4 2402 	ubfx	r4, r4, #8, #3
{
  uint32_t PriorityGroupTmp = (PriorityGroup & (uint32_t)0x07UL);   /* only values 0..7 are used          */
  uint32_t PreemptPriorityBits;
  uint32_t SubPriorityBits;

  PreemptPriorityBits = ((7UL - PriorityGroupTmp) > (uint32_t)(__NVIC_PRIO_BITS)) ? (uint32_t)(__NVIC_PRIO_BITS) : (uint32_t)(7UL - PriorityGroupTmp);
 8000bca:	f1c4 0307 	rsb	r3, r4, #7
  SubPriorityBits     = ((PriorityGroupTmp + (uint32_t)(__NVIC_PRIO_BITS)) < (uint32_t)7UL) ? (uint32_t)0UL : (uint32_t)((PriorityGroupTmp - 7UL) + (uint32_t)(__NVIC_PRIO_BITS));
 8000bce:	1d25      	adds	r5, r4, #4
  PreemptPriorityBits = ((7UL - PriorityGroupTmp) > (uint32_t)(__NVIC_PRIO_BITS)) ? (uint32_t)(__NVIC_PRIO_BITS) : (uint32_t)(7UL - PriorityGroupTmp);
 8000bd0:	2b04      	cmp	r3, #4
 8000bd2:	bf28      	it	cs
 8000bd4:	2304      	movcs	r3, #4
  SubPriorityBits     = ((PriorityGroupTmp + (uint32_t)(__NVIC_PRIO_BITS)) < (uint32_t)7UL) ? (uint32_t)0UL : (uint32_t)((PriorityGroupTmp - 7UL) + (uint32_t)(__NVIC_PRIO_BITS));
 8000bd6:	2d06      	cmp	r5, #6

  return (
           ((PreemptPriority & (uint32_t)((1UL << (PreemptPriorityBits)) - 1UL)) << SubPriorityBits) |
 8000bd8:	f04f 0501 	mov.w	r5, #1
 8000bdc:	fa05 f303 	lsl.w	r3, r5, r3
 8000be0:	f103 33ff 	add.w	r3, r3, #4294967295
  SubPriorityBits     = ((PriorityGroupTmp + (uint32_t)(__NVIC_PRIO_BITS)) < (uint32_t)7UL) ? (uint32_t)0UL : (uint32_t)((PriorityGroupTmp - 7UL) + (uint32_t)(__NVIC_PRIO_BITS));
 8000be4:	bf8c      	ite	hi
 8000be6:	3c03      	subhi	r4, #3
 8000be8:	2400      	movls	r4, #0
           ((PreemptPriority & (uint32_t)((1UL << (PreemptPriorityBits)) - 1UL)) << SubPriorityBits) |
 8000bea:	4019      	ands	r1, r3
 8000bec:	40a1      	lsls	r1, r4
           ((SubPriority     & (uint32_t)((1UL << (SubPriorityBits    )) - 1UL)))
 8000bee:	fa05 f404 	lsl.w	r4, r5, r4
 8000bf2:	3c01      	subs	r4, #1
 8000bf4:	4022      	ands	r2, r4
  if ((int32_t)(IRQn) < 0)
 8000bf6:	2800      	cmp	r0, #0
           ((PreemptPriority & (uint32_t)((1UL << (PreemptPriorityBits)) - 1UL)) << SubPriorityBits) |
 8000bf8:	ea42 0201 	orr.w	r2, r2, r1
 8000bfc:	ea4f 1202 	mov.w	r2, r2, lsl #4
    NVIC->IP[((uint32_t)(int32_t)IRQn)]               = (uint8_t)((priority << (8U - __NVIC_PRIO_BITS)) & (uint32_t)0xFFUL);
 8000c00:	bfaf      	iteee	ge
 8000c02:	f100 4060 	addge.w	r0, r0, #3758096384	; 0xe0000000
    SCB->SHP[(((uint32_t)(int32_t)IRQn) & 0xFUL)-4UL] = (uint8_t)((priority << (8U - __NVIC_PRIO_BITS)) & (uint32_t)0xFFUL);
 8000c06:	f000 000f 	andlt.w	r0, r0, #15
 8000c0a:	4b06      	ldrlt	r3, [pc, #24]	; (8000c24 <HAL_NVIC_SetPriority+0x64>)
 8000c0c:	b2d2      	uxtblt	r2, r2
    NVIC->IP[((uint32_t)(int32_t)IRQn)]               = (uint8_t)((priority << (8U - __NVIC_PRIO_BITS)) & (uint32_t)0xFFUL);
 8000c0e:	bfa5      	ittet	ge
 8000c10:	f500 4061 	addge.w	r0, r0, #57600	; 0xe100
 8000c14:	b2d2      	uxtbge	r2, r2
    SCB->SHP[(((uint32_t)(int32_t)IRQn) & 0xFUL)-4UL] = (uint8_t)((priority << (8U - __NVIC_PRIO_BITS)) & (uint32_t)0xFFUL);
 8000c16:	541a      	strblt	r2, [r3, r0]
    NVIC->IP[((uint32_t)(int32_t)IRQn)]               = (uint8_t)((priority << (8U - __NVIC_PRIO_BITS)) & (uint32_t)0xFFUL);
 8000c18:	f880 2300 	strbge.w	r2, [r0, #768]	; 0x300
 8000c1c:	bd30      	pop	{r4, r5, pc}
 8000c1e:	bf00      	nop
 8000c20:	e000ed00 	.word	0xe000ed00
 8000c24:	e000ed14 	.word	0xe000ed14

08000c28 <HAL_SYSTICK_Config>:
           function <b>SysTick_Config</b> is not included. In this case, the file <b><i>device</i>.h</b>
           must contain a vendor-specific implementation of this function.
 */
__STATIC_INLINE uint32_t SysTick_Config(uint32_t ticks)
{
  if ((ticks - 1UL) > SysTick_LOAD_RELOAD_Msk)
 8000c28:	3801      	subs	r0, #1
 8000c2a:	f1b0 7f80 	cmp.w	r0, #16777216	; 0x1000000
 8000c2e:	d20a      	bcs.n	8000c46 <HAL_SYSTICK_Config+0x1e>
  {
    return (1UL);                                                   /* Reload value impossible */
  }

  SysTick->LOAD  = (uint32_t)(ticks - 1UL);                         /* set reload register */
 8000c30:	4b06      	ldr	r3, [pc, #24]	; (8000c4c <HAL_SYSTICK_Config+0x24>)
    SCB->SHP[(((uint32_t)(int32_t)IRQn) & 0xFUL)-4UL] = (uint8_t)((priority << (8U - __NVIC_PRIO_BITS)) & (uint32_t)0xFFUL);
 8000c32:	4a07      	ldr	r2, [pc, #28]	; (8000c50 <HAL_SYSTICK_Config+0x28>)
  SysTick->LOAD  = (uint32_t)(ticks - 1UL);                         /* set reload register */
 8000c34:	6058      	str	r0, [r3, #4]
    SCB->SHP[(((uint32_t)(int32_t)IRQn) & 0xFUL)-4UL] = (uint8_t)((priority << (8U - __NVIC_PRIO_BITS)) & (uint32_t)0xFFUL);
 8000c36:	21f0      	movs	r1, #240	; 0xf0
 8000c38:	f882 1023 	strb.w	r1, [r2, #35]	; 0x23
  NVIC_SetPriority (SysTick_IRQn, (1UL << __NVIC_PRIO_BITS) - 1UL); /* set Priority for Systick Interrupt */
  SysTick->VAL   = 0UL;                                             /* Load the SysTick Counter Value */
 8000c3c:	2000      	movs	r0, #0
  SysTick->CTRL  = SysTick_CTRL_CLKSOURCE_Msk |
 8000c3e:	2207      	movs	r2, #7
  SysTick->VAL   = 0UL;                                             /* Load the SysTick Counter Value */
 8000c40:	6098      	str	r0, [r3, #8]
  SysTick->CTRL  = SysTick_CTRL_CLKSOURCE_Msk |
 8000c42:	601a      	str	r2, [r3, #0]
 8000c44:	4770      	bx	lr
    return (1UL);                                                   /* Reload value impossible */
 8000c46:	2001      	movs	r0, #1
  *                  - 1  Function failed.
  */
uint32_t HAL_SYSTICK_Config(uint32_t TicksNumb)
{
   return SysTick_Config(TicksNumb);
}
 8000c48:	4770      	bx	lr
 8000c4a:	bf00      	nop
 8000c4c:	e000e010 	.word	0xe000e010
 8000c50:	e000ed00 	.word	0xe000ed00

08000c54 <HAL_GPIO_Init>:
  * @param  GPIO_Init: pointer to a GPIO_InitTypeDef structure that contains
  *         the configuration information for the specified GPIO peripheral.
  * @retval None
  */
void HAL_GPIO_Init(GPIO_TypeDef  *GPIOx, GPIO_InitTypeDef *GPIO_Init)
{
 8000c54:	e92d 4ff0 	stmdb	sp!, {r4, r5, r6, r7, r8, r9, sl, fp, lr}
 8000c58:	b085      	sub	sp, #20
  assert_param(IS_GPIO_PIN(GPIO_Init->Pin));
  assert_param(IS_GPIO_MODE(GPIO_Init->Mode));
  assert_param(IS_GPIO_PULL(GPIO_Init->Pull));

  /* Configure the port pins */
  while (((GPIO_Init->Pin) >> position) != 0x00u)
 8000c5a:	680b      	ldr	r3, [r1, #0]
      /*--------------------- EXTI Mode Configuration ------------------------*/
      /* Configure the External Interrupt or event for the current IO */
      if((GPIO_Init->Mode & EXTI_MODE) == EXTI_MODE)
      {
        /* Enable SYSCFG Clock */
        __HAL_RCC_SYSCFG_CLK_ENABLE();
 8000c5c:	f8df 8158 	ldr.w	r8, [pc, #344]	; 8000db8 <HAL_GPIO_Init+0x164>
        temp &= ~(0x0FuL << (4u * (position & 0x03u)));
        temp |= (GPIO_GET_INDEX(GPIOx) << (4u * (position & 0x03u)));
        SYSCFG->EXTICR[position >> 2u] = temp;

        /* Clear EXTI line configuration */
        temp = EXTI->IMR1;
 8000c60:	4a53      	ldr	r2, [pc, #332]	; (8000db0 <HAL_GPIO_Init+0x15c>)
  while (((GPIO_Init->Pin) >> position) != 0x00u)
 8000c62:	9301      	str	r3, [sp, #4]
        temp &= ~(0x0FuL << (4u * (position & 0x03u)));
 8000c64:	f04f 090f 	mov.w	r9, #15
  uint32_t position = 0x00u;
 8000c68:	2300      	movs	r3, #0
  while (((GPIO_Init->Pin) >> position) != 0x00u)
 8000c6a:	9c01      	ldr	r4, [sp, #4]
 8000c6c:	40dc      	lsrs	r4, r3
 8000c6e:	d102      	bne.n	8000c76 <HAL_GPIO_Init+0x22>
      }
    }

    position++;
  }
}
 8000c70:	b005      	add	sp, #20
 8000c72:	e8bd 8ff0 	ldmia.w	sp!, {r4, r5, r6, r7, r8, r9, sl, fp, pc}
    iocurrent = (GPIO_Init->Pin) & (1uL << position);
 8000c76:	2401      	movs	r4, #1
 8000c78:	fa04 fa03 	lsl.w	sl, r4, r3
    if (iocurrent != 0x00u)
 8000c7c:	9c01      	ldr	r4, [sp, #4]
 8000c7e:	ea14 050a 	ands.w	r5, r4, sl
 8000c82:	f000 808f 	beq.w	8000da4 <HAL_GPIO_Init+0x150>
      if((GPIO_Init->Mode == GPIO_MODE_AF_PP) || (GPIO_Init->Mode == GPIO_MODE_AF_OD))
 8000c86:	684c      	ldr	r4, [r1, #4]
 8000c88:	f024 0b10 	bic.w	fp, r4, #16
 8000c8c:	f1bb 0f02 	cmp.w	fp, #2
 8000c90:	d111      	bne.n	8000cb6 <HAL_GPIO_Init+0x62>
        temp = GPIOx->AFR[position >> 3u];
 8000c92:	08df      	lsrs	r7, r3, #3
 8000c94:	eb00 0787 	add.w	r7, r0, r7, lsl #2
        temp &= ~(0xFu << ((position & 0x07u) * 4u));
 8000c98:	f003 0e07 	and.w	lr, r3, #7
        temp = GPIOx->AFR[position >> 3u];
 8000c9c:	6a3e      	ldr	r6, [r7, #32]
        temp &= ~(0xFu << ((position & 0x07u) * 4u));
 8000c9e:	ea4f 0e8e 	mov.w	lr, lr, lsl #2
 8000ca2:	fa09 fc0e 	lsl.w	ip, r9, lr
 8000ca6:	ea26 0c0c 	bic.w	ip, r6, ip
        temp |= ((GPIO_Init->Alternate) << ((position & 0x07u) * 4u));
 8000caa:	690e      	ldr	r6, [r1, #16]
 8000cac:	fa06 f60e 	lsl.w	r6, r6, lr
 8000cb0:	ea46 060c 	orr.w	r6, r6, ip
        GPIOx->AFR[position >> 3u] = temp;
 8000cb4:	623e      	str	r6, [r7, #32]
 8000cb6:	ea4f 0c43 	mov.w	ip, r3, lsl #1
      temp &= ~(GPIO_MODER_MODE0 << (position * 2u));
 8000cba:	2703      	movs	r7, #3
      temp = GPIOx->MODER;
 8000cbc:	6806      	ldr	r6, [r0, #0]
      temp &= ~(GPIO_MODER_MODE0 << (position * 2u));
 8000cbe:	fa07 f70c 	lsl.w	r7, r7, ip
 8000cc2:	43ff      	mvns	r7, r7
      temp |= ((GPIO_Init->Mode & GPIO_MODE) << (position * 2u));
 8000cc4:	f004 0e03 	and.w	lr, r4, #3
      temp &= ~(GPIO_MODER_MODE0 << (position * 2u));
 8000cc8:	403e      	ands	r6, r7
      temp |= ((GPIO_Init->Mode & GPIO_MODE) << (position * 2u));
 8000cca:	fa0e fe0c 	lsl.w	lr, lr, ip
      if((GPIO_Init->Mode == GPIO_MODE_OUTPUT_PP) || (GPIO_Init->Mode == GPIO_MODE_AF_PP) ||
 8000cce:	f10b 3bff 	add.w	fp, fp, #4294967295
      temp |= ((GPIO_Init->Mode & GPIO_MODE) << (position * 2u));
 8000cd2:	ea4e 0606 	orr.w	r6, lr, r6
      if((GPIO_Init->Mode == GPIO_MODE_OUTPUT_PP) || (GPIO_Init->Mode == GPIO_MODE_AF_PP) ||
 8000cd6:	f1bb 0f01 	cmp.w	fp, #1
      GPIOx->MODER = temp;
 8000cda:	6006      	str	r6, [r0, #0]
      if((GPIO_Init->Mode == GPIO_MODE_OUTPUT_PP) || (GPIO_Init->Mode == GPIO_MODE_AF_PP) ||
 8000cdc:	d811      	bhi.n	8000d02 <HAL_GPIO_Init+0xae>
        temp = GPIOx->OSPEEDR;
 8000cde:	6886      	ldr	r6, [r0, #8]
        temp &= ~(GPIO_OSPEEDR_OSPEED0 << (position * 2u));
 8000ce0:	ea06 0b07 	and.w	fp, r6, r7
        temp |= (GPIO_Init->Speed << (position * 2u));
 8000ce4:	68ce      	ldr	r6, [r1, #12]
 8000ce6:	fa06 fe0c 	lsl.w	lr, r6, ip
 8000cea:	ea4e 060b 	orr.w	r6, lr, fp
        GPIOx->OSPEEDR = temp;
 8000cee:	6086      	str	r6, [r0, #8]
        temp = GPIOx->OTYPER;
 8000cf0:	6846      	ldr	r6, [r0, #4]
        temp &= ~(GPIO_OTYPER_OT0 << position) ;
 8000cf2:	ea26 0a0a 	bic.w	sl, r6, sl
        temp |= (((GPIO_Init->Mode & GPIO_OUTPUT_TYPE) >> 4u) << position);
 8000cf6:	f3c4 1600 	ubfx	r6, r4, #4, #1
 8000cfa:	409e      	lsls	r6, r3
 8000cfc:	ea46 060a 	orr.w	r6, r6, sl
        GPIOx->OTYPER = temp;
 8000d00:	6046      	str	r6, [r0, #4]
      temp = GPIOx->PUPDR;
 8000d02:	68c6      	ldr	r6, [r0, #12]
      temp &= ~(GPIO_PUPDR_PUPD0 << (position * 2u));
 8000d04:	4037      	ands	r7, r6
      temp |= ((GPIO_Init->Pull) << (position * 2u));
 8000d06:	688e      	ldr	r6, [r1, #8]
 8000d08:	fa06 f60c 	lsl.w	r6, r6, ip
 8000d0c:	4337      	orrs	r7, r6
      if((GPIO_Init->Mode & EXTI_MODE) == EXTI_MODE)
 8000d0e:	00e6      	lsls	r6, r4, #3
      GPIOx->PUPDR = temp;
 8000d10:	60c7      	str	r7, [r0, #12]
      if((GPIO_Init->Mode & EXTI_MODE) == EXTI_MODE)
 8000d12:	d547      	bpl.n	8000da4 <HAL_GPIO_Init+0x150>
        __HAL_RCC_SYSCFG_CLK_ENABLE();
 8000d14:	f8d8 6060 	ldr.w	r6, [r8, #96]	; 0x60
 8000d18:	f046 0601 	orr.w	r6, r6, #1
 8000d1c:	f8c8 6060 	str.w	r6, [r8, #96]	; 0x60
 8000d20:	f8d8 6060 	ldr.w	r6, [r8, #96]	; 0x60
 8000d24:	f023 0703 	bic.w	r7, r3, #3
 8000d28:	f107 4780 	add.w	r7, r7, #1073741824	; 0x40000000
 8000d2c:	f006 0601 	and.w	r6, r6, #1
 8000d30:	f507 3780 	add.w	r7, r7, #65536	; 0x10000
 8000d34:	9603      	str	r6, [sp, #12]
        temp &= ~(0x0FuL << (4u * (position & 0x03u)));
 8000d36:	f003 0e03 	and.w	lr, r3, #3
        __HAL_RCC_SYSCFG_CLK_ENABLE();
 8000d3a:	9e03      	ldr	r6, [sp, #12]
        temp = SYSCFG->EXTICR[position >> 2u];
 8000d3c:	68be      	ldr	r6, [r7, #8]
        temp &= ~(0x0FuL << (4u * (position & 0x03u)));
 8000d3e:	ea4f 0e8e 	mov.w	lr, lr, lsl #2
 8000d42:	fa09 fc0e 	lsl.w	ip, r9, lr
        temp |= (GPIO_GET_INDEX(GPIOx) << (4u * (position & 0x03u)));
 8000d46:	f1b0 4f90 	cmp.w	r0, #1207959552	; 0x48000000
        temp &= ~(0x0FuL << (4u * (position & 0x03u)));
 8000d4a:	ea26 0c0c 	bic.w	ip, r6, ip
        temp |= (GPIO_GET_INDEX(GPIOx) << (4u * (position & 0x03u)));
 8000d4e:	d02b      	beq.n	8000da8 <HAL_GPIO_Init+0x154>
 8000d50:	4e18      	ldr	r6, [pc, #96]	; (8000db4 <HAL_GPIO_Init+0x160>)
 8000d52:	42b0      	cmp	r0, r6
 8000d54:	d02a      	beq.n	8000dac <HAL_GPIO_Init+0x158>
 8000d56:	f506 6680 	add.w	r6, r6, #1024	; 0x400
 8000d5a:	42b0      	cmp	r0, r6
 8000d5c:	bf14      	ite	ne
 8000d5e:	2607      	movne	r6, #7
 8000d60:	2602      	moveq	r6, #2
 8000d62:	fa06 f60e 	lsl.w	r6, r6, lr
 8000d66:	ea46 060c 	orr.w	r6, r6, ip
        SYSCFG->EXTICR[position >> 2u] = temp;
 8000d6a:	60be      	str	r6, [r7, #8]
        temp = EXTI->IMR1;
 8000d6c:	6816      	ldr	r6, [r2, #0]
        temp &= ~(iocurrent);
 8000d6e:	43ef      	mvns	r7, r5
        if((GPIO_Init->Mode & GPIO_MODE_IT) == GPIO_MODE_IT)
 8000d70:	f414 3f80 	tst.w	r4, #65536	; 0x10000
        temp &= ~(iocurrent);
 8000d74:	bf0c      	ite	eq
 8000d76:	403e      	andeq	r6, r7
          temp |= iocurrent;
 8000d78:	432e      	orrne	r6, r5
        EXTI->IMR1 = temp;
 8000d7a:	6016      	str	r6, [r2, #0]
        temp = EXTI->EMR1;
 8000d7c:	6856      	ldr	r6, [r2, #4]
        if((GPIO_Init->Mode & GPIO_MODE_EVT) == GPIO_MODE_EVT)
 8000d7e:	f414 3f00 	tst.w	r4, #131072	; 0x20000
        temp &= ~(iocurrent);
 8000d82:	bf0c      	ite	eq
 8000d84:	403e      	andeq	r6, r7
          temp |= iocurrent;
 8000d86:	432e      	orrne	r6, r5
        EXTI->EMR1 = temp;
 8000d88:	6056      	str	r6, [r2, #4]
        temp = EXTI->RTSR1;
 8000d8a:	6896      	ldr	r6, [r2, #8]
        if((GPIO_Init->Mode & RISING_EDGE) == RISING_EDGE)
 8000d8c:	f414 1f80 	tst.w	r4, #1048576	; 0x100000
        temp &= ~(iocurrent);
 8000d90:	bf0c      	ite	eq
 8000d92:	403e      	andeq	r6, r7
          temp |= iocurrent;
 8000d94:	432e      	orrne	r6, r5
        EXTI->RTSR1 = temp;
 8000d96:	6096      	str	r6, [r2, #8]
        temp = EXTI->FTSR1;
 8000d98:	68d6      	ldr	r6, [r2, #12]
        if((GPIO_Init->Mode & FALLING_EDGE) == FALLING_EDGE)
 8000d9a:	02a4      	lsls	r4, r4, #10
        temp &= ~(iocurrent);
 8000d9c:	bf54      	ite	pl
 8000d9e:	403e      	andpl	r6, r7
          temp |= iocurrent;
 8000da0:	432e      	orrmi	r6, r5
        EXTI->FTSR1 = temp;
 8000da2:	60d6      	str	r6, [r2, #12]
    position++;
 8000da4:	3301      	adds	r3, #1
 8000da6:	e760      	b.n	8000c6a <HAL_GPIO_Init+0x16>
        temp |= (GPIO_GET_INDEX(GPIOx) << (4u * (position & 0x03u)));
 8000da8:	2600      	movs	r6, #0
 8000daa:	e7da      	b.n	8000d62 <HAL_GPIO_Init+0x10e>
 8000dac:	2601      	movs	r6, #1
 8000dae:	e7d8      	b.n	8000d62 <HAL_GPIO_Init+0x10e>
 8000db0:	40010400 	.word	0x40010400
 8000db4:	48000400 	.word	0x48000400
 8000db8:	40021000 	.word	0x40021000

08000dbc <HAL_GPIO_ReadPin>:
  GPIO_PinState bitstatus;

  /* Check the parameters */
  assert_param(IS_GPIO_PIN(GPIO_Pin));

  if ((GPIOx->IDR & GPIO_Pin) != 0x00u)
 8000dbc:	6903      	ldr	r3, [r0, #16]
 8000dbe:	4219      	tst	r1, r3
  else
  {
    bitstatus = GPIO_PIN_RESET;
  }
  return bitstatus;
}
 8000dc0:	bf14      	ite	ne
 8000dc2:	2001      	movne	r0, #1
 8000dc4:	2000      	moveq	r0, #0
 8000dc6:	4770      	bx	lr

08000dc8 <HAL_GPIO_WritePin>:
{
  /* Check the parameters */
  assert_param(IS_GPIO_PIN(GPIO_Pin));
  assert_param(IS_GPIO_PIN_ACTION(PinState));

  if(PinState != GPIO_PIN_RESET)
 8000dc8:	b10a      	cbz	r2, 8000dce <HAL_GPIO_WritePin+0x6>
  {
    GPIOx->BSRR = (uint32_t)GPIO_Pin;
 8000dca:	6181      	str	r1, [r0, #24]
 8000dcc:	4770      	bx	lr
  }
  else
  {
    GPIOx->BRR = (uint32_t)GPIO_Pin;
 8000dce:	6281      	str	r1, [r0, #40]	; 0x28
 8000dd0:	4770      	bx	lr
	...

08000dd4 <HAL_PWR_EnableBkUpAccess>:
  *        back-up domain.
  * @retval None
  */
void HAL_PWR_EnableBkUpAccess(void)
{
  SET_BIT(PWR->CR1, PWR_CR1_DBP);
 8000dd4:	4a02      	ldr	r2, [pc, #8]	; (8000de0 <HAL_PWR_EnableBkUpAccess+0xc>)
 8000dd6:	6813      	ldr	r3, [r2, #0]
 8000dd8:	f443 7380 	orr.w	r3, r3, #256	; 0x100
 8000ddc:	6013      	str	r3, [r2, #0]
 8000dde:	4770      	bx	lr
 8000de0:	40007000 	.word	0x40007000

08000de4 <HAL_PWREx_GetVoltageRange>:
    else
    {
      return PWR_REGULATOR_VOLTAGE_SCALE1_BOOST;
    }
#else
  return  (PWR->CR1 & PWR_CR1_VOS);
 8000de4:	4b02      	ldr	r3, [pc, #8]	; (8000df0 <HAL_PWREx_GetVoltageRange+0xc>)
 8000de6:	6818      	ldr	r0, [r3, #0]
#endif
}
 8000de8:	f400 60c0 	and.w	r0, r0, #1536	; 0x600
 8000dec:	4770      	bx	lr
 8000dee:	bf00      	nop
 8000df0:	40007000 	.word	0x40007000

08000df4 <HAL_PWREx_ControlVoltageScaling>:
  *        cleared before returning the status. If the flag is not cleared within
  *        50 microseconds, HAL_TIMEOUT status is reported.
  * @retval HAL Status
  */
HAL_StatusTypeDef HAL_PWREx_ControlVoltageScaling(uint32_t VoltageScaling)
{
 8000df4:	4b17      	ldr	r3, [pc, #92]	; (8000e54 <HAL_PWREx_ControlVoltageScaling+0x60>)
#else

  /* If Set Range 1 */
  if (VoltageScaling == PWR_REGULATOR_VOLTAGE_SCALE1)
  {
    if (READ_BIT(PWR->CR1, PWR_CR1_VOS) != PWR_REGULATOR_VOLTAGE_SCALE1)
 8000df6:	681a      	ldr	r2, [r3, #0]
  if (VoltageScaling == PWR_REGULATOR_VOLTAGE_SCALE1)
 8000df8:	f5b0 7f00 	cmp.w	r0, #512	; 0x200
    if (READ_BIT(PWR->CR1, PWR_CR1_VOS) != PWR_REGULATOR_VOLTAGE_SCALE1)
 8000dfc:	f402 62c0 	and.w	r2, r2, #1536	; 0x600
  if (VoltageScaling == PWR_REGULATOR_VOLTAGE_SCALE1)
 8000e00:	d11c      	bne.n	8000e3c <HAL_PWREx_ControlVoltageScaling+0x48>
    if (READ_BIT(PWR->CR1, PWR_CR1_VOS) != PWR_REGULATOR_VOLTAGE_SCALE1)
 8000e02:	f5b2 7f00 	cmp.w	r2, #512	; 0x200
 8000e06:	d015      	beq.n	8000e34 <HAL_PWREx_ControlVoltageScaling+0x40>
    {
      /* Set Range 1 */
      MODIFY_REG(PWR->CR1, PWR_CR1_VOS, PWR_REGULATOR_VOLTAGE_SCALE1);
 8000e08:	681a      	ldr	r2, [r3, #0]
 8000e0a:	f422 62c0 	bic.w	r2, r2, #1536	; 0x600
 8000e0e:	f442 7200 	orr.w	r2, r2, #512	; 0x200
 8000e12:	601a      	str	r2, [r3, #0]

      /* Wait until VOSF is cleared */
      wait_loop_index = ((PWR_FLAG_SETTING_DELAY_US * SystemCoreClock) / 1000000U) + 1U;
 8000e14:	4a10      	ldr	r2, [pc, #64]	; (8000e58 <HAL_PWREx_ControlVoltageScaling+0x64>)
 8000e16:	6811      	ldr	r1, [r2, #0]
 8000e18:	2232      	movs	r2, #50	; 0x32
 8000e1a:	434a      	muls	r2, r1
 8000e1c:	490f      	ldr	r1, [pc, #60]	; (8000e5c <HAL_PWREx_ControlVoltageScaling+0x68>)
 8000e1e:	fbb2 f2f1 	udiv	r2, r2, r1
 8000e22:	4619      	mov	r1, r3
 8000e24:	3201      	adds	r2, #1
      while ((HAL_IS_BIT_SET(PWR->SR2, PWR_SR2_VOSF)) && (wait_loop_index != 0U))
 8000e26:	6958      	ldr	r0, [r3, #20]
 8000e28:	0540      	lsls	r0, r0, #21
 8000e2a:	d500      	bpl.n	8000e2e <HAL_PWREx_ControlVoltageScaling+0x3a>
 8000e2c:	b922      	cbnz	r2, 8000e38 <HAL_PWREx_ControlVoltageScaling+0x44>
      {
        wait_loop_index--;
      }
      if (HAL_IS_BIT_SET(PWR->SR2, PWR_SR2_VOSF))
 8000e2e:	694b      	ldr	r3, [r1, #20]
 8000e30:	055b      	lsls	r3, r3, #21
 8000e32:	d40d      	bmi.n	8000e50 <HAL_PWREx_ControlVoltageScaling+0x5c>
      /* No need to wait for VOSF to be cleared for this transition */
    }
  }
#endif

  return HAL_OK;
 8000e34:	2000      	movs	r0, #0
 8000e36:	4770      	bx	lr
        wait_loop_index--;
 8000e38:	3a01      	subs	r2, #1
 8000e3a:	e7f4      	b.n	8000e26 <HAL_PWREx_ControlVoltageScaling+0x32>
    if (READ_BIT(PWR->CR1, PWR_CR1_VOS) != PWR_REGULATOR_VOLTAGE_SCALE2)
 8000e3c:	f5b2 6f80 	cmp.w	r2, #1024	; 0x400
      MODIFY_REG(PWR->CR1, PWR_CR1_VOS, PWR_REGULATOR_VOLTAGE_SCALE2);
 8000e40:	bf1f      	itttt	ne
 8000e42:	681a      	ldrne	r2, [r3, #0]
 8000e44:	f422 62c0 	bicne.w	r2, r2, #1536	; 0x600
 8000e48:	f442 6280 	orrne.w	r2, r2, #1024	; 0x400
 8000e4c:	601a      	strne	r2, [r3, #0]
 8000e4e:	e7f1      	b.n	8000e34 <HAL_PWREx_ControlVoltageScaling+0x40>
        return HAL_TIMEOUT;
 8000e50:	2003      	movs	r0, #3
}
 8000e52:	4770      	bx	lr
 8000e54:	40007000 	.word	0x40007000
 8000e58:	20000000 	.word	0x20000000
 8000e5c:	000f4240 	.word	0x000f4240

08000e60 <RCC_SetFlashLatencyFromMSIRange>:
            voltage range.
  * @param  msirange  MSI range value from RCC_MSIRANGE_0 to RCC_MSIRANGE_11
  * @retval HAL status
  */
static HAL_StatusTypeDef RCC_SetFlashLatencyFromMSIRange(uint32_t msirange)
{
 8000e60:	b537      	push	{r0, r1, r2, r4, r5, lr}
  uint32_t vos;
  uint32_t latency = FLASH_LATENCY_0;  /* default value 0WS */

  if(__HAL_RCC_PWR_IS_CLK_ENABLED())
 8000e62:	4d1e      	ldr	r5, [pc, #120]	; (8000edc <RCC_SetFlashLatencyFromMSIRange+0x7c>)
 8000e64:	6dab      	ldr	r3, [r5, #88]	; 0x58
 8000e66:	00da      	lsls	r2, r3, #3
{
 8000e68:	4604      	mov	r4, r0
  if(__HAL_RCC_PWR_IS_CLK_ENABLED())
 8000e6a:	d518      	bpl.n	8000e9e <RCC_SetFlashLatencyFromMSIRange+0x3e>
  {
    vos = HAL_PWREx_GetVoltageRange();
 8000e6c:	f7ff ffba 	bl	8000de4 <HAL_PWREx_GetVoltageRange>
    __HAL_RCC_PWR_CLK_ENABLE();
    vos = HAL_PWREx_GetVoltageRange();
    __HAL_RCC_PWR_CLK_DISABLE();
  }

  if(vos == PWR_REGULATOR_VOLTAGE_SCALE1)
 8000e70:	f5b0 7f00 	cmp.w	r0, #512	; 0x200
 8000e74:	d123      	bne.n	8000ebe <RCC_SetFlashLatencyFromMSIRange+0x5e>
  {
    if(msirange > RCC_MSIRANGE_8)
 8000e76:	2c80      	cmp	r4, #128	; 0x80
 8000e78:	d929      	bls.n	8000ece <RCC_SetFlashLatencyFromMSIRange+0x6e>
    {
      /* MSI > 16Mhz */
      if(msirange > RCC_MSIRANGE_10)
 8000e7a:	2ca0      	cmp	r4, #160	; 0xa0
        latency = FLASH_LATENCY_2; /* 2WS */
      }
      else
      {
        /* MSI 24Mhz or 32Mhz */
        latency = FLASH_LATENCY_1; /* 1WS */
 8000e7c:	bf8c      	ite	hi
 8000e7e:	2002      	movhi	r0, #2
 8000e80:	2001      	movls	r0, #1
      /* else MSI < 8Mhz default FLASH_LATENCY_0 0WS */
    }
#endif
  }

  __HAL_FLASH_SET_LATENCY(latency);
 8000e82:	4a17      	ldr	r2, [pc, #92]	; (8000ee0 <RCC_SetFlashLatencyFromMSIRange+0x80>)
 8000e84:	6813      	ldr	r3, [r2, #0]
 8000e86:	f023 0307 	bic.w	r3, r3, #7
 8000e8a:	4303      	orrs	r3, r0
 8000e8c:	6013      	str	r3, [r2, #0]

  /* Check that the new number of wait states is taken into account to access the Flash
     memory by reading the FLASH_ACR register */
  if(__HAL_FLASH_GET_LATENCY() != latency)
 8000e8e:	6813      	ldr	r3, [r2, #0]
 8000e90:	f003 0307 	and.w	r3, r3, #7
  {
    return HAL_ERROR;
  }

  return HAL_OK;
}
 8000e94:	1a18      	subs	r0, r3, r0
 8000e96:	bf18      	it	ne
 8000e98:	2001      	movne	r0, #1
 8000e9a:	b003      	add	sp, #12
 8000e9c:	bd30      	pop	{r4, r5, pc}
    __HAL_RCC_PWR_CLK_ENABLE();
 8000e9e:	6dab      	ldr	r3, [r5, #88]	; 0x58
 8000ea0:	f043 5380 	orr.w	r3, r3, #268435456	; 0x10000000
 8000ea4:	65ab      	str	r3, [r5, #88]	; 0x58
 8000ea6:	6dab      	ldr	r3, [r5, #88]	; 0x58
 8000ea8:	f003 5380 	and.w	r3, r3, #268435456	; 0x10000000
 8000eac:	9301      	str	r3, [sp, #4]
 8000eae:	9b01      	ldr	r3, [sp, #4]
    vos = HAL_PWREx_GetVoltageRange();
 8000eb0:	f7ff ff98 	bl	8000de4 <HAL_PWREx_GetVoltageRange>
    __HAL_RCC_PWR_CLK_DISABLE();
 8000eb4:	6dab      	ldr	r3, [r5, #88]	; 0x58
 8000eb6:	f023 5380 	bic.w	r3, r3, #268435456	; 0x10000000
 8000eba:	65ab      	str	r3, [r5, #88]	; 0x58
 8000ebc:	e7d8      	b.n	8000e70 <RCC_SetFlashLatencyFromMSIRange+0x10>
    if(msirange > RCC_MSIRANGE_8)
 8000ebe:	2c80      	cmp	r4, #128	; 0x80
 8000ec0:	d807      	bhi.n	8000ed2 <RCC_SetFlashLatencyFromMSIRange+0x72>
      if(msirange == RCC_MSIRANGE_8)
 8000ec2:	d008      	beq.n	8000ed6 <RCC_SetFlashLatencyFromMSIRange+0x76>
      else if(msirange == RCC_MSIRANGE_7)
 8000ec4:	f1a4 0370 	sub.w	r3, r4, #112	; 0x70
 8000ec8:	4258      	negs	r0, r3
 8000eca:	4158      	adcs	r0, r3
 8000ecc:	e7d9      	b.n	8000e82 <RCC_SetFlashLatencyFromMSIRange+0x22>
  uint32_t latency = FLASH_LATENCY_0;  /* default value 0WS */
 8000ece:	2000      	movs	r0, #0
 8000ed0:	e7d7      	b.n	8000e82 <RCC_SetFlashLatencyFromMSIRange+0x22>
      latency = FLASH_LATENCY_3; /* 3WS */
 8000ed2:	2003      	movs	r0, #3
 8000ed4:	e7d5      	b.n	8000e82 <RCC_SetFlashLatencyFromMSIRange+0x22>
        latency = FLASH_LATENCY_2; /* 2WS */
 8000ed6:	2002      	movs	r0, #2
 8000ed8:	e7d3      	b.n	8000e82 <RCC_SetFlashLatencyFromMSIRange+0x22>
 8000eda:	bf00      	nop
 8000edc:	40021000 	.word	0x40021000
 8000ee0:	40022000 	.word	0x40022000

08000ee4 <HAL_RCC_GetSysClockFreq>:
  sysclk_source = __HAL_RCC_GET_SYSCLK_SOURCE();
 8000ee4:	4b25      	ldr	r3, [pc, #148]	; (8000f7c <HAL_RCC_GetSysClockFreq+0x98>)
 8000ee6:	689a      	ldr	r2, [r3, #8]
  pll_oscsource = __HAL_RCC_GET_PLL_OSCSOURCE();
 8000ee8:	68d9      	ldr	r1, [r3, #12]
  if((sysclk_source == RCC_CFGR_SWS_MSI) ||
 8000eea:	f012 020c 	ands.w	r2, r2, #12
 8000eee:	d005      	beq.n	8000efc <HAL_RCC_GetSysClockFreq+0x18>
 8000ef0:	2a0c      	cmp	r2, #12
 8000ef2:	d115      	bne.n	8000f20 <HAL_RCC_GetSysClockFreq+0x3c>
  pll_oscsource = __HAL_RCC_GET_PLL_OSCSOURCE();
 8000ef4:	f001 0103 	and.w	r1, r1, #3
     ((sysclk_source == RCC_CFGR_SWS_PLL) && (pll_oscsource == RCC_PLLSOURCE_MSI)))
 8000ef8:	2901      	cmp	r1, #1
 8000efa:	d118      	bne.n	8000f2e <HAL_RCC_GetSysClockFreq+0x4a>
    if(READ_BIT(RCC->CR, RCC_CR_MSIRGSEL) == 0U)
 8000efc:	6819      	ldr	r1, [r3, #0]
    msirange = MSIRangeTable[msirange];
 8000efe:	4820      	ldr	r0, [pc, #128]	; (8000f80 <HAL_RCC_GetSysClockFreq+0x9c>)
    if(READ_BIT(RCC->CR, RCC_CR_MSIRGSEL) == 0U)
 8000f00:	0709      	lsls	r1, r1, #28
      msirange = READ_BIT(RCC->CSR, RCC_CSR_MSISRANGE) >> RCC_CSR_MSISRANGE_Pos;
 8000f02:	bf55      	itete	pl
 8000f04:	f8d3 1094 	ldrpl.w	r1, [r3, #148]	; 0x94
      msirange = READ_BIT(RCC->CR, RCC_CR_MSIRANGE) >> RCC_CR_MSIRANGE_Pos;
 8000f08:	6819      	ldrmi	r1, [r3, #0]
      msirange = READ_BIT(RCC->CSR, RCC_CSR_MSISRANGE) >> RCC_CSR_MSISRANGE_Pos;
 8000f0a:	f3c1 2103 	ubfxpl	r1, r1, #8, #4
      msirange = READ_BIT(RCC->CR, RCC_CR_MSIRANGE) >> RCC_CR_MSIRANGE_Pos;
 8000f0e:	f3c1 1103 	ubfxmi	r1, r1, #4, #4
    msirange = MSIRangeTable[msirange];
 8000f12:	f850 0021 	ldr.w	r0, [r0, r1, lsl #2]
    if(sysclk_source == RCC_CFGR_SWS_MSI)
 8000f16:	b382      	cbz	r2, 8000f7a <HAL_RCC_GetSysClockFreq+0x96>
  if(sysclk_source == RCC_CFGR_SWS_PLL)
 8000f18:	2a0c      	cmp	r2, #12
 8000f1a:	d009      	beq.n	8000f30 <HAL_RCC_GetSysClockFreq+0x4c>
 8000f1c:	2000      	movs	r0, #0
  return sysclockfreq;
 8000f1e:	4770      	bx	lr
  else if(sysclk_source == RCC_CFGR_SWS_HSI)
 8000f20:	2a04      	cmp	r2, #4
 8000f22:	d029      	beq.n	8000f78 <HAL_RCC_GetSysClockFreq+0x94>
 8000f24:	2a08      	cmp	r2, #8
 8000f26:	4817      	ldr	r0, [pc, #92]	; (8000f84 <HAL_RCC_GetSysClockFreq+0xa0>)
 8000f28:	bf18      	it	ne
 8000f2a:	2000      	movne	r0, #0
 8000f2c:	4770      	bx	lr
  uint32_t msirange = 0U, sysclockfreq = 0U;
 8000f2e:	2000      	movs	r0, #0
    pllsource = READ_BIT(RCC->PLLCFGR, RCC_PLLCFGR_PLLSRC);
 8000f30:	68d9      	ldr	r1, [r3, #12]
    pllm = (READ_BIT(RCC->PLLCFGR, RCC_PLLCFGR_PLLM) >> RCC_PLLCFGR_PLLM_Pos) + 1U ;
 8000f32:	68da      	ldr	r2, [r3, #12]
    pllsource = READ_BIT(RCC->PLLCFGR, RCC_PLLCFGR_PLLSRC);
 8000f34:	f001 0103 	and.w	r1, r1, #3
    pllm = (READ_BIT(RCC->PLLCFGR, RCC_PLLCFGR_PLLM) >> RCC_PLLCFGR_PLLM_Pos) + 1U ;
 8000f38:	f3c2 1202 	ubfx	r2, r2, #4, #3
    switch (pllsource)
 8000f3c:	2902      	cmp	r1, #2
    pllm = (READ_BIT(RCC->PLLCFGR, RCC_PLLCFGR_PLLM) >> RCC_PLLCFGR_PLLM_Pos) + 1U ;
 8000f3e:	f102 0201 	add.w	r2, r2, #1
    switch (pllsource)
 8000f42:	d005      	beq.n	8000f50 <HAL_RCC_GetSysClockFreq+0x6c>
 8000f44:	2903      	cmp	r1, #3
 8000f46:	d012      	beq.n	8000f6e <HAL_RCC_GetSysClockFreq+0x8a>
      pllvco = (msirange / pllm) * (READ_BIT(RCC->PLLCFGR, RCC_PLLCFGR_PLLN) >> RCC_PLLCFGR_PLLN_Pos);
 8000f48:	68d9      	ldr	r1, [r3, #12]
 8000f4a:	f3c1 2106 	ubfx	r1, r1, #8, #7
 8000f4e:	e003      	b.n	8000f58 <HAL_RCC_GetSysClockFreq+0x74>
      pllvco = (HSI_VALUE / pllm) * (READ_BIT(RCC->PLLCFGR, RCC_PLLCFGR_PLLN) >> RCC_PLLCFGR_PLLN_Pos);
 8000f50:	68d9      	ldr	r1, [r3, #12]
 8000f52:	480d      	ldr	r0, [pc, #52]	; (8000f88 <HAL_RCC_GetSysClockFreq+0xa4>)
 8000f54:	f3c1 2106 	ubfx	r1, r1, #8, #7
    pllr = ((READ_BIT(RCC->PLLCFGR, RCC_PLLCFGR_PLLR) >> RCC_PLLCFGR_PLLR_Pos) + 1U ) * 2U;
 8000f58:	68db      	ldr	r3, [r3, #12]
      pllvco = (msirange / pllm) * (READ_BIT(RCC->PLLCFGR, RCC_PLLCFGR_PLLN) >> RCC_PLLCFGR_PLLN_Pos);
 8000f5a:	fbb0 f0f2 	udiv	r0, r0, r2
    pllr = ((READ_BIT(RCC->PLLCFGR, RCC_PLLCFGR_PLLR) >> RCC_PLLCFGR_PLLR_Pos) + 1U ) * 2U;
 8000f5e:	f3c3 6341 	ubfx	r3, r3, #25, #2
 8000f62:	3301      	adds	r3, #1
      pllvco = (msirange / pllm) * (READ_BIT(RCC->PLLCFGR, RCC_PLLCFGR_PLLN) >> RCC_PLLCFGR_PLLN_Pos);
 8000f64:	4348      	muls	r0, r1
    pllr = ((READ_BIT(RCC->PLLCFGR, RCC_PLLCFGR_PLLR) >> RCC_PLLCFGR_PLLR_Pos) + 1U ) * 2U;
 8000f66:	005b      	lsls	r3, r3, #1
    sysclockfreq = pllvco/pllr;
 8000f68:	fbb0 f0f3 	udiv	r0, r0, r3
 8000f6c:	4770      	bx	lr
      pllvco = (HSE_VALUE / pllm) * (READ_BIT(RCC->PLLCFGR, RCC_PLLCFGR_PLLN) >> RCC_PLLCFGR_PLLN_Pos);
 8000f6e:	68d9      	ldr	r1, [r3, #12]
 8000f70:	4804      	ldr	r0, [pc, #16]	; (8000f84 <HAL_RCC_GetSysClockFreq+0xa0>)
 8000f72:	f3c1 2106 	ubfx	r1, r1, #8, #7
 8000f76:	e7ef      	b.n	8000f58 <HAL_RCC_GetSysClockFreq+0x74>
    sysclockfreq = HSI_VALUE;
 8000f78:	4803      	ldr	r0, [pc, #12]	; (8000f88 <HAL_RCC_GetSysClockFreq+0xa4>)
}
 8000f7a:	4770      	bx	lr
 8000f7c:	40021000 	.word	0x40021000
 8000f80:	08002368 	.word	0x08002368
 8000f84:	007a1200 	.word	0x007a1200
 8000f88:	00f42400 	.word	0x00f42400

08000f8c <HAL_RCC_OscConfig>:
{
 8000f8c:	e92d 43f7 	stmdb	sp!, {r0, r1, r2, r4, r5, r6, r7, r8, r9, lr}
  if(RCC_OscInitStruct == NULL)
 8000f90:	4605      	mov	r5, r0
 8000f92:	b908      	cbnz	r0, 8000f98 <HAL_RCC_OscConfig+0xc>
      return HAL_ERROR;
 8000f94:	2001      	movs	r0, #1
 8000f96:	e046      	b.n	8001026 <HAL_RCC_OscConfig+0x9a>
  sysclk_source = __HAL_RCC_GET_SYSCLK_SOURCE();
 8000f98:	4ca8      	ldr	r4, [pc, #672]	; (800123c <HAL_RCC_OscConfig+0x2b0>)
  if(((RCC_OscInitStruct->OscillatorType) & RCC_OSCILLATORTYPE_MSI) == RCC_OSCILLATORTYPE_MSI)
 8000f9a:	6803      	ldr	r3, [r0, #0]
  sysclk_source = __HAL_RCC_GET_SYSCLK_SOURCE();
 8000f9c:	68a6      	ldr	r6, [r4, #8]
  pll_oscsource = __HAL_RCC_GET_PLL_OSCSOURCE();
 8000f9e:	68e7      	ldr	r7, [r4, #12]
  if(((RCC_OscInitStruct->OscillatorType) & RCC_OSCILLATORTYPE_MSI) == RCC_OSCILLATORTYPE_MSI)
 8000fa0:	06db      	lsls	r3, r3, #27
  sysclk_source = __HAL_RCC_GET_SYSCLK_SOURCE();
 8000fa2:	f006 060c 	and.w	r6, r6, #12
  pll_oscsource = __HAL_RCC_GET_PLL_OSCSOURCE();
 8000fa6:	f007 0703 	and.w	r7, r7, #3
  if(((RCC_OscInitStruct->OscillatorType) & RCC_OSCILLATORTYPE_MSI) == RCC_OSCILLATORTYPE_MSI)
 8000faa:	d572      	bpl.n	8001092 <HAL_RCC_OscConfig+0x106>
    if((sysclk_source == RCC_CFGR_SWS_MSI) ||
 8000fac:	b11e      	cbz	r6, 8000fb6 <HAL_RCC_OscConfig+0x2a>
 8000fae:	2e0c      	cmp	r6, #12
 8000fb0:	d151      	bne.n	8001056 <HAL_RCC_OscConfig+0xca>
       ((sysclk_source == RCC_CFGR_SWS_PLL) && (pll_oscsource == RCC_PLLSOURCE_MSI)))
 8000fb2:	2f01      	cmp	r7, #1
 8000fb4:	d14f      	bne.n	8001056 <HAL_RCC_OscConfig+0xca>
      if((READ_BIT(RCC->CR, RCC_CR_MSIRDY) != 0U) && (RCC_OscInitStruct->MSIState == RCC_MSI_OFF))
 8000fb6:	6823      	ldr	r3, [r4, #0]
 8000fb8:	0798      	lsls	r0, r3, #30
 8000fba:	d502      	bpl.n	8000fc2 <HAL_RCC_OscConfig+0x36>
 8000fbc:	69ab      	ldr	r3, [r5, #24]
 8000fbe:	2b00      	cmp	r3, #0
 8000fc0:	d0e8      	beq.n	8000f94 <HAL_RCC_OscConfig+0x8>
        if(RCC_OscInitStruct->MSIClockRange > __HAL_RCC_GET_MSI_RANGE())
 8000fc2:	6823      	ldr	r3, [r4, #0]
 8000fc4:	6a28      	ldr	r0, [r5, #32]
 8000fc6:	0719      	lsls	r1, r3, #28
 8000fc8:	bf56      	itet	pl
 8000fca:	f8d4 3094 	ldrpl.w	r3, [r4, #148]	; 0x94
 8000fce:	6823      	ldrmi	r3, [r4, #0]
 8000fd0:	091b      	lsrpl	r3, r3, #4
 8000fd2:	f003 03f0 	and.w	r3, r3, #240	; 0xf0
 8000fd6:	4283      	cmp	r3, r0
 8000fd8:	d228      	bcs.n	800102c <HAL_RCC_OscConfig+0xa0>
          if(RCC_SetFlashLatencyFromMSIRange(RCC_OscInitStruct->MSIClockRange) != HAL_OK)
 8000fda:	f7ff ff41 	bl	8000e60 <RCC_SetFlashLatencyFromMSIRange>
 8000fde:	2800      	cmp	r0, #0
 8000fe0:	d1d8      	bne.n	8000f94 <HAL_RCC_OscConfig+0x8>
          __HAL_RCC_MSI_RANGE_CONFIG(RCC_OscInitStruct->MSIClockRange);
 8000fe2:	6823      	ldr	r3, [r4, #0]
 8000fe4:	f043 0308 	orr.w	r3, r3, #8
 8000fe8:	6023      	str	r3, [r4, #0]
 8000fea:	6823      	ldr	r3, [r4, #0]
 8000fec:	6a2a      	ldr	r2, [r5, #32]
 8000fee:	f023 03f0 	bic.w	r3, r3, #240	; 0xf0
 8000ff2:	4313      	orrs	r3, r2
 8000ff4:	6023      	str	r3, [r4, #0]
          __HAL_RCC_MSI_CALIBRATIONVALUE_ADJUST(RCC_OscInitStruct->MSICalibrationValue);
 8000ff6:	6863      	ldr	r3, [r4, #4]
 8000ff8:	69ea      	ldr	r2, [r5, #28]
 8000ffa:	f423 437f 	bic.w	r3, r3, #65280	; 0xff00
 8000ffe:	ea43 2302 	orr.w	r3, r3, r2, lsl #8
 8001002:	6063      	str	r3, [r4, #4]
        SystemCoreClock = HAL_RCC_GetSysClockFreq() >> (AHBPrescTable[READ_BIT(RCC->CFGR, RCC_CFGR_HPRE) >> RCC_CFGR_HPRE_Pos] & 0x1FU);
 8001004:	f7ff ff6e 	bl	8000ee4 <HAL_RCC_GetSysClockFreq>
 8001008:	68a3      	ldr	r3, [r4, #8]
 800100a:	4a8d      	ldr	r2, [pc, #564]	; (8001240 <HAL_RCC_OscConfig+0x2b4>)
 800100c:	f3c3 1303 	ubfx	r3, r3, #4, #4
 8001010:	5cd3      	ldrb	r3, [r2, r3]
 8001012:	f003 031f 	and.w	r3, r3, #31
 8001016:	40d8      	lsrs	r0, r3
 8001018:	4b8a      	ldr	r3, [pc, #552]	; (8001244 <HAL_RCC_OscConfig+0x2b8>)
 800101a:	6018      	str	r0, [r3, #0]
        status = HAL_InitTick (TICK_INT_PRIORITY);
 800101c:	2000      	movs	r0, #0
 800101e:	f7ff fd79 	bl	8000b14 <HAL_InitTick>
        if(status != HAL_OK)
 8001022:	2800      	cmp	r0, #0
 8001024:	d035      	beq.n	8001092 <HAL_RCC_OscConfig+0x106>
}
 8001026:	b003      	add	sp, #12
 8001028:	e8bd 83f0 	ldmia.w	sp!, {r4, r5, r6, r7, r8, r9, pc}
          __HAL_RCC_MSI_RANGE_CONFIG(RCC_OscInitStruct->MSIClockRange);
 800102c:	6823      	ldr	r3, [r4, #0]
 800102e:	f043 0308 	orr.w	r3, r3, #8
 8001032:	6023      	str	r3, [r4, #0]
 8001034:	6823      	ldr	r3, [r4, #0]
 8001036:	f023 03f0 	bic.w	r3, r3, #240	; 0xf0
 800103a:	4303      	orrs	r3, r0
 800103c:	6023      	str	r3, [r4, #0]
          __HAL_RCC_MSI_CALIBRATIONVALUE_ADJUST(RCC_OscInitStruct->MSICalibrationValue);
 800103e:	6863      	ldr	r3, [r4, #4]
 8001040:	69ea      	ldr	r2, [r5, #28]
 8001042:	f423 437f 	bic.w	r3, r3, #65280	; 0xff00
 8001046:	ea43 2302 	orr.w	r3, r3, r2, lsl #8
 800104a:	6063      	str	r3, [r4, #4]
          if(RCC_SetFlashLatencyFromMSIRange(RCC_OscInitStruct->MSIClockRange) != HAL_OK)
 800104c:	f7ff ff08 	bl	8000e60 <RCC_SetFlashLatencyFromMSIRange>
 8001050:	2800      	cmp	r0, #0
 8001052:	d0d7      	beq.n	8001004 <HAL_RCC_OscConfig+0x78>
 8001054:	e79e      	b.n	8000f94 <HAL_RCC_OscConfig+0x8>
      if(RCC_OscInitStruct->MSIState != RCC_MSI_OFF)
 8001056:	69ab      	ldr	r3, [r5, #24]
 8001058:	2b00      	cmp	r3, #0
 800105a:	d03a      	beq.n	80010d2 <HAL_RCC_OscConfig+0x146>
        __HAL_RCC_MSI_ENABLE();
 800105c:	6823      	ldr	r3, [r4, #0]
 800105e:	f043 0301 	orr.w	r3, r3, #1
 8001062:	6023      	str	r3, [r4, #0]
        tickstart = HAL_GetTick();
 8001064:	f7ff fd86 	bl	8000b74 <HAL_GetTick>
 8001068:	4680      	mov	r8, r0
        while(READ_BIT(RCC->CR, RCC_CR_MSIRDY) == 0U)
 800106a:	6823      	ldr	r3, [r4, #0]
 800106c:	079a      	lsls	r2, r3, #30
 800106e:	d528      	bpl.n	80010c2 <HAL_RCC_OscConfig+0x136>
        __HAL_RCC_MSI_RANGE_CONFIG(RCC_OscInitStruct->MSIClockRange);
 8001070:	6823      	ldr	r3, [r4, #0]
 8001072:	f043 0308 	orr.w	r3, r3, #8
 8001076:	6023      	str	r3, [r4, #0]
 8001078:	6823      	ldr	r3, [r4, #0]
 800107a:	6a2a      	ldr	r2, [r5, #32]
 800107c:	f023 03f0 	bic.w	r3, r3, #240	; 0xf0
 8001080:	4313      	orrs	r3, r2
 8001082:	6023      	str	r3, [r4, #0]
        __HAL_RCC_MSI_CALIBRATIONVALUE_ADJUST(RCC_OscInitStruct->MSICalibrationValue);
 8001084:	6863      	ldr	r3, [r4, #4]
 8001086:	69ea      	ldr	r2, [r5, #28]
 8001088:	f423 437f 	bic.w	r3, r3, #65280	; 0xff00
 800108c:	ea43 2302 	orr.w	r3, r3, r2, lsl #8
 8001090:	6063      	str	r3, [r4, #4]
  if(((RCC_OscInitStruct->OscillatorType) & RCC_OSCILLATORTYPE_HSE) == RCC_OSCILLATORTYPE_HSE)
 8001092:	682b      	ldr	r3, [r5, #0]
 8001094:	07d8      	lsls	r0, r3, #31
 8001096:	d42d      	bmi.n	80010f4 <HAL_RCC_OscConfig+0x168>
  if(((RCC_OscInitStruct->OscillatorType) & RCC_OSCILLATORTYPE_HSI) == RCC_OSCILLATORTYPE_HSI)
 8001098:	682b      	ldr	r3, [r5, #0]
 800109a:	0799      	lsls	r1, r3, #30
 800109c:	d46b      	bmi.n	8001176 <HAL_RCC_OscConfig+0x1ea>
  if(((RCC_OscInitStruct->OscillatorType) & RCC_OSCILLATORTYPE_LSI) == RCC_OSCILLATORTYPE_LSI)
 800109e:	682b      	ldr	r3, [r5, #0]
 80010a0:	0718      	lsls	r0, r3, #28
 80010a2:	f100 80a0 	bmi.w	80011e6 <HAL_RCC_OscConfig+0x25a>
  if(((RCC_OscInitStruct->OscillatorType) & RCC_OSCILLATORTYPE_LSE) == RCC_OSCILLATORTYPE_LSE)
 80010a6:	682b      	ldr	r3, [r5, #0]
 80010a8:	0759      	lsls	r1, r3, #29
 80010aa:	f100 80cd 	bmi.w	8001248 <HAL_RCC_OscConfig+0x2bc>
  if(((RCC_OscInitStruct->OscillatorType) & RCC_OSCILLATORTYPE_HSI48) == RCC_OSCILLATORTYPE_HSI48)
 80010ae:	682b      	ldr	r3, [r5, #0]
 80010b0:	0699      	lsls	r1, r3, #26
 80010b2:	f100 8136 	bmi.w	8001322 <HAL_RCC_OscConfig+0x396>
  if(RCC_OscInitStruct->PLL.PLLState != RCC_PLL_NONE)
 80010b6:	6aab      	ldr	r3, [r5, #40]	; 0x28
 80010b8:	2b00      	cmp	r3, #0
 80010ba:	f040 815c 	bne.w	8001376 <HAL_RCC_OscConfig+0x3ea>
  return HAL_OK;
 80010be:	2000      	movs	r0, #0
 80010c0:	e7b1      	b.n	8001026 <HAL_RCC_OscConfig+0x9a>
          if((HAL_GetTick() - tickstart) > MSI_TIMEOUT_VALUE)
 80010c2:	f7ff fd57 	bl	8000b74 <HAL_GetTick>
 80010c6:	eba0 0008 	sub.w	r0, r0, r8
 80010ca:	2802      	cmp	r0, #2
 80010cc:	d9cd      	bls.n	800106a <HAL_RCC_OscConfig+0xde>
            return HAL_TIMEOUT;
 80010ce:	2003      	movs	r0, #3
 80010d0:	e7a9      	b.n	8001026 <HAL_RCC_OscConfig+0x9a>
        __HAL_RCC_MSI_DISABLE();
 80010d2:	6823      	ldr	r3, [r4, #0]
 80010d4:	f023 0301 	bic.w	r3, r3, #1
 80010d8:	6023      	str	r3, [r4, #0]
        tickstart = HAL_GetTick();
 80010da:	f7ff fd4b 	bl	8000b74 <HAL_GetTick>
 80010de:	4680      	mov	r8, r0
        while(READ_BIT(RCC->CR, RCC_CR_MSIRDY) != 0U)
 80010e0:	6823      	ldr	r3, [r4, #0]
 80010e2:	079b      	lsls	r3, r3, #30
 80010e4:	d5d5      	bpl.n	8001092 <HAL_RCC_OscConfig+0x106>
          if((HAL_GetTick() - tickstart) > MSI_TIMEOUT_VALUE)
 80010e6:	f7ff fd45 	bl	8000b74 <HAL_GetTick>
 80010ea:	eba0 0008 	sub.w	r0, r0, r8
 80010ee:	2802      	cmp	r0, #2
 80010f0:	d9f6      	bls.n	80010e0 <HAL_RCC_OscConfig+0x154>
 80010f2:	e7ec      	b.n	80010ce <HAL_RCC_OscConfig+0x142>
    if((sysclk_source == RCC_CFGR_SWS_HSE) ||
 80010f4:	2e08      	cmp	r6, #8
 80010f6:	d003      	beq.n	8001100 <HAL_RCC_OscConfig+0x174>
 80010f8:	2e0c      	cmp	r6, #12
 80010fa:	d108      	bne.n	800110e <HAL_RCC_OscConfig+0x182>
       ((sysclk_source == RCC_CFGR_SWS_PLL) && (pll_oscsource == RCC_PLLSOURCE_HSE)))
 80010fc:	2f03      	cmp	r7, #3
 80010fe:	d106      	bne.n	800110e <HAL_RCC_OscConfig+0x182>
      if((READ_BIT(RCC->CR, RCC_CR_HSERDY) != 0U) && (RCC_OscInitStruct->HSEState == RCC_HSE_OFF))
 8001100:	6823      	ldr	r3, [r4, #0]
 8001102:	039a      	lsls	r2, r3, #14
 8001104:	d5c8      	bpl.n	8001098 <HAL_RCC_OscConfig+0x10c>
 8001106:	686b      	ldr	r3, [r5, #4]
 8001108:	2b00      	cmp	r3, #0
 800110a:	d1c5      	bne.n	8001098 <HAL_RCC_OscConfig+0x10c>
 800110c:	e742      	b.n	8000f94 <HAL_RCC_OscConfig+0x8>
      __HAL_RCC_HSE_CONFIG(RCC_OscInitStruct->HSEState);
 800110e:	686b      	ldr	r3, [r5, #4]
 8001110:	f5b3 3f80 	cmp.w	r3, #65536	; 0x10000
 8001114:	d110      	bne.n	8001138 <HAL_RCC_OscConfig+0x1ac>
 8001116:	6823      	ldr	r3, [r4, #0]
 8001118:	f443 3380 	orr.w	r3, r3, #65536	; 0x10000
 800111c:	6023      	str	r3, [r4, #0]
        tickstart = HAL_GetTick();
 800111e:	f7ff fd29 	bl	8000b74 <HAL_GetTick>
 8001122:	4680      	mov	r8, r0
        while(READ_BIT(RCC->CR, RCC_CR_HSERDY) == 0U)
 8001124:	6823      	ldr	r3, [r4, #0]
 8001126:	039b      	lsls	r3, r3, #14
 8001128:	d4b6      	bmi.n	8001098 <HAL_RCC_OscConfig+0x10c>
          if((HAL_GetTick() - tickstart) > HSE_TIMEOUT_VALUE)
 800112a:	f7ff fd23 	bl	8000b74 <HAL_GetTick>
 800112e:	eba0 0008 	sub.w	r0, r0, r8
 8001132:	2864      	cmp	r0, #100	; 0x64
 8001134:	d9f6      	bls.n	8001124 <HAL_RCC_OscConfig+0x198>
 8001136:	e7ca      	b.n	80010ce <HAL_RCC_OscConfig+0x142>
      __HAL_RCC_HSE_CONFIG(RCC_OscInitStruct->HSEState);
 8001138:	f5b3 2fa0 	cmp.w	r3, #327680	; 0x50000
 800113c:	d104      	bne.n	8001148 <HAL_RCC_OscConfig+0x1bc>
 800113e:	6823      	ldr	r3, [r4, #0]
 8001140:	f443 2380 	orr.w	r3, r3, #262144	; 0x40000
 8001144:	6023      	str	r3, [r4, #0]
 8001146:	e7e6      	b.n	8001116 <HAL_RCC_OscConfig+0x18a>
 8001148:	6822      	ldr	r2, [r4, #0]
 800114a:	f422 3280 	bic.w	r2, r2, #65536	; 0x10000
 800114e:	6022      	str	r2, [r4, #0]
 8001150:	6822      	ldr	r2, [r4, #0]
 8001152:	f422 2280 	bic.w	r2, r2, #262144	; 0x40000
 8001156:	6022      	str	r2, [r4, #0]
      if(RCC_OscInitStruct->HSEState != RCC_HSE_OFF)
 8001158:	2b00      	cmp	r3, #0
 800115a:	d1e0      	bne.n	800111e <HAL_RCC_OscConfig+0x192>
        tickstart = HAL_GetTick();
 800115c:	f7ff fd0a 	bl	8000b74 <HAL_GetTick>
 8001160:	4680      	mov	r8, r0
        while(READ_BIT(RCC->CR, RCC_CR_HSERDY) != 0U)
 8001162:	6823      	ldr	r3, [r4, #0]
 8001164:	0398      	lsls	r0, r3, #14
 8001166:	d597      	bpl.n	8001098 <HAL_RCC_OscConfig+0x10c>
          if((HAL_GetTick() - tickstart) > HSE_TIMEOUT_VALUE)
 8001168:	f7ff fd04 	bl	8000b74 <HAL_GetTick>
 800116c:	eba0 0008 	sub.w	r0, r0, r8
 8001170:	2864      	cmp	r0, #100	; 0x64
 8001172:	d9f6      	bls.n	8001162 <HAL_RCC_OscConfig+0x1d6>
 8001174:	e7ab      	b.n	80010ce <HAL_RCC_OscConfig+0x142>
    if((sysclk_source == RCC_CFGR_SWS_HSI) ||
 8001176:	2e04      	cmp	r6, #4
 8001178:	d003      	beq.n	8001182 <HAL_RCC_OscConfig+0x1f6>
 800117a:	2e0c      	cmp	r6, #12
 800117c:	d110      	bne.n	80011a0 <HAL_RCC_OscConfig+0x214>
       ((sysclk_source == RCC_CFGR_SWS_PLL) && (pll_oscsource == RCC_PLLSOURCE_HSI)))
 800117e:	2f02      	cmp	r7, #2
 8001180:	d10e      	bne.n	80011a0 <HAL_RCC_OscConfig+0x214>
      if((READ_BIT(RCC->CR, RCC_CR_HSIRDY) != 0U) && (RCC_OscInitStruct->HSIState == RCC_HSI_OFF))
 8001182:	6823      	ldr	r3, [r4, #0]
 8001184:	0559      	lsls	r1, r3, #21
 8001186:	d503      	bpl.n	8001190 <HAL_RCC_OscConfig+0x204>
 8001188:	68eb      	ldr	r3, [r5, #12]
 800118a:	2b00      	cmp	r3, #0
 800118c:	f43f af02 	beq.w	8000f94 <HAL_RCC_OscConfig+0x8>
        __HAL_RCC_HSI_CALIBRATIONVALUE_ADJUST(RCC_OscInitStruct->HSICalibrationValue);
 8001190:	6863      	ldr	r3, [r4, #4]
 8001192:	692a      	ldr	r2, [r5, #16]
 8001194:	f023 53f8 	bic.w	r3, r3, #520093696	; 0x1f000000
 8001198:	ea43 6302 	orr.w	r3, r3, r2, lsl #24
 800119c:	6063      	str	r3, [r4, #4]
 800119e:	e77e      	b.n	800109e <HAL_RCC_OscConfig+0x112>
      if(RCC_OscInitStruct->HSIState != RCC_HSI_OFF)
 80011a0:	68eb      	ldr	r3, [r5, #12]
 80011a2:	b17b      	cbz	r3, 80011c4 <HAL_RCC_OscConfig+0x238>
        __HAL_RCC_HSI_ENABLE();
 80011a4:	6823      	ldr	r3, [r4, #0]
 80011a6:	f443 7380 	orr.w	r3, r3, #256	; 0x100
 80011aa:	6023      	str	r3, [r4, #0]
        tickstart = HAL_GetTick();
 80011ac:	f7ff fce2 	bl	8000b74 <HAL_GetTick>
 80011b0:	4607      	mov	r7, r0
        while(READ_BIT(RCC->CR, RCC_CR_HSIRDY) == 0U)
 80011b2:	6823      	ldr	r3, [r4, #0]
 80011b4:	055a      	lsls	r2, r3, #21
 80011b6:	d4eb      	bmi.n	8001190 <HAL_RCC_OscConfig+0x204>
          if((HAL_GetTick() - tickstart) > HSI_TIMEOUT_VALUE)
 80011b8:	f7ff fcdc 	bl	8000b74 <HAL_GetTick>
 80011bc:	1bc0      	subs	r0, r0, r7
 80011be:	2802      	cmp	r0, #2
 80011c0:	d9f7      	bls.n	80011b2 <HAL_RCC_OscConfig+0x226>
 80011c2:	e784      	b.n	80010ce <HAL_RCC_OscConfig+0x142>
        __HAL_RCC_HSI_DISABLE();
 80011c4:	6823      	ldr	r3, [r4, #0]
 80011c6:	f423 7380 	bic.w	r3, r3, #256	; 0x100
 80011ca:	6023      	str	r3, [r4, #0]
        tickstart = HAL_GetTick();
 80011cc:	f7ff fcd2 	bl	8000b74 <HAL_GetTick>
 80011d0:	4607      	mov	r7, r0
        while(READ_BIT(RCC->CR, RCC_CR_HSIRDY) != 0U)
 80011d2:	6823      	ldr	r3, [r4, #0]
 80011d4:	055b      	lsls	r3, r3, #21
 80011d6:	f57f af62 	bpl.w	800109e <HAL_RCC_OscConfig+0x112>
          if((HAL_GetTick() - tickstart) > HSI_TIMEOUT_VALUE)
 80011da:	f7ff fccb 	bl	8000b74 <HAL_GetTick>
 80011de:	1bc0      	subs	r0, r0, r7
 80011e0:	2802      	cmp	r0, #2
 80011e2:	d9f6      	bls.n	80011d2 <HAL_RCC_OscConfig+0x246>
 80011e4:	e773      	b.n	80010ce <HAL_RCC_OscConfig+0x142>
    if(RCC_OscInitStruct->LSIState != RCC_LSI_OFF)
 80011e6:	696b      	ldr	r3, [r5, #20]
 80011e8:	b19b      	cbz	r3, 8001212 <HAL_RCC_OscConfig+0x286>
      __HAL_RCC_LSI_ENABLE();
 80011ea:	f8d4 3094 	ldr.w	r3, [r4, #148]	; 0x94
 80011ee:	f043 0301 	orr.w	r3, r3, #1
 80011f2:	f8c4 3094 	str.w	r3, [r4, #148]	; 0x94
      tickstart = HAL_GetTick();
 80011f6:	f7ff fcbd 	bl	8000b74 <HAL_GetTick>
 80011fa:	4607      	mov	r7, r0
      while(READ_BIT(RCC->CSR, RCC_CSR_LSIRDY) == 0U)
 80011fc:	f8d4 3094 	ldr.w	r3, [r4, #148]	; 0x94
 8001200:	079a      	lsls	r2, r3, #30
 8001202:	f53f af50 	bmi.w	80010a6 <HAL_RCC_OscConfig+0x11a>
        if((HAL_GetTick() - tickstart) > LSI_TIMEOUT_VALUE)
 8001206:	f7ff fcb5 	bl	8000b74 <HAL_GetTick>
 800120a:	1bc0      	subs	r0, r0, r7
 800120c:	2802      	cmp	r0, #2
 800120e:	d9f5      	bls.n	80011fc <HAL_RCC_OscConfig+0x270>
 8001210:	e75d      	b.n	80010ce <HAL_RCC_OscConfig+0x142>
      __HAL_RCC_LSI_DISABLE();
 8001212:	f8d4 3094 	ldr.w	r3, [r4, #148]	; 0x94
 8001216:	f023 0301 	bic.w	r3, r3, #1
 800121a:	f8c4 3094 	str.w	r3, [r4, #148]	; 0x94
      tickstart = HAL_GetTick();
 800121e:	f7ff fca9 	bl	8000b74 <HAL_GetTick>
 8001222:	4607      	mov	r7, r0
      while(READ_BIT(RCC->CSR, RCC_CSR_LSIRDY) != 0U)
 8001224:	f8d4 3094 	ldr.w	r3, [r4, #148]	; 0x94
 8001228:	079b      	lsls	r3, r3, #30
 800122a:	f57f af3c 	bpl.w	80010a6 <HAL_RCC_OscConfig+0x11a>
        if((HAL_GetTick() - tickstart) > LSI_TIMEOUT_VALUE)
 800122e:	f7ff fca1 	bl	8000b74 <HAL_GetTick>
 8001232:	1bc0      	subs	r0, r0, r7
 8001234:	2802      	cmp	r0, #2
 8001236:	d9f5      	bls.n	8001224 <HAL_RCC_OscConfig+0x298>
 8001238:	e749      	b.n	80010ce <HAL_RCC_OscConfig+0x142>
 800123a:	bf00      	nop
 800123c:	40021000 	.word	0x40021000
 8001240:	0800234e 	.word	0x0800234e
 8001244:	20000000 	.word	0x20000000
    if(HAL_IS_BIT_CLR(RCC->APB1ENR1, RCC_APB1ENR1_PWREN))
 8001248:	6da3      	ldr	r3, [r4, #88]	; 0x58
 800124a:	00d8      	lsls	r0, r3, #3
 800124c:	d429      	bmi.n	80012a2 <HAL_RCC_OscConfig+0x316>
      __HAL_RCC_PWR_CLK_ENABLE();
 800124e:	6da3      	ldr	r3, [r4, #88]	; 0x58
 8001250:	f043 5380 	orr.w	r3, r3, #268435456	; 0x10000000
 8001254:	65a3      	str	r3, [r4, #88]	; 0x58
 8001256:	6da3      	ldr	r3, [r4, #88]	; 0x58
 8001258:	f003 5380 	and.w	r3, r3, #268435456	; 0x10000000
 800125c:	9301      	str	r3, [sp, #4]
 800125e:	9b01      	ldr	r3, [sp, #4]
      pwrclkchanged = SET;
 8001260:	f04f 0801 	mov.w	r8, #1
    if(HAL_IS_BIT_CLR(PWR->CR1, PWR_CR1_DBP))
 8001264:	4f71      	ldr	r7, [pc, #452]	; (800142c <HAL_RCC_OscConfig+0x4a0>)
 8001266:	683b      	ldr	r3, [r7, #0]
 8001268:	05d9      	lsls	r1, r3, #23
 800126a:	d51d      	bpl.n	80012a8 <HAL_RCC_OscConfig+0x31c>
    __HAL_RCC_LSE_CONFIG(RCC_OscInitStruct->LSEState);
 800126c:	68ab      	ldr	r3, [r5, #8]
 800126e:	2b01      	cmp	r3, #1
 8001270:	d12b      	bne.n	80012ca <HAL_RCC_OscConfig+0x33e>
 8001272:	f8d4 3090 	ldr.w	r3, [r4, #144]	; 0x90
 8001276:	f043 0301 	orr.w	r3, r3, #1
 800127a:	f8c4 3090 	str.w	r3, [r4, #144]	; 0x90
      tickstart = HAL_GetTick();
 800127e:	f7ff fc79 	bl	8000b74 <HAL_GetTick>
        if((HAL_GetTick() - tickstart) > RCC_LSE_TIMEOUT_VALUE)
 8001282:	f241 3988 	movw	r9, #5000	; 0x1388
      tickstart = HAL_GetTick();
 8001286:	4607      	mov	r7, r0
      while(READ_BIT(RCC->BDCR, RCC_BDCR_LSERDY) == 0U)
 8001288:	f8d4 3090 	ldr.w	r3, [r4, #144]	; 0x90
 800128c:	079b      	lsls	r3, r3, #30
 800128e:	d542      	bpl.n	8001316 <HAL_RCC_OscConfig+0x38a>
    if(pwrclkchanged == SET)
 8001290:	f1b8 0f00 	cmp.w	r8, #0
 8001294:	f43f af0b 	beq.w	80010ae <HAL_RCC_OscConfig+0x122>
      __HAL_RCC_PWR_CLK_DISABLE();
 8001298:	6da3      	ldr	r3, [r4, #88]	; 0x58
 800129a:	f023 5380 	bic.w	r3, r3, #268435456	; 0x10000000
 800129e:	65a3      	str	r3, [r4, #88]	; 0x58
 80012a0:	e705      	b.n	80010ae <HAL_RCC_OscConfig+0x122>
    FlagStatus       pwrclkchanged = RESET;
 80012a2:	f04f 0800 	mov.w	r8, #0
 80012a6:	e7dd      	b.n	8001264 <HAL_RCC_OscConfig+0x2d8>
      SET_BIT(PWR->CR1, PWR_CR1_DBP);
 80012a8:	683b      	ldr	r3, [r7, #0]
 80012aa:	f443 7380 	orr.w	r3, r3, #256	; 0x100
 80012ae:	603b      	str	r3, [r7, #0]
      tickstart = HAL_GetTick();
 80012b0:	f7ff fc60 	bl	8000b74 <HAL_GetTick>
 80012b4:	4681      	mov	r9, r0
      while(HAL_IS_BIT_CLR(PWR->CR1, PWR_CR1_DBP))
 80012b6:	683b      	ldr	r3, [r7, #0]
 80012b8:	05da      	lsls	r2, r3, #23
 80012ba:	d4d7      	bmi.n	800126c <HAL_RCC_OscConfig+0x2e0>
        if((HAL_GetTick() - tickstart) > RCC_DBP_TIMEOUT_VALUE)
 80012bc:	f7ff fc5a 	bl	8000b74 <HAL_GetTick>
 80012c0:	eba0 0009 	sub.w	r0, r0, r9
 80012c4:	2802      	cmp	r0, #2
 80012c6:	d9f6      	bls.n	80012b6 <HAL_RCC_OscConfig+0x32a>
 80012c8:	e701      	b.n	80010ce <HAL_RCC_OscConfig+0x142>
    __HAL_RCC_LSE_CONFIG(RCC_OscInitStruct->LSEState);
 80012ca:	2b05      	cmp	r3, #5
 80012cc:	d106      	bne.n	80012dc <HAL_RCC_OscConfig+0x350>
 80012ce:	f8d4 3090 	ldr.w	r3, [r4, #144]	; 0x90
 80012d2:	f043 0304 	orr.w	r3, r3, #4
 80012d6:	f8c4 3090 	str.w	r3, [r4, #144]	; 0x90
 80012da:	e7ca      	b.n	8001272 <HAL_RCC_OscConfig+0x2e6>
 80012dc:	f8d4 2090 	ldr.w	r2, [r4, #144]	; 0x90
 80012e0:	f022 0201 	bic.w	r2, r2, #1
 80012e4:	f8c4 2090 	str.w	r2, [r4, #144]	; 0x90
 80012e8:	f8d4 2090 	ldr.w	r2, [r4, #144]	; 0x90
 80012ec:	f022 0204 	bic.w	r2, r2, #4
 80012f0:	f8c4 2090 	str.w	r2, [r4, #144]	; 0x90
    if(RCC_OscInitStruct->LSEState != RCC_LSE_OFF)
 80012f4:	2b00      	cmp	r3, #0
 80012f6:	d1c2      	bne.n	800127e <HAL_RCC_OscConfig+0x2f2>
      tickstart = HAL_GetTick();
 80012f8:	f7ff fc3c 	bl	8000b74 <HAL_GetTick>
        if((HAL_GetTick() - tickstart) > RCC_LSE_TIMEOUT_VALUE)
 80012fc:	f241 3988 	movw	r9, #5000	; 0x1388
      tickstart = HAL_GetTick();
 8001300:	4607      	mov	r7, r0
      while(READ_BIT(RCC->BDCR, RCC_BDCR_LSERDY) != 0U)
 8001302:	f8d4 3090 	ldr.w	r3, [r4, #144]	; 0x90
 8001306:	0798      	lsls	r0, r3, #30
 8001308:	d5c2      	bpl.n	8001290 <HAL_RCC_OscConfig+0x304>
        if((HAL_GetTick() - tickstart) > RCC_LSE_TIMEOUT_VALUE)
 800130a:	f7ff fc33 	bl	8000b74 <HAL_GetTick>
 800130e:	1bc0      	subs	r0, r0, r7
 8001310:	4548      	cmp	r0, r9
 8001312:	d9f6      	bls.n	8001302 <HAL_RCC_OscConfig+0x376>
 8001314:	e6db      	b.n	80010ce <HAL_RCC_OscConfig+0x142>
        if((HAL_GetTick() - tickstart) > RCC_LSE_TIMEOUT_VALUE)
 8001316:	f7ff fc2d 	bl	8000b74 <HAL_GetTick>
 800131a:	1bc0      	subs	r0, r0, r7
 800131c:	4548      	cmp	r0, r9
 800131e:	d9b3      	bls.n	8001288 <HAL_RCC_OscConfig+0x2fc>
 8001320:	e6d5      	b.n	80010ce <HAL_RCC_OscConfig+0x142>
    if(RCC_OscInitStruct->HSI48State != RCC_HSI48_OFF)
 8001322:	6a6b      	ldr	r3, [r5, #36]	; 0x24
 8001324:	b19b      	cbz	r3, 800134e <HAL_RCC_OscConfig+0x3c2>
      __HAL_RCC_HSI48_ENABLE();
 8001326:	f8d4 3098 	ldr.w	r3, [r4, #152]	; 0x98
 800132a:	f043 0301 	orr.w	r3, r3, #1
 800132e:	f8c4 3098 	str.w	r3, [r4, #152]	; 0x98
      tickstart = HAL_GetTick();
 8001332:	f7ff fc1f 	bl	8000b74 <HAL_GetTick>
 8001336:	4607      	mov	r7, r0
      while(READ_BIT(RCC->CRRCR, RCC_CRRCR_HSI48RDY) == 0U)
 8001338:	f8d4 3098 	ldr.w	r3, [r4, #152]	; 0x98
 800133c:	079a      	lsls	r2, r3, #30
 800133e:	f53f aeba 	bmi.w	80010b6 <HAL_RCC_OscConfig+0x12a>
        if((HAL_GetTick() - tickstart) > HSI48_TIMEOUT_VALUE)
 8001342:	f7ff fc17 	bl	8000b74 <HAL_GetTick>
 8001346:	1bc0      	subs	r0, r0, r7
 8001348:	2802      	cmp	r0, #2
 800134a:	d9f5      	bls.n	8001338 <HAL_RCC_OscConfig+0x3ac>
 800134c:	e6bf      	b.n	80010ce <HAL_RCC_OscConfig+0x142>
      __HAL_RCC_HSI48_DISABLE();
 800134e:	f8d4 3098 	ldr.w	r3, [r4, #152]	; 0x98
 8001352:	f023 0301 	bic.w	r3, r3, #1
 8001356:	f8c4 3098 	str.w	r3, [r4, #152]	; 0x98
      tickstart = HAL_GetTick();
 800135a:	f7ff fc0b 	bl	8000b74 <HAL_GetTick>
 800135e:	4607      	mov	r7, r0
      while(READ_BIT(RCC->CRRCR, RCC_CRRCR_HSI48RDY) != 0U)
 8001360:	f8d4 3098 	ldr.w	r3, [r4, #152]	; 0x98
 8001364:	079b      	lsls	r3, r3, #30
 8001366:	f57f aea6 	bpl.w	80010b6 <HAL_RCC_OscConfig+0x12a>
        if((HAL_GetTick() - tickstart) > HSI48_TIMEOUT_VALUE)
 800136a:	f7ff fc03 	bl	8000b74 <HAL_GetTick>
 800136e:	1bc0      	subs	r0, r0, r7
 8001370:	2802      	cmp	r0, #2
 8001372:	d9f5      	bls.n	8001360 <HAL_RCC_OscConfig+0x3d4>
 8001374:	e6ab      	b.n	80010ce <HAL_RCC_OscConfig+0x142>
    if(sysclk_source != RCC_CFGR_SWS_PLL)
 8001376:	2e0c      	cmp	r6, #12
 8001378:	f43f ae0c 	beq.w	8000f94 <HAL_RCC_OscConfig+0x8>
      if(RCC_OscInitStruct->PLL.PLLState == RCC_PLL_ON)
 800137c:	2b02      	cmp	r3, #2
        __HAL_RCC_PLL_DISABLE();
 800137e:	6823      	ldr	r3, [r4, #0]
 8001380:	f023 7380 	bic.w	r3, r3, #16777216	; 0x1000000
 8001384:	6023      	str	r3, [r4, #0]
      if(RCC_OscInitStruct->PLL.PLLState == RCC_PLL_ON)
 8001386:	d136      	bne.n	80013f6 <HAL_RCC_OscConfig+0x46a>
        tickstart = HAL_GetTick();
 8001388:	f7ff fbf4 	bl	8000b74 <HAL_GetTick>
 800138c:	4606      	mov	r6, r0
        while(READ_BIT(RCC->CR, RCC_CR_PLLRDY) != 0U)
 800138e:	6823      	ldr	r3, [r4, #0]
 8001390:	0198      	lsls	r0, r3, #6
 8001392:	d42a      	bmi.n	80013ea <HAL_RCC_OscConfig+0x45e>
        __HAL_RCC_PLL_CONFIG(RCC_OscInitStruct->PLL.PLLSource,
 8001394:	6bab      	ldr	r3, [r5, #56]	; 0x38
 8001396:	6b6a      	ldr	r2, [r5, #52]	; 0x34
 8001398:	06db      	lsls	r3, r3, #27
 800139a:	ea43 2302 	orr.w	r3, r3, r2, lsl #8
 800139e:	6aea      	ldr	r2, [r5, #44]	; 0x2c
 80013a0:	4313      	orrs	r3, r2
 80013a2:	6b2a      	ldr	r2, [r5, #48]	; 0x30
 80013a4:	3a01      	subs	r2, #1
 80013a6:	ea43 1302 	orr.w	r3, r3, r2, lsl #4
 80013aa:	6bea      	ldr	r2, [r5, #60]	; 0x3c
 80013ac:	0852      	lsrs	r2, r2, #1
 80013ae:	3a01      	subs	r2, #1
 80013b0:	ea43 5342 	orr.w	r3, r3, r2, lsl #21
 80013b4:	6c2a      	ldr	r2, [r5, #64]	; 0x40
 80013b6:	0852      	lsrs	r2, r2, #1
 80013b8:	3a01      	subs	r2, #1
 80013ba:	ea43 6342 	orr.w	r3, r3, r2, lsl #25
 80013be:	60e3      	str	r3, [r4, #12]
        __HAL_RCC_PLL_ENABLE();
 80013c0:	6823      	ldr	r3, [r4, #0]
 80013c2:	f043 7380 	orr.w	r3, r3, #16777216	; 0x1000000
 80013c6:	6023      	str	r3, [r4, #0]
         __HAL_RCC_PLLCLKOUT_ENABLE(RCC_PLL_SYSCLK);
 80013c8:	68e3      	ldr	r3, [r4, #12]
 80013ca:	f043 7380 	orr.w	r3, r3, #16777216	; 0x1000000
 80013ce:	60e3      	str	r3, [r4, #12]
        tickstart = HAL_GetTick();
 80013d0:	f7ff fbd0 	bl	8000b74 <HAL_GetTick>
 80013d4:	4605      	mov	r5, r0
        while(READ_BIT(RCC->CR, RCC_CR_PLLRDY) == 0U)
 80013d6:	6823      	ldr	r3, [r4, #0]
 80013d8:	0199      	lsls	r1, r3, #6
 80013da:	f53f ae70 	bmi.w	80010be <HAL_RCC_OscConfig+0x132>
          if((HAL_GetTick() - tickstart) > PLL_TIMEOUT_VALUE)
 80013de:	f7ff fbc9 	bl	8000b74 <HAL_GetTick>
 80013e2:	1b40      	subs	r0, r0, r5
 80013e4:	2802      	cmp	r0, #2
 80013e6:	d9f6      	bls.n	80013d6 <HAL_RCC_OscConfig+0x44a>
 80013e8:	e671      	b.n	80010ce <HAL_RCC_OscConfig+0x142>
          if((HAL_GetTick() - tickstart) > PLL_TIMEOUT_VALUE)
 80013ea:	f7ff fbc3 	bl	8000b74 <HAL_GetTick>
 80013ee:	1b80      	subs	r0, r0, r6
 80013f0:	2802      	cmp	r0, #2
 80013f2:	d9cc      	bls.n	800138e <HAL_RCC_OscConfig+0x402>
 80013f4:	e66b      	b.n	80010ce <HAL_RCC_OscConfig+0x142>
        if(READ_BIT(RCC->CR, RCC_CR_PLLSAI1RDY) == 0U)
 80013f6:	6823      	ldr	r3, [r4, #0]
 80013f8:	011a      	lsls	r2, r3, #4
          MODIFY_REG(RCC->PLLCFGR, RCC_PLLCFGR_PLLSRC, RCC_PLLSOURCE_NONE);
 80013fa:	bf5e      	ittt	pl
 80013fc:	68e3      	ldrpl	r3, [r4, #12]
 80013fe:	f023 0303 	bicpl.w	r3, r3, #3
 8001402:	60e3      	strpl	r3, [r4, #12]
        __HAL_RCC_PLLCLKOUT_DISABLE(RCC_PLL_SYSCLK | RCC_PLL_48M1CLK | RCC_PLL_SAI2CLK);
 8001404:	68e3      	ldr	r3, [r4, #12]
 8001406:	f023 7388 	bic.w	r3, r3, #17825792	; 0x1100000
 800140a:	f423 3380 	bic.w	r3, r3, #65536	; 0x10000
 800140e:	60e3      	str	r3, [r4, #12]
        tickstart = HAL_GetTick();
 8001410:	f7ff fbb0 	bl	8000b74 <HAL_GetTick>
 8001414:	4605      	mov	r5, r0
        while(READ_BIT(RCC->CR, RCC_CR_PLLRDY) != 0U)
 8001416:	6823      	ldr	r3, [r4, #0]
 8001418:	019b      	lsls	r3, r3, #6
 800141a:	f57f ae50 	bpl.w	80010be <HAL_RCC_OscConfig+0x132>
          if((HAL_GetTick() - tickstart) > PLL_TIMEOUT_VALUE)
 800141e:	f7ff fba9 	bl	8000b74 <HAL_GetTick>
 8001422:	1b40      	subs	r0, r0, r5
 8001424:	2802      	cmp	r0, #2
 8001426:	d9f6      	bls.n	8001416 <HAL_RCC_OscConfig+0x48a>
 8001428:	e651      	b.n	80010ce <HAL_RCC_OscConfig+0x142>
 800142a:	bf00      	nop
 800142c:	40007000 	.word	0x40007000

08001430 <HAL_RCC_ClockConfig>:
{
 8001430:	e92d 41f0 	stmdb	sp!, {r4, r5, r6, r7, r8, lr}
 8001434:	460e      	mov	r6, r1
  if(RCC_ClkInitStruct == NULL)
 8001436:	4604      	mov	r4, r0
 8001438:	b910      	cbnz	r0, 8001440 <HAL_RCC_ClockConfig+0x10>
    return HAL_ERROR;
 800143a:	2001      	movs	r0, #1
 800143c:	e8bd 81f0 	ldmia.w	sp!, {r4, r5, r6, r7, r8, pc}
  if(FLatency > __HAL_FLASH_GET_LATENCY())
 8001440:	4a40      	ldr	r2, [pc, #256]	; (8001544 <HAL_RCC_ClockConfig+0x114>)
 8001442:	6813      	ldr	r3, [r2, #0]
 8001444:	f003 0307 	and.w	r3, r3, #7
 8001448:	428b      	cmp	r3, r1
 800144a:	d329      	bcc.n	80014a0 <HAL_RCC_ClockConfig+0x70>
  if(((RCC_ClkInitStruct->ClockType) & RCC_CLOCKTYPE_SYSCLK) == RCC_CLOCKTYPE_SYSCLK)
 800144c:	6823      	ldr	r3, [r4, #0]
 800144e:	07d9      	lsls	r1, r3, #31
 8001450:	d431      	bmi.n	80014b6 <HAL_RCC_ClockConfig+0x86>
  if(((RCC_ClkInitStruct->ClockType) & RCC_CLOCKTYPE_HCLK) == RCC_CLOCKTYPE_HCLK)
 8001452:	6821      	ldr	r1, [r4, #0]
 8001454:	078a      	lsls	r2, r1, #30
 8001456:	d45b      	bmi.n	8001510 <HAL_RCC_ClockConfig+0xe0>
  if(FLatency < __HAL_FLASH_GET_LATENCY())
 8001458:	4a3a      	ldr	r2, [pc, #232]	; (8001544 <HAL_RCC_ClockConfig+0x114>)
 800145a:	6813      	ldr	r3, [r2, #0]
 800145c:	f003 0307 	and.w	r3, r3, #7
 8001460:	429e      	cmp	r6, r3
 8001462:	d35d      	bcc.n	8001520 <HAL_RCC_ClockConfig+0xf0>
  if(((RCC_ClkInitStruct->ClockType) & RCC_CLOCKTYPE_PCLK1) == RCC_CLOCKTYPE_PCLK1)
 8001464:	f011 0f04 	tst.w	r1, #4
 8001468:	4d37      	ldr	r5, [pc, #220]	; (8001548 <HAL_RCC_ClockConfig+0x118>)
 800146a:	d164      	bne.n	8001536 <HAL_RCC_ClockConfig+0x106>
  if(((RCC_ClkInitStruct->ClockType) & RCC_CLOCKTYPE_PCLK2) == RCC_CLOCKTYPE_PCLK2)
 800146c:	070b      	lsls	r3, r1, #28
 800146e:	d506      	bpl.n	800147e <HAL_RCC_ClockConfig+0x4e>
    MODIFY_REG(RCC->CFGR, RCC_CFGR_PPRE2, ((RCC_ClkInitStruct->APB2CLKDivider) << 3U));
 8001470:	68ab      	ldr	r3, [r5, #8]
 8001472:	6922      	ldr	r2, [r4, #16]
 8001474:	f423 5360 	bic.w	r3, r3, #14336	; 0x3800
 8001478:	ea43 03c2 	orr.w	r3, r3, r2, lsl #3
 800147c:	60ab      	str	r3, [r5, #8]
  SystemCoreClock = HAL_RCC_GetSysClockFreq() >> (AHBPrescTable[READ_BIT(RCC->CFGR, RCC_CFGR_HPRE) >> RCC_CFGR_HPRE_Pos] & 0x1FU);
 800147e:	f7ff fd31 	bl	8000ee4 <HAL_RCC_GetSysClockFreq>
 8001482:	68ab      	ldr	r3, [r5, #8]
 8001484:	4a31      	ldr	r2, [pc, #196]	; (800154c <HAL_RCC_ClockConfig+0x11c>)
 8001486:	f3c3 1303 	ubfx	r3, r3, #4, #4
}
 800148a:	e8bd 41f0 	ldmia.w	sp!, {r4, r5, r6, r7, r8, lr}
  SystemCoreClock = HAL_RCC_GetSysClockFreq() >> (AHBPrescTable[READ_BIT(RCC->CFGR, RCC_CFGR_HPRE) >> RCC_CFGR_HPRE_Pos] & 0x1FU);
 800148e:	5cd3      	ldrb	r3, [r2, r3]
 8001490:	f003 031f 	and.w	r3, r3, #31
 8001494:	40d8      	lsrs	r0, r3
 8001496:	4b2e      	ldr	r3, [pc, #184]	; (8001550 <HAL_RCC_ClockConfig+0x120>)
 8001498:	6018      	str	r0, [r3, #0]
  status = HAL_InitTick (TICK_INT_PRIORITY);
 800149a:	2000      	movs	r0, #0
 800149c:	f7ff bb3a 	b.w	8000b14 <HAL_InitTick>
    __HAL_FLASH_SET_LATENCY(FLatency);
 80014a0:	6813      	ldr	r3, [r2, #0]
 80014a2:	f023 0307 	bic.w	r3, r3, #7
 80014a6:	430b      	orrs	r3, r1
 80014a8:	6013      	str	r3, [r2, #0]
    if(__HAL_FLASH_GET_LATENCY() != FLatency)
 80014aa:	6813      	ldr	r3, [r2, #0]
 80014ac:	f003 0307 	and.w	r3, r3, #7
 80014b0:	4299      	cmp	r1, r3
 80014b2:	d1c2      	bne.n	800143a <HAL_RCC_ClockConfig+0xa>
 80014b4:	e7ca      	b.n	800144c <HAL_RCC_ClockConfig+0x1c>
    if(RCC_ClkInitStruct->SYSCLKSource == RCC_SYSCLKSOURCE_PLLCLK)
 80014b6:	6862      	ldr	r2, [r4, #4]
 80014b8:	4d23      	ldr	r5, [pc, #140]	; (8001548 <HAL_RCC_ClockConfig+0x118>)
 80014ba:	2a03      	cmp	r2, #3
      if(READ_BIT(RCC->CR, RCC_CR_PLLRDY) == 0U)
 80014bc:	682b      	ldr	r3, [r5, #0]
    if(RCC_ClkInitStruct->SYSCLKSource == RCC_SYSCLKSOURCE_PLLCLK)
 80014be:	d11b      	bne.n	80014f8 <HAL_RCC_ClockConfig+0xc8>
      if(READ_BIT(RCC->CR, RCC_CR_PLLRDY) == 0U)
 80014c0:	f013 7f00 	tst.w	r3, #33554432	; 0x2000000
        if(READ_BIT(RCC->CR, RCC_CR_HSIRDY) == 0U)
 80014c4:	d0b9      	beq.n	800143a <HAL_RCC_ClockConfig+0xa>
    MODIFY_REG(RCC->CFGR, RCC_CFGR_SW, RCC_ClkInitStruct->SYSCLKSource);
 80014c6:	68ab      	ldr	r3, [r5, #8]
 80014c8:	f023 0303 	bic.w	r3, r3, #3
 80014cc:	4313      	orrs	r3, r2
 80014ce:	60ab      	str	r3, [r5, #8]
    tickstart = HAL_GetTick();
 80014d0:	f7ff fb50 	bl	8000b74 <HAL_GetTick>
      if((HAL_GetTick() - tickstart) > CLOCKSWITCH_TIMEOUT_VALUE)
 80014d4:	f241 3888 	movw	r8, #5000	; 0x1388
    tickstart = HAL_GetTick();
 80014d8:	4607      	mov	r7, r0
    while(__HAL_RCC_GET_SYSCLK_SOURCE() != (RCC_ClkInitStruct->SYSCLKSource << RCC_CFGR_SWS_Pos))
 80014da:	68ab      	ldr	r3, [r5, #8]
 80014dc:	6862      	ldr	r2, [r4, #4]
 80014de:	f003 030c 	and.w	r3, r3, #12
 80014e2:	ebb3 0f82 	cmp.w	r3, r2, lsl #2
 80014e6:	d0b4      	beq.n	8001452 <HAL_RCC_ClockConfig+0x22>
      if((HAL_GetTick() - tickstart) > CLOCKSWITCH_TIMEOUT_VALUE)
 80014e8:	f7ff fb44 	bl	8000b74 <HAL_GetTick>
 80014ec:	1bc0      	subs	r0, r0, r7
 80014ee:	4540      	cmp	r0, r8
 80014f0:	d9f3      	bls.n	80014da <HAL_RCC_ClockConfig+0xaa>
        return HAL_TIMEOUT;
 80014f2:	2003      	movs	r0, #3
}
 80014f4:	e8bd 81f0 	ldmia.w	sp!, {r4, r5, r6, r7, r8, pc}
      if(RCC_ClkInitStruct->SYSCLKSource == RCC_SYSCLKSOURCE_HSE)
 80014f8:	2a02      	cmp	r2, #2
 80014fa:	d102      	bne.n	8001502 <HAL_RCC_ClockConfig+0xd2>
        if(READ_BIT(RCC->CR, RCC_CR_HSERDY) == 0U)
 80014fc:	f413 3f00 	tst.w	r3, #131072	; 0x20000
 8001500:	e7e0      	b.n	80014c4 <HAL_RCC_ClockConfig+0x94>
      else if(RCC_ClkInitStruct->SYSCLKSource == RCC_SYSCLKSOURCE_MSI)
 8001502:	b912      	cbnz	r2, 800150a <HAL_RCC_ClockConfig+0xda>
        if(READ_BIT(RCC->CR, RCC_CR_MSIRDY) == 0U)
 8001504:	f013 0f02 	tst.w	r3, #2
 8001508:	e7dc      	b.n	80014c4 <HAL_RCC_ClockConfig+0x94>
        if(READ_BIT(RCC->CR, RCC_CR_HSIRDY) == 0U)
 800150a:	f413 6f80 	tst.w	r3, #1024	; 0x400
 800150e:	e7d9      	b.n	80014c4 <HAL_RCC_ClockConfig+0x94>
    MODIFY_REG(RCC->CFGR, RCC_CFGR_HPRE, RCC_ClkInitStruct->AHBCLKDivider);
 8001510:	4a0d      	ldr	r2, [pc, #52]	; (8001548 <HAL_RCC_ClockConfig+0x118>)
 8001512:	68a0      	ldr	r0, [r4, #8]
 8001514:	6893      	ldr	r3, [r2, #8]
 8001516:	f023 03f0 	bic.w	r3, r3, #240	; 0xf0
 800151a:	4303      	orrs	r3, r0
 800151c:	6093      	str	r3, [r2, #8]
 800151e:	e79b      	b.n	8001458 <HAL_RCC_ClockConfig+0x28>
    __HAL_FLASH_SET_LATENCY(FLatency);
 8001520:	6813      	ldr	r3, [r2, #0]
 8001522:	f023 0307 	bic.w	r3, r3, #7
 8001526:	4333      	orrs	r3, r6
 8001528:	6013      	str	r3, [r2, #0]
    if(__HAL_FLASH_GET_LATENCY() != FLatency)
 800152a:	6813      	ldr	r3, [r2, #0]
 800152c:	f003 0307 	and.w	r3, r3, #7
 8001530:	429e      	cmp	r6, r3
 8001532:	d182      	bne.n	800143a <HAL_RCC_ClockConfig+0xa>
 8001534:	e796      	b.n	8001464 <HAL_RCC_ClockConfig+0x34>
    MODIFY_REG(RCC->CFGR, RCC_CFGR_PPRE1, RCC_ClkInitStruct->APB1CLKDivider);
 8001536:	68ab      	ldr	r3, [r5, #8]
 8001538:	68e2      	ldr	r2, [r4, #12]
 800153a:	f423 63e0 	bic.w	r3, r3, #1792	; 0x700
 800153e:	4313      	orrs	r3, r2
 8001540:	60ab      	str	r3, [r5, #8]
 8001542:	e793      	b.n	800146c <HAL_RCC_ClockConfig+0x3c>
 8001544:	40022000 	.word	0x40022000
 8001548:	40021000 	.word	0x40021000
 800154c:	0800234e 	.word	0x0800234e
 8001550:	20000000 	.word	0x20000000

08001554 <HAL_RCC_GetPCLK1Freq>:
  return (HAL_RCC_GetHCLKFreq() >> (APBPrescTable[READ_BIT(RCC->CFGR, RCC_CFGR_PPRE1) >> RCC_CFGR_PPRE1_Pos] & 0x1FU));
 8001554:	4b05      	ldr	r3, [pc, #20]	; (800156c <HAL_RCC_GetPCLK1Freq+0x18>)
 8001556:	4a06      	ldr	r2, [pc, #24]	; (8001570 <HAL_RCC_GetPCLK1Freq+0x1c>)
 8001558:	689b      	ldr	r3, [r3, #8]
 800155a:	f3c3 2302 	ubfx	r3, r3, #8, #3
 800155e:	5cd3      	ldrb	r3, [r2, r3]
 8001560:	4a04      	ldr	r2, [pc, #16]	; (8001574 <HAL_RCC_GetPCLK1Freq+0x20>)
 8001562:	6810      	ldr	r0, [r2, #0]
 8001564:	f003 031f 	and.w	r3, r3, #31
}
 8001568:	40d8      	lsrs	r0, r3
 800156a:	4770      	bx	lr
 800156c:	40021000 	.word	0x40021000
 8001570:	0800235e 	.word	0x0800235e
 8001574:	20000000 	.word	0x20000000

08001578 <HAL_RCC_GetPCLK2Freq>:
  return (HAL_RCC_GetHCLKFreq()>> (APBPrescTable[READ_BIT(RCC->CFGR, RCC_CFGR_PPRE2) >> RCC_CFGR_PPRE2_Pos] & 0x1FU));
 8001578:	4b05      	ldr	r3, [pc, #20]	; (8001590 <HAL_RCC_GetPCLK2Freq+0x18>)
 800157a:	4a06      	ldr	r2, [pc, #24]	; (8001594 <HAL_RCC_GetPCLK2Freq+0x1c>)
 800157c:	689b      	ldr	r3, [r3, #8]
 800157e:	f3c3 23c2 	ubfx	r3, r3, #11, #3
 8001582:	5cd3      	ldrb	r3, [r2, r3]
 8001584:	4a04      	ldr	r2, [pc, #16]	; (8001598 <HAL_RCC_GetPCLK2Freq+0x20>)
 8001586:	6810      	ldr	r0, [r2, #0]
 8001588:	f003 031f 	and.w	r3, r3, #31
}
 800158c:	40d8      	lsrs	r0, r3
 800158e:	4770      	bx	lr
 8001590:	40021000 	.word	0x40021000
 8001594:	0800235e 	.word	0x0800235e
 8001598:	20000000 	.word	0x20000000

0800159c <RCCEx_PLLSAI1_Config>:
  * @note   PLLSAI1 is temporary disable to apply new parameters
  *
  * @retval HAL status
  */
static HAL_StatusTypeDef RCCEx_PLLSAI1_Config(RCC_PLLSAI1InitTypeDef *PllSai1, uint32_t Divider)
{
 800159c:	b5f8      	push	{r3, r4, r5, r6, r7, lr}
  assert_param(IS_RCC_PLLSAI1M_VALUE(PllSai1->PLLSAI1M));
  assert_param(IS_RCC_PLLSAI1N_VALUE(PllSai1->PLLSAI1N));
  assert_param(IS_RCC_PLLSAI1CLOCKOUT_VALUE(PllSai1->PLLSAI1ClockOut));

  /* Check that PLLSAI1 clock source and divider M can be applied */
  if(__HAL_RCC_GET_PLL_OSCSOURCE() != RCC_PLLSOURCE_NONE)
 800159e:	4b44      	ldr	r3, [pc, #272]	; (80016b0 <RCCEx_PLLSAI1_Config+0x114>)
 80015a0:	68da      	ldr	r2, [r3, #12]
 80015a2:	f012 0f03 	tst.w	r2, #3
{
 80015a6:	4605      	mov	r5, r0
 80015a8:	460e      	mov	r6, r1
 80015aa:	461c      	mov	r4, r3
 80015ac:	6800      	ldr	r0, [r0, #0]
  if(__HAL_RCC_GET_PLL_OSCSOURCE() != RCC_PLLSOURCE_NONE)
 80015ae:	d039      	beq.n	8001624 <RCCEx_PLLSAI1_Config+0x88>
  {
    /* PLL clock source and divider M already set, check that no request for change  */
    if((__HAL_RCC_GET_PLL_OSCSOURCE() != PllSai1->PLLSAI1Source)
 80015b0:	68da      	ldr	r2, [r3, #12]
 80015b2:	f002 0203 	and.w	r2, r2, #3
 80015b6:	4282      	cmp	r2, r0
 80015b8:	d14b      	bne.n	8001652 <RCCEx_PLLSAI1_Config+0xb6>
       ||
 80015ba:	2a00      	cmp	r2, #0
 80015bc:	d049      	beq.n	8001652 <RCCEx_PLLSAI1_Config+0xb6>
       (PllSai1->PLLSAI1Source == RCC_PLLSOURCE_NONE)
#if !defined(RCC_PLLSAI1M_DIV_1_16_SUPPORT)
       ||
       (((READ_BIT(RCC->PLLCFGR, RCC_PLLCFGR_PLLM) >> RCC_PLLCFGR_PLLM_Pos) + 1U) != PllSai1->PLLSAI1M)
 80015be:	68db      	ldr	r3, [r3, #12]
       ||
 80015c0:	686a      	ldr	r2, [r5, #4]
       (((READ_BIT(RCC->PLLCFGR, RCC_PLLCFGR_PLLM) >> RCC_PLLCFGR_PLLM_Pos) + 1U) != PllSai1->PLLSAI1M)
 80015c2:	f3c3 1302 	ubfx	r3, r3, #4, #3
 80015c6:	3301      	adds	r3, #1
       ||
 80015c8:	4293      	cmp	r3, r2
 80015ca:	d142      	bne.n	8001652 <RCCEx_PLLSAI1_Config+0xb6>
  }

  if(status == HAL_OK)
  {
    /* Disable the PLLSAI1 */
    __HAL_RCC_PLLSAI1_DISABLE();
 80015cc:	6823      	ldr	r3, [r4, #0]
 80015ce:	f023 6380 	bic.w	r3, r3, #67108864	; 0x4000000
 80015d2:	6023      	str	r3, [r4, #0]

    /* Get Start Tick*/
    tickstart = HAL_GetTick();
 80015d4:	f7ff face 	bl	8000b74 <HAL_GetTick>
 80015d8:	4607      	mov	r7, r0

    /* Wait till PLLSAI1 is ready to be updated */
    while(READ_BIT(RCC->CR, RCC_CR_PLLSAI1RDY) != 0U)
 80015da:	6823      	ldr	r3, [r4, #0]
 80015dc:	011a      	lsls	r2, r3, #4
 80015de:	d441      	bmi.n	8001664 <RCCEx_PLLSAI1_Config+0xc8>
 80015e0:	68af      	ldr	r7, [r5, #8]
      }
    }

    if(status == HAL_OK)
    {
      if(Divider == DIVIDER_P_UPDATE)
 80015e2:	2e00      	cmp	r6, #0
 80015e4:	d045      	beq.n	8001672 <RCCEx_PLLSAI1_Config+0xd6>
                   ((PllSai1->PLLSAI1P >> 4U) << RCC_PLLSAI1CFGR_PLLSAI1P_Pos));
#endif /* RCC_PLLSAI1P_DIV_2_31_SUPPORT */

#endif /* RCC_PLLSAI1M_DIV_1_16_SUPPORT */
      }
      else if(Divider == DIVIDER_Q_UPDATE)
 80015e6:	2e01      	cmp	r6, #1
 80015e8:	d14f      	bne.n	800168a <RCCEx_PLLSAI1_Config+0xee>
                   (PllSai1->PLLSAI1N << RCC_PLLSAI1CFGR_PLLSAI1N_Pos) |
                   (((PllSai1->PLLSAI1Q >> 1U) - 1U) << RCC_PLLSAI1CFGR_PLLSAI1Q_Pos) |
                   ((PllSai1->PLLSAI1M - 1U) << RCC_PLLSAI1CFGR_PLLSAI1M_Pos));
#else
        /* Configure the PLLSAI1 Division factor Q and Multiplication factor N*/
        MODIFY_REG(RCC->PLLSAI1CFGR,
 80015ea:	6922      	ldr	r2, [r4, #16]
 80015ec:	6928      	ldr	r0, [r5, #16]
 80015ee:	f422 02c0 	bic.w	r2, r2, #6291456	; 0x600000
 80015f2:	0840      	lsrs	r0, r0, #1
 80015f4:	f422 42fe 	bic.w	r2, r2, #32512	; 0x7f00
 80015f8:	3801      	subs	r0, #1
 80015fa:	ea42 2207 	orr.w	r2, r2, r7, lsl #8
 80015fe:	ea42 5240 	orr.w	r2, r2, r0, lsl #21
 8001602:	6122      	str	r2, [r4, #16]
                   (((PllSai1->PLLSAI1R >> 1U) - 1U) << RCC_PLLSAI1CFGR_PLLSAI1R_Pos));
#endif /* RCC_PLLSAI1M_DIV_1_16_SUPPORT */
      }

      /* Enable the PLLSAI1 again by setting PLLSAI1ON to 1*/
      __HAL_RCC_PLLSAI1_ENABLE();
 8001604:	6823      	ldr	r3, [r4, #0]
 8001606:	f043 6380 	orr.w	r3, r3, #67108864	; 0x4000000
 800160a:	6023      	str	r3, [r4, #0]

      /* Get Start Tick*/
      tickstart = HAL_GetTick();
 800160c:	f7ff fab2 	bl	8000b74 <HAL_GetTick>
 8001610:	4606      	mov	r6, r0

      /* Wait till PLLSAI1 is ready */
      while(READ_BIT(RCC->CR, RCC_CR_PLLSAI1RDY) == 0U)
 8001612:	6823      	ldr	r3, [r4, #0]
 8001614:	011b      	lsls	r3, r3, #4
 8001616:	d545      	bpl.n	80016a4 <RCCEx_PLLSAI1_Config+0x108>
      }

      if(status == HAL_OK)
      {
        /* Configure the PLLSAI1 Clock output(s) */
        __HAL_RCC_PLLSAI1CLKOUT_ENABLE(PllSai1->PLLSAI1ClockOut);
 8001618:	6923      	ldr	r3, [r4, #16]
 800161a:	69aa      	ldr	r2, [r5, #24]
 800161c:	4313      	orrs	r3, r2
 800161e:	6123      	str	r3, [r4, #16]
 8001620:	2000      	movs	r0, #0
      }
    }
  }

  return status;
}
 8001622:	bdf8      	pop	{r3, r4, r5, r6, r7, pc}
    switch(PllSai1->PLLSAI1Source)
 8001624:	2802      	cmp	r0, #2
 8001626:	d010      	beq.n	800164a <RCCEx_PLLSAI1_Config+0xae>
 8001628:	2803      	cmp	r0, #3
 800162a:	d014      	beq.n	8001656 <RCCEx_PLLSAI1_Config+0xba>
 800162c:	2801      	cmp	r0, #1
 800162e:	d110      	bne.n	8001652 <RCCEx_PLLSAI1_Config+0xb6>
      if(HAL_IS_BIT_CLR(RCC->CR, RCC_CR_MSIRDY))
 8001630:	681b      	ldr	r3, [r3, #0]
 8001632:	079f      	lsls	r7, r3, #30
 8001634:	d5f5      	bpl.n	8001622 <RCCEx_PLLSAI1_Config+0x86>
      MODIFY_REG(RCC->PLLCFGR, RCC_PLLCFGR_PLLSRC | RCC_PLLCFGR_PLLM, PllSai1->PLLSAI1Source | (PllSai1->PLLSAI1M - 1U) << RCC_PLLCFGR_PLLM_Pos);
 8001636:	68e3      	ldr	r3, [r4, #12]
 8001638:	686a      	ldr	r2, [r5, #4]
 800163a:	f023 0373 	bic.w	r3, r3, #115	; 0x73
 800163e:	3a01      	subs	r2, #1
 8001640:	4318      	orrs	r0, r3
 8001642:	ea40 1002 	orr.w	r0, r0, r2, lsl #4
 8001646:	60e0      	str	r0, [r4, #12]
 8001648:	e7c0      	b.n	80015cc <RCCEx_PLLSAI1_Config+0x30>
      if(HAL_IS_BIT_CLR(RCC->CR, RCC_CR_HSIRDY))
 800164a:	681b      	ldr	r3, [r3, #0]
 800164c:	f413 6f80 	tst.w	r3, #1024	; 0x400
        if(HAL_IS_BIT_CLR(RCC->CR, RCC_CR_HSEBYP))
 8001650:	d1f1      	bne.n	8001636 <RCCEx_PLLSAI1_Config+0x9a>
 8001652:	2001      	movs	r0, #1
 8001654:	bdf8      	pop	{r3, r4, r5, r6, r7, pc}
      if(HAL_IS_BIT_CLR(RCC->CR, RCC_CR_HSERDY))
 8001656:	681a      	ldr	r2, [r3, #0]
 8001658:	0391      	lsls	r1, r2, #14
 800165a:	d4ec      	bmi.n	8001636 <RCCEx_PLLSAI1_Config+0x9a>
        if(HAL_IS_BIT_CLR(RCC->CR, RCC_CR_HSEBYP))
 800165c:	681b      	ldr	r3, [r3, #0]
 800165e:	f413 2f80 	tst.w	r3, #262144	; 0x40000
 8001662:	e7f5      	b.n	8001650 <RCCEx_PLLSAI1_Config+0xb4>
      if((HAL_GetTick() - tickstart) > PLLSAI1_TIMEOUT_VALUE)
 8001664:	f7ff fa86 	bl	8000b74 <HAL_GetTick>
 8001668:	1bc0      	subs	r0, r0, r7
 800166a:	2802      	cmp	r0, #2
 800166c:	d9b5      	bls.n	80015da <RCCEx_PLLSAI1_Config+0x3e>
        status = HAL_TIMEOUT;
 800166e:	2003      	movs	r0, #3
 8001670:	bdf8      	pop	{r3, r4, r5, r6, r7, pc}
        MODIFY_REG(RCC->PLLSAI1CFGR,
 8001672:	6922      	ldr	r2, [r4, #16]
 8001674:	68e9      	ldr	r1, [r5, #12]
 8001676:	f022 4278 	bic.w	r2, r2, #4160749568	; 0xf8000000
 800167a:	06c9      	lsls	r1, r1, #27
 800167c:	ea41 2307 	orr.w	r3, r1, r7, lsl #8
 8001680:	f422 42fe 	bic.w	r2, r2, #32512	; 0x7f00
 8001684:	4313      	orrs	r3, r2
        MODIFY_REG(RCC->PLLSAI1CFGR,
 8001686:	6123      	str	r3, [r4, #16]
 8001688:	e7bc      	b.n	8001604 <RCCEx_PLLSAI1_Config+0x68>
 800168a:	6923      	ldr	r3, [r4, #16]
 800168c:	6968      	ldr	r0, [r5, #20]
 800168e:	f023 63c0 	bic.w	r3, r3, #100663296	; 0x6000000
 8001692:	0840      	lsrs	r0, r0, #1
 8001694:	f423 43fe 	bic.w	r3, r3, #32512	; 0x7f00
 8001698:	3801      	subs	r0, #1
 800169a:	ea43 2307 	orr.w	r3, r3, r7, lsl #8
 800169e:	ea43 6340 	orr.w	r3, r3, r0, lsl #25
 80016a2:	e7f0      	b.n	8001686 <RCCEx_PLLSAI1_Config+0xea>
        if((HAL_GetTick() - tickstart) > PLLSAI1_TIMEOUT_VALUE)
 80016a4:	f7ff fa66 	bl	8000b74 <HAL_GetTick>
 80016a8:	1b80      	subs	r0, r0, r6
 80016aa:	2802      	cmp	r0, #2
 80016ac:	d9b1      	bls.n	8001612 <RCCEx_PLLSAI1_Config+0x76>
 80016ae:	e7de      	b.n	800166e <RCCEx_PLLSAI1_Config+0xd2>
 80016b0:	40021000 	.word	0x40021000

080016b4 <HAL_RCCEx_PeriphCLKConfig>:
{
 80016b4:	e92d 43f7 	stmdb	sp!, {r0, r1, r2, r4, r5, r6, r7, r8, r9, lr}
  if((((PeriphClkInit->PeriphClockSelection) & RCC_PERIPHCLK_SAI1) == RCC_PERIPHCLK_SAI1))
 80016b8:	6805      	ldr	r5, [r0, #0]
 80016ba:	f415 6500 	ands.w	r5, r5, #2048	; 0x800
{
 80016be:	4604      	mov	r4, r0
  if((((PeriphClkInit->PeriphClockSelection) & RCC_PERIPHCLK_SAI1) == RCC_PERIPHCLK_SAI1))
 80016c0:	d00e      	beq.n	80016e0 <HAL_RCCEx_PeriphCLKConfig+0x2c>
    switch(PeriphClkInit->Sai1ClockSelection)
 80016c2:	6bc1      	ldr	r1, [r0, #60]	; 0x3c
 80016c4:	f5b1 0f00 	cmp.w	r1, #8388608	; 0x800000
 80016c8:	d053      	beq.n	8001772 <HAL_RCCEx_PeriphCLKConfig+0xbe>
 80016ca:	f5b1 0f40 	cmp.w	r1, #12582912	; 0xc00000
 80016ce:	d055      	beq.n	800177c <HAL_RCCEx_PeriphCLKConfig+0xc8>
 80016d0:	2900      	cmp	r1, #0
 80016d2:	d15e      	bne.n	8001792 <HAL_RCCEx_PeriphCLKConfig+0xde>
      ret = RCCEx_PLLSAI1_Config(&(PeriphClkInit->PLLSAI1), DIVIDER_P_UPDATE);
 80016d4:	3004      	adds	r0, #4
 80016d6:	f7ff ff61 	bl	800159c <RCCEx_PLLSAI1_Config>
    if(ret == HAL_OK)
 80016da:	4605      	mov	r5, r0
 80016dc:	2800      	cmp	r0, #0
 80016de:	d04d      	beq.n	800177c <HAL_RCCEx_PeriphCLKConfig+0xc8>
  if((PeriphClkInit->PeriphClockSelection & RCC_PERIPHCLK_RTC) == RCC_PERIPHCLK_RTC)
 80016e0:	6823      	ldr	r3, [r4, #0]
 80016e2:	039e      	lsls	r6, r3, #14
 80016e4:	d563      	bpl.n	80017ae <HAL_RCCEx_PeriphCLKConfig+0xfa>
    if(__HAL_RCC_PWR_IS_CLK_DISABLED() != 0U)
 80016e6:	4e93      	ldr	r6, [pc, #588]	; (8001934 <HAL_RCCEx_PeriphCLKConfig+0x280>)
 80016e8:	6db3      	ldr	r3, [r6, #88]	; 0x58
 80016ea:	00d8      	lsls	r0, r3, #3
 80016ec:	f140 8116 	bpl.w	800191c <HAL_RCCEx_PeriphCLKConfig+0x268>
    FlagStatus       pwrclkchanged = RESET;
 80016f0:	2700      	movs	r7, #0
    SET_BIT(PWR->CR1, PWR_CR1_DBP);
 80016f2:	f8df 8244 	ldr.w	r8, [pc, #580]	; 8001938 <HAL_RCCEx_PeriphCLKConfig+0x284>
 80016f6:	f8d8 3000 	ldr.w	r3, [r8]
 80016fa:	f443 7380 	orr.w	r3, r3, #256	; 0x100
 80016fe:	f8c8 3000 	str.w	r3, [r8]
    tickstart = HAL_GetTick();
 8001702:	f7ff fa37 	bl	8000b74 <HAL_GetTick>
 8001706:	4681      	mov	r9, r0
    while(READ_BIT(PWR->CR1, PWR_CR1_DBP) == 0U)
 8001708:	f8d8 3000 	ldr.w	r3, [r8]
 800170c:	05d9      	lsls	r1, r3, #23
 800170e:	d542      	bpl.n	8001796 <HAL_RCCEx_PeriphCLKConfig+0xe2>
    if(ret == HAL_OK)
 8001710:	2d00      	cmp	r5, #0
 8001712:	d147      	bne.n	80017a4 <HAL_RCCEx_PeriphCLKConfig+0xf0>
      tmpregister = READ_BIT(RCC->BDCR, RCC_BDCR_RTCSEL);
 8001714:	f8d6 3090 	ldr.w	r3, [r6, #144]	; 0x90
      if((tmpregister != RCC_RTCCLKSOURCE_NONE) && (tmpregister != PeriphClkInit->RTCClockSelection))
 8001718:	f413 7340 	ands.w	r3, r3, #768	; 0x300
 800171c:	d014      	beq.n	8001748 <HAL_RCCEx_PeriphCLKConfig+0x94>
 800171e:	6d22      	ldr	r2, [r4, #80]	; 0x50
 8001720:	4293      	cmp	r3, r2
 8001722:	d011      	beq.n	8001748 <HAL_RCCEx_PeriphCLKConfig+0x94>
        tmpregister = READ_BIT(RCC->BDCR, ~(RCC_BDCR_RTCSEL));
 8001724:	f8d6 3090 	ldr.w	r3, [r6, #144]	; 0x90
        __HAL_RCC_BACKUPRESET_FORCE();
 8001728:	f8d6 2090 	ldr.w	r2, [r6, #144]	; 0x90
 800172c:	f442 3280 	orr.w	r2, r2, #65536	; 0x10000
 8001730:	f8c6 2090 	str.w	r2, [r6, #144]	; 0x90
        __HAL_RCC_BACKUPRESET_RELEASE();
 8001734:	f8d6 2090 	ldr.w	r2, [r6, #144]	; 0x90
        tmpregister = READ_BIT(RCC->BDCR, ~(RCC_BDCR_RTCSEL));
 8001738:	f423 7340 	bic.w	r3, r3, #768	; 0x300
        __HAL_RCC_BACKUPRESET_RELEASE();
 800173c:	f422 3280 	bic.w	r2, r2, #65536	; 0x10000
 8001740:	f8c6 2090 	str.w	r2, [r6, #144]	; 0x90
        RCC->BDCR = tmpregister;
 8001744:	f8c6 3090 	str.w	r3, [r6, #144]	; 0x90
      if (HAL_IS_BIT_SET(tmpregister, RCC_BDCR_LSEON))
 8001748:	07da      	lsls	r2, r3, #31
 800174a:	d509      	bpl.n	8001760 <HAL_RCCEx_PeriphCLKConfig+0xac>
        tickstart = HAL_GetTick();
 800174c:	f7ff fa12 	bl	8000b74 <HAL_GetTick>
          if((HAL_GetTick() - tickstart) > RCC_LSE_TIMEOUT_VALUE)
 8001750:	f241 3988 	movw	r9, #5000	; 0x1388
        tickstart = HAL_GetTick();
 8001754:	4680      	mov	r8, r0
        while(READ_BIT(RCC->BDCR, RCC_BDCR_LSERDY) == 0U)
 8001756:	f8d6 3090 	ldr.w	r3, [r6, #144]	; 0x90
 800175a:	079b      	lsls	r3, r3, #30
 800175c:	f140 80c0 	bpl.w	80018e0 <HAL_RCCEx_PeriphCLKConfig+0x22c>
        __HAL_RCC_RTC_CONFIG(PeriphClkInit->RTCClockSelection);
 8001760:	f8d6 3090 	ldr.w	r3, [r6, #144]	; 0x90
 8001764:	6d22      	ldr	r2, [r4, #80]	; 0x50
 8001766:	f423 7340 	bic.w	r3, r3, #768	; 0x300
 800176a:	4313      	orrs	r3, r2
 800176c:	f8c6 3090 	str.w	r3, [r6, #144]	; 0x90
 8001770:	e018      	b.n	80017a4 <HAL_RCCEx_PeriphCLKConfig+0xf0>
      __HAL_RCC_PLLCLKOUT_ENABLE(RCC_PLL_SAI2CLK);
 8001772:	4a70      	ldr	r2, [pc, #448]	; (8001934 <HAL_RCCEx_PeriphCLKConfig+0x280>)
 8001774:	68d3      	ldr	r3, [r2, #12]
 8001776:	f443 3380 	orr.w	r3, r3, #65536	; 0x10000
 800177a:	60d3      	str	r3, [r2, #12]
      __HAL_RCC_SAI1_CONFIG(PeriphClkInit->Sai1ClockSelection);
 800177c:	4a6d      	ldr	r2, [pc, #436]	; (8001934 <HAL_RCCEx_PeriphCLKConfig+0x280>)
 800177e:	6be1      	ldr	r1, [r4, #60]	; 0x3c
 8001780:	f8d2 3088 	ldr.w	r3, [r2, #136]	; 0x88
 8001784:	f423 0340 	bic.w	r3, r3, #12582912	; 0xc00000
 8001788:	430b      	orrs	r3, r1
 800178a:	f8c2 3088 	str.w	r3, [r2, #136]	; 0x88
 800178e:	2500      	movs	r5, #0
 8001790:	e7a6      	b.n	80016e0 <HAL_RCCEx_PeriphCLKConfig+0x2c>
      ret = HAL_ERROR;
 8001792:	2501      	movs	r5, #1
 8001794:	e7a4      	b.n	80016e0 <HAL_RCCEx_PeriphCLKConfig+0x2c>
      if((HAL_GetTick() - tickstart) > RCC_DBP_TIMEOUT_VALUE)
 8001796:	f7ff f9ed 	bl	8000b74 <HAL_GetTick>
 800179a:	eba0 0009 	sub.w	r0, r0, r9
 800179e:	2802      	cmp	r0, #2
 80017a0:	d9b2      	bls.n	8001708 <HAL_RCCEx_PeriphCLKConfig+0x54>
        ret = HAL_TIMEOUT;
 80017a2:	2503      	movs	r5, #3
    if(pwrclkchanged == SET)
 80017a4:	b11f      	cbz	r7, 80017ae <HAL_RCCEx_PeriphCLKConfig+0xfa>
      __HAL_RCC_PWR_CLK_DISABLE();
 80017a6:	6db3      	ldr	r3, [r6, #88]	; 0x58
 80017a8:	f023 5380 	bic.w	r3, r3, #268435456	; 0x10000000
 80017ac:	65b3      	str	r3, [r6, #88]	; 0x58
  if(((PeriphClkInit->PeriphClockSelection) & RCC_PERIPHCLK_USART1) == RCC_PERIPHCLK_USART1)
 80017ae:	6823      	ldr	r3, [r4, #0]
 80017b0:	07df      	lsls	r7, r3, #31
 80017b2:	d508      	bpl.n	80017c6 <HAL_RCCEx_PeriphCLKConfig+0x112>
    __HAL_RCC_USART1_CONFIG(PeriphClkInit->Usart1ClockSelection);
 80017b4:	495f      	ldr	r1, [pc, #380]	; (8001934 <HAL_RCCEx_PeriphCLKConfig+0x280>)
 80017b6:	6a20      	ldr	r0, [r4, #32]
 80017b8:	f8d1 2088 	ldr.w	r2, [r1, #136]	; 0x88
 80017bc:	f022 0203 	bic.w	r2, r2, #3
 80017c0:	4302      	orrs	r2, r0
 80017c2:	f8c1 2088 	str.w	r2, [r1, #136]	; 0x88
  if(((PeriphClkInit->PeriphClockSelection) & RCC_PERIPHCLK_USART2) == RCC_PERIPHCLK_USART2)
 80017c6:	079e      	lsls	r6, r3, #30
 80017c8:	d508      	bpl.n	80017dc <HAL_RCCEx_PeriphCLKConfig+0x128>
    __HAL_RCC_USART2_CONFIG(PeriphClkInit->Usart2ClockSelection);
 80017ca:	495a      	ldr	r1, [pc, #360]	; (8001934 <HAL_RCCEx_PeriphCLKConfig+0x280>)
 80017cc:	6a60      	ldr	r0, [r4, #36]	; 0x24
 80017ce:	f8d1 2088 	ldr.w	r2, [r1, #136]	; 0x88
 80017d2:	f022 020c 	bic.w	r2, r2, #12
 80017d6:	4302      	orrs	r2, r0
 80017d8:	f8c1 2088 	str.w	r2, [r1, #136]	; 0x88
  if(((PeriphClkInit->PeriphClockSelection) & RCC_PERIPHCLK_LPUART1) == RCC_PERIPHCLK_LPUART1)
 80017dc:	0698      	lsls	r0, r3, #26
 80017de:	d508      	bpl.n	80017f2 <HAL_RCCEx_PeriphCLKConfig+0x13e>
    __HAL_RCC_LPUART1_CONFIG(PeriphClkInit->Lpuart1ClockSelection);
 80017e0:	4954      	ldr	r1, [pc, #336]	; (8001934 <HAL_RCCEx_PeriphCLKConfig+0x280>)
 80017e2:	6aa0      	ldr	r0, [r4, #40]	; 0x28
 80017e4:	f8d1 2088 	ldr.w	r2, [r1, #136]	; 0x88
 80017e8:	f422 6240 	bic.w	r2, r2, #3072	; 0xc00
 80017ec:	4302      	orrs	r2, r0
 80017ee:	f8c1 2088 	str.w	r2, [r1, #136]	; 0x88
  if(((PeriphClkInit->PeriphClockSelection) & RCC_PERIPHCLK_LPTIM1) == (RCC_PERIPHCLK_LPTIM1))
 80017f2:	0599      	lsls	r1, r3, #22
 80017f4:	d508      	bpl.n	8001808 <HAL_RCCEx_PeriphCLKConfig+0x154>
    __HAL_RCC_LPTIM1_CONFIG(PeriphClkInit->Lptim1ClockSelection);
 80017f6:	494f      	ldr	r1, [pc, #316]	; (8001934 <HAL_RCCEx_PeriphCLKConfig+0x280>)
 80017f8:	6b60      	ldr	r0, [r4, #52]	; 0x34
 80017fa:	f8d1 2088 	ldr.w	r2, [r1, #136]	; 0x88
 80017fe:	f422 2240 	bic.w	r2, r2, #786432	; 0xc0000
 8001802:	4302      	orrs	r2, r0
 8001804:	f8c1 2088 	str.w	r2, [r1, #136]	; 0x88
  if(((PeriphClkInit->PeriphClockSelection) & RCC_PERIPHCLK_LPTIM2) == (RCC_PERIPHCLK_LPTIM2))
 8001808:	055a      	lsls	r2, r3, #21
 800180a:	d508      	bpl.n	800181e <HAL_RCCEx_PeriphCLKConfig+0x16a>
    __HAL_RCC_LPTIM2_CONFIG(PeriphClkInit->Lptim2ClockSelection);
 800180c:	4949      	ldr	r1, [pc, #292]	; (8001934 <HAL_RCCEx_PeriphCLKConfig+0x280>)
 800180e:	6ba0      	ldr	r0, [r4, #56]	; 0x38
 8001810:	f8d1 2088 	ldr.w	r2, [r1, #136]	; 0x88
 8001814:	f422 1240 	bic.w	r2, r2, #3145728	; 0x300000
 8001818:	4302      	orrs	r2, r0
 800181a:	f8c1 2088 	str.w	r2, [r1, #136]	; 0x88
  if(((PeriphClkInit->PeriphClockSelection) & RCC_PERIPHCLK_I2C1) == RCC_PERIPHCLK_I2C1)
 800181e:	065f      	lsls	r7, r3, #25
 8001820:	d508      	bpl.n	8001834 <HAL_RCCEx_PeriphCLKConfig+0x180>
    __HAL_RCC_I2C1_CONFIG(PeriphClkInit->I2c1ClockSelection);
 8001822:	4944      	ldr	r1, [pc, #272]	; (8001934 <HAL_RCCEx_PeriphCLKConfig+0x280>)
 8001824:	6ae0      	ldr	r0, [r4, #44]	; 0x2c
 8001826:	f8d1 2088 	ldr.w	r2, [r1, #136]	; 0x88
 800182a:	f422 5240 	bic.w	r2, r2, #12288	; 0x3000
 800182e:	4302      	orrs	r2, r0
 8001830:	f8c1 2088 	str.w	r2, [r1, #136]	; 0x88
  if(((PeriphClkInit->PeriphClockSelection) & RCC_PERIPHCLK_I2C3) == RCC_PERIPHCLK_I2C3)
 8001834:	05de      	lsls	r6, r3, #23
 8001836:	d508      	bpl.n	800184a <HAL_RCCEx_PeriphCLKConfig+0x196>
    __HAL_RCC_I2C3_CONFIG(PeriphClkInit->I2c3ClockSelection);
 8001838:	493e      	ldr	r1, [pc, #248]	; (8001934 <HAL_RCCEx_PeriphCLKConfig+0x280>)
 800183a:	6b20      	ldr	r0, [r4, #48]	; 0x30
 800183c:	f8d1 2088 	ldr.w	r2, [r1, #136]	; 0x88
 8001840:	f422 3240 	bic.w	r2, r2, #196608	; 0x30000
 8001844:	4302      	orrs	r2, r0
 8001846:	f8c1 2088 	str.w	r2, [r1, #136]	; 0x88
  if(((PeriphClkInit->PeriphClockSelection) & RCC_PERIPHCLK_USB) == (RCC_PERIPHCLK_USB))
 800184a:	0498      	lsls	r0, r3, #18
 800184c:	d50f      	bpl.n	800186e <HAL_RCCEx_PeriphCLKConfig+0x1ba>
    __HAL_RCC_USB_CONFIG(PeriphClkInit->UsbClockSelection);
 800184e:	4a39      	ldr	r2, [pc, #228]	; (8001934 <HAL_RCCEx_PeriphCLKConfig+0x280>)
 8001850:	6c21      	ldr	r1, [r4, #64]	; 0x40
 8001852:	f8d2 3088 	ldr.w	r3, [r2, #136]	; 0x88
 8001856:	f023 6340 	bic.w	r3, r3, #201326592	; 0xc000000
 800185a:	430b      	orrs	r3, r1
    if(PeriphClkInit->UsbClockSelection == RCC_USBCLKSOURCE_PLL)
 800185c:	f1b1 6f00 	cmp.w	r1, #134217728	; 0x8000000
    __HAL_RCC_USB_CONFIG(PeriphClkInit->UsbClockSelection);
 8001860:	f8c2 3088 	str.w	r3, [r2, #136]	; 0x88
    if(PeriphClkInit->UsbClockSelection == RCC_USBCLKSOURCE_PLL)
 8001864:	d144      	bne.n	80018f0 <HAL_RCCEx_PeriphCLKConfig+0x23c>
      __HAL_RCC_PLLCLKOUT_ENABLE(RCC_PLL_48M1CLK);
 8001866:	68d3      	ldr	r3, [r2, #12]
 8001868:	f443 1380 	orr.w	r3, r3, #1048576	; 0x100000
 800186c:	60d3      	str	r3, [r2, #12]
  if(((PeriphClkInit->PeriphClockSelection) & RCC_PERIPHCLK_RNG) == (RCC_PERIPHCLK_RNG))
 800186e:	6823      	ldr	r3, [r4, #0]
 8001870:	0359      	lsls	r1, r3, #13
 8001872:	d50f      	bpl.n	8001894 <HAL_RCCEx_PeriphCLKConfig+0x1e0>
    __HAL_RCC_RNG_CONFIG(PeriphClkInit->RngClockSelection);
 8001874:	4a2f      	ldr	r2, [pc, #188]	; (8001934 <HAL_RCCEx_PeriphCLKConfig+0x280>)
 8001876:	6c61      	ldr	r1, [r4, #68]	; 0x44
 8001878:	f8d2 3088 	ldr.w	r3, [r2, #136]	; 0x88
 800187c:	f023 6340 	bic.w	r3, r3, #201326592	; 0xc000000
 8001880:	430b      	orrs	r3, r1
    if(PeriphClkInit->RngClockSelection == RCC_RNGCLKSOURCE_PLL)
 8001882:	f1b1 6f00 	cmp.w	r1, #134217728	; 0x8000000
    __HAL_RCC_RNG_CONFIG(PeriphClkInit->RngClockSelection);
 8001886:	f8c2 3088 	str.w	r3, [r2, #136]	; 0x88
    if(PeriphClkInit->RngClockSelection == RCC_RNGCLKSOURCE_PLL)
 800188a:	d13c      	bne.n	8001906 <HAL_RCCEx_PeriphCLKConfig+0x252>
      __HAL_RCC_PLLCLKOUT_ENABLE(RCC_PLL_48M1CLK);
 800188c:	68d3      	ldr	r3, [r2, #12]
 800188e:	f443 1380 	orr.w	r3, r3, #1048576	; 0x100000
 8001892:	60d3      	str	r3, [r2, #12]
  if(((PeriphClkInit->PeriphClockSelection) & RCC_PERIPHCLK_ADC) == RCC_PERIPHCLK_ADC)
 8001894:	6823      	ldr	r3, [r4, #0]
 8001896:	045a      	lsls	r2, r3, #17
 8001898:	d512      	bpl.n	80018c0 <HAL_RCCEx_PeriphCLKConfig+0x20c>
    __HAL_RCC_ADC_CONFIG(PeriphClkInit->AdcClockSelection);
 800189a:	4926      	ldr	r1, [pc, #152]	; (8001934 <HAL_RCCEx_PeriphCLKConfig+0x280>)
 800189c:	6ca2      	ldr	r2, [r4, #72]	; 0x48
 800189e:	f8d1 3088 	ldr.w	r3, [r1, #136]	; 0x88
 80018a2:	f023 5340 	bic.w	r3, r3, #805306368	; 0x30000000
 80018a6:	4313      	orrs	r3, r2
    if(PeriphClkInit->AdcClockSelection == RCC_ADCCLKSOURCE_PLLSAI1)
 80018a8:	f1b2 5f80 	cmp.w	r2, #268435456	; 0x10000000
    __HAL_RCC_ADC_CONFIG(PeriphClkInit->AdcClockSelection);
 80018ac:	f8c1 3088 	str.w	r3, [r1, #136]	; 0x88
    if(PeriphClkInit->AdcClockSelection == RCC_ADCCLKSOURCE_PLLSAI1)
 80018b0:	d106      	bne.n	80018c0 <HAL_RCCEx_PeriphCLKConfig+0x20c>
      ret = RCCEx_PLLSAI1_Config(&(PeriphClkInit->PLLSAI1), DIVIDER_R_UPDATE);
 80018b2:	2102      	movs	r1, #2
 80018b4:	1d20      	adds	r0, r4, #4
 80018b6:	f7ff fe71 	bl	800159c <RCCEx_PLLSAI1_Config>
      if(ret != HAL_OK)
 80018ba:	2800      	cmp	r0, #0
 80018bc:	bf18      	it	ne
 80018be:	4605      	movne	r5, r0
  if(((PeriphClkInit->PeriphClockSelection) & RCC_PERIPHCLK_SWPMI1) == RCC_PERIPHCLK_SWPMI1)
 80018c0:	6823      	ldr	r3, [r4, #0]
 80018c2:	041b      	lsls	r3, r3, #16
 80018c4:	d508      	bpl.n	80018d8 <HAL_RCCEx_PeriphCLKConfig+0x224>
    __HAL_RCC_SWPMI1_CONFIG(PeriphClkInit->Swpmi1ClockSelection);
 80018c6:	4a1b      	ldr	r2, [pc, #108]	; (8001934 <HAL_RCCEx_PeriphCLKConfig+0x280>)
 80018c8:	6ce1      	ldr	r1, [r4, #76]	; 0x4c
 80018ca:	f8d2 3088 	ldr.w	r3, [r2, #136]	; 0x88
 80018ce:	f023 4380 	bic.w	r3, r3, #1073741824	; 0x40000000
 80018d2:	430b      	orrs	r3, r1
 80018d4:	f8c2 3088 	str.w	r3, [r2, #136]	; 0x88
}
 80018d8:	4628      	mov	r0, r5
 80018da:	b003      	add	sp, #12
 80018dc:	e8bd 83f0 	ldmia.w	sp!, {r4, r5, r6, r7, r8, r9, pc}
          if((HAL_GetTick() - tickstart) > RCC_LSE_TIMEOUT_VALUE)
 80018e0:	f7ff f948 	bl	8000b74 <HAL_GetTick>
 80018e4:	eba0 0008 	sub.w	r0, r0, r8
 80018e8:	4548      	cmp	r0, r9
 80018ea:	f67f af34 	bls.w	8001756 <HAL_RCCEx_PeriphCLKConfig+0xa2>
 80018ee:	e758      	b.n	80017a2 <HAL_RCCEx_PeriphCLKConfig+0xee>
      if(PeriphClkInit->UsbClockSelection == RCC_USBCLKSOURCE_PLLSAI1)
 80018f0:	f1b1 6f80 	cmp.w	r1, #67108864	; 0x4000000
 80018f4:	d1bb      	bne.n	800186e <HAL_RCCEx_PeriphCLKConfig+0x1ba>
        ret = RCCEx_PLLSAI1_Config(&(PeriphClkInit->PLLSAI1), DIVIDER_Q_UPDATE);
 80018f6:	2101      	movs	r1, #1
 80018f8:	1d20      	adds	r0, r4, #4
 80018fa:	f7ff fe4f 	bl	800159c <RCCEx_PLLSAI1_Config>
        if(ret != HAL_OK)
 80018fe:	2800      	cmp	r0, #0
 8001900:	bf18      	it	ne
 8001902:	4605      	movne	r5, r0
 8001904:	e7b3      	b.n	800186e <HAL_RCCEx_PeriphCLKConfig+0x1ba>
    else if(PeriphClkInit->RngClockSelection == RCC_RNGCLKSOURCE_PLLSAI1)
 8001906:	f1b1 6f80 	cmp.w	r1, #67108864	; 0x4000000
 800190a:	d1c3      	bne.n	8001894 <HAL_RCCEx_PeriphCLKConfig+0x1e0>
      ret = RCCEx_PLLSAI1_Config(&(PeriphClkInit->PLLSAI1), DIVIDER_Q_UPDATE);
 800190c:	2101      	movs	r1, #1
 800190e:	1d20      	adds	r0, r4, #4
 8001910:	f7ff fe44 	bl	800159c <RCCEx_PLLSAI1_Config>
      if(ret != HAL_OK)
 8001914:	2800      	cmp	r0, #0
 8001916:	bf18      	it	ne
 8001918:	4605      	movne	r5, r0
 800191a:	e7bb      	b.n	8001894 <HAL_RCCEx_PeriphCLKConfig+0x1e0>
      __HAL_RCC_PWR_CLK_ENABLE();
 800191c:	6db3      	ldr	r3, [r6, #88]	; 0x58
 800191e:	f043 5380 	orr.w	r3, r3, #268435456	; 0x10000000
 8001922:	65b3      	str	r3, [r6, #88]	; 0x58
 8001924:	6db3      	ldr	r3, [r6, #88]	; 0x58
 8001926:	f003 5380 	and.w	r3, r3, #268435456	; 0x10000000
 800192a:	9301      	str	r3, [sp, #4]
 800192c:	9b01      	ldr	r3, [sp, #4]
      pwrclkchanged = SET;
 800192e:	2701      	movs	r7, #1
 8001930:	e6df      	b.n	80016f2 <HAL_RCCEx_PeriphCLKConfig+0x3e>
 8001932:	bf00      	nop
 8001934:	40021000 	.word	0x40021000
 8001938:	40007000 	.word	0x40007000

0800193c <HAL_RCCEx_EnableMSIPLLMode>:
  SET_BIT(RCC->CR, RCC_CR_MSIPLLEN) ;
 800193c:	4a02      	ldr	r2, [pc, #8]	; (8001948 <HAL_RCCEx_EnableMSIPLLMode+0xc>)
 800193e:	6813      	ldr	r3, [r2, #0]
 8001940:	f043 0304 	orr.w	r3, r3, #4
 8001944:	6013      	str	r3, [r2, #0]
 8001946:	4770      	bx	lr
 8001948:	40021000 	.word	0x40021000

0800194c <UART_SetConfig>:
  uint32_t lpuart_ker_ck_pres         = 0x00000000U;

  /* Check the parameters */
  assert_param(IS_UART_BAUDRATE(huart->Init.BaudRate));
  assert_param(IS_UART_WORD_LENGTH(huart->Init.WordLength));
  if (UART_INSTANCE_LOWPOWER(huart))
 800194c:	6802      	ldr	r2, [r0, #0]
  *  the UART Word Length, Parity, Mode and oversampling:
  *  set the M bits according to huart->Init.WordLength value
  *  set PCE and PS bits according to huart->Init.Parity value
  *  set TE and RE bits according to huart->Init.Mode value
  *  set OVER8 bit according to huart->Init.OverSampling value */
  tmpreg = (uint32_t)huart->Init.WordLength | huart->Init.Parity | huart->Init.Mode | huart->Init.OverSampling ;
 800194e:	69c1      	ldr	r1, [r0, #28]
{
 8001950:	b5f8      	push	{r3, r4, r5, r6, r7, lr}
 8001952:	4604      	mov	r4, r0
  tmpreg = (uint32_t)huart->Init.WordLength | huart->Init.Parity | huart->Init.Mode | huart->Init.OverSampling ;
 8001954:	6883      	ldr	r3, [r0, #8]
 8001956:	6900      	ldr	r0, [r0, #16]
#if defined(USART_CR1_FIFOEN)
  tmpreg |= (uint32_t)huart->FifoMode;
#endif
  MODIFY_REG(huart->Instance->CR1, USART_CR1_FIELDS, tmpreg);
 8001958:	6815      	ldr	r5, [r2, #0]
  tmpreg = (uint32_t)huart->Init.WordLength | huart->Init.Parity | huart->Init.Mode | huart->Init.OverSampling ;
 800195a:	4303      	orrs	r3, r0
 800195c:	6960      	ldr	r0, [r4, #20]
 800195e:	4303      	orrs	r3, r0
  MODIFY_REG(huart->Instance->CR1, USART_CR1_FIELDS, tmpreg);
 8001960:	4882      	ldr	r0, [pc, #520]	; (8001b6c <UART_SetConfig+0x220>)
  tmpreg = (uint32_t)huart->Init.WordLength | huart->Init.Parity | huart->Init.Mode | huart->Init.OverSampling ;
 8001962:	430b      	orrs	r3, r1
  MODIFY_REG(huart->Instance->CR1, USART_CR1_FIELDS, tmpreg);
 8001964:	4028      	ands	r0, r5
 8001966:	4303      	orrs	r3, r0
 8001968:	6013      	str	r3, [r2, #0]

  /*-------------------------- USART CR2 Configuration -----------------------*/
  /* Configure the UART Stop Bits: Set STOP[13:12] bits according
  * to huart->Init.StopBits value */
  MODIFY_REG(huart->Instance->CR2, USART_CR2_STOP, huart->Init.StopBits);
 800196a:	6853      	ldr	r3, [r2, #4]
 800196c:	68e0      	ldr	r0, [r4, #12]
 800196e:	f423 5340 	bic.w	r3, r3, #12288	; 0x3000
 8001972:	4303      	orrs	r3, r0
 8001974:	6053      	str	r3, [r2, #4]
  *   to huart->Init.HwFlowCtl value
  * - one-bit sampling method versus three samples' majority rule according
  *   to huart->Init.OneBitSampling (not applicable to LPUART) */
  tmpreg = (uint32_t)huart->Init.HwFlowCtl;

  if (!(UART_INSTANCE_LOWPOWER(huart)))
 8001976:	4b7e      	ldr	r3, [pc, #504]	; (8001b70 <UART_SetConfig+0x224>)
  tmpreg = (uint32_t)huart->Init.HwFlowCtl;
 8001978:	69a0      	ldr	r0, [r4, #24]
  if (!(UART_INSTANCE_LOWPOWER(huart)))
 800197a:	429a      	cmp	r2, r3
  {
    tmpreg |= huart->Init.OneBitSampling;
 800197c:	bf1c      	itt	ne
 800197e:	6a23      	ldrne	r3, [r4, #32]
 8001980:	4318      	orrne	r0, r3
  }
  MODIFY_REG(huart->Instance->CR3, USART_CR3_FIELDS, tmpreg);
 8001982:	6893      	ldr	r3, [r2, #8]
 8001984:	f423 6330 	bic.w	r3, r3, #2816	; 0xb00
 8001988:	4303      	orrs	r3, r0
 800198a:	6093      	str	r3, [r2, #8]
  * - UART Clock Prescaler : set PRESCALER according to huart->Init.ClockPrescaler value */
  MODIFY_REG(huart->Instance->PRESC, USART_PRESC_PRESCALER, huart->Init.ClockPrescaler);
#endif

  /*-------------------------- USART BRR Configuration -----------------------*/
  UART_GETCLOCKSOURCE(huart, clocksource);
 800198c:	4b79      	ldr	r3, [pc, #484]	; (8001b74 <UART_SetConfig+0x228>)
 800198e:	429a      	cmp	r2, r3
 8001990:	d114      	bne.n	80019bc <UART_SetConfig+0x70>
 8001992:	f503 4358 	add.w	r3, r3, #55296	; 0xd800
 8001996:	4a78      	ldr	r2, [pc, #480]	; (8001b78 <UART_SetConfig+0x22c>)
 8001998:	f8d3 3088 	ldr.w	r3, [r3, #136]	; 0x88
 800199c:	f003 0303 	and.w	r3, r3, #3
        }
      }  /*   if ( (tmpreg < (3 * huart->Init.BaudRate) ) || (tmpreg > (4096 * huart->Init.BaudRate) )) */
    } /* if (tmpreg != 0) */
  }
  /* Check UART Over Sampling to set Baud Rate Register */
  else if (huart->Init.OverSampling == UART_OVERSAMPLING_8)
 80019a0:	f5b1 4f00 	cmp.w	r1, #32768	; 0x8000
 80019a4:	5cd3      	ldrb	r3, [r2, r3]
 80019a6:	f040 80aa 	bne.w	8001afe <UART_SetConfig+0x1b2>
  {
    switch (clocksource)
 80019aa:	2b08      	cmp	r3, #8
 80019ac:	d820      	bhi.n	80019f0 <UART_SetConfig+0xa4>
 80019ae:	e8df f003 	tbb	[pc, r3]
 80019b2:	8f77      	.short	0x8f77
 80019b4:	1f9b1f92 	.word	0x1f9b1f92
 80019b8:	1f1f      	.short	0x1f1f
 80019ba:	9e          	.byte	0x9e
 80019bb:	00          	.byte	0x00
  UART_GETCLOCKSOURCE(huart, clocksource);
 80019bc:	4b6f      	ldr	r3, [pc, #444]	; (8001b7c <UART_SetConfig+0x230>)
 80019be:	429a      	cmp	r2, r3
 80019c0:	d107      	bne.n	80019d2 <UART_SetConfig+0x86>
 80019c2:	f503 33e6 	add.w	r3, r3, #117760	; 0x1cc00
 80019c6:	4a6e      	ldr	r2, [pc, #440]	; (8001b80 <UART_SetConfig+0x234>)
 80019c8:	f8d3 3088 	ldr.w	r3, [r3, #136]	; 0x88
 80019cc:	f003 030c 	and.w	r3, r3, #12
 80019d0:	e7e6      	b.n	80019a0 <UART_SetConfig+0x54>
 80019d2:	4b67      	ldr	r3, [pc, #412]	; (8001b70 <UART_SetConfig+0x224>)
 80019d4:	429a      	cmp	r2, r3
 80019d6:	f040 80c2 	bne.w	8001b5e <UART_SetConfig+0x212>
 80019da:	f503 33c8 	add.w	r3, r3, #102400	; 0x19000
 80019de:	f8d3 5088 	ldr.w	r5, [r3, #136]	; 0x88
 80019e2:	f405 6540 	and.w	r5, r5, #3072	; 0xc00
 80019e6:	f5b5 6f80 	cmp.w	r5, #1024	; 0x400
 80019ea:	d02a      	beq.n	8001a42 <UART_SetConfig+0xf6>
 80019ec:	d806      	bhi.n	80019fc <UART_SetConfig+0xb0>
 80019ee:	b315      	cbz	r5, 8001a36 <UART_SetConfig+0xea>
        ret = HAL_ERROR;
 80019f0:	2201      	movs	r2, #1
  huart->NbTxDataToProcess = 1;
  huart->NbRxDataToProcess = 1;
#endif

  /* Clear ISR function pointers */
  huart->RxISR = NULL;
 80019f2:	2300      	movs	r3, #0
 80019f4:	6623      	str	r3, [r4, #96]	; 0x60
  huart->TxISR = NULL;
 80019f6:	6663      	str	r3, [r4, #100]	; 0x64

  return ret;
}
 80019f8:	4610      	mov	r0, r2
 80019fa:	bdf8      	pop	{r3, r4, r5, r6, r7, pc}
  UART_GETCLOCKSOURCE(huart, clocksource);
 80019fc:	f5b5 6f00 	cmp.w	r5, #2048	; 0x800
 8001a00:	d006      	beq.n	8001a10 <UART_SetConfig+0xc4>
 8001a02:	f5b5 6f40 	cmp.w	r5, #3072	; 0xc00
 8001a06:	d1f3      	bne.n	80019f0 <UART_SetConfig+0xa4>
        lpuart_ker_ck_pres = (uint32_t)LSE_VALUE;
 8001a08:	f44f 4000 	mov.w	r0, #32768	; 0x8000
  UART_GETCLOCKSOURCE(huart, clocksource);
 8001a0c:	2508      	movs	r5, #8
 8001a0e:	e001      	b.n	8001a14 <UART_SetConfig+0xc8>
        lpuart_ker_ck_pres = (uint32_t)HSI_VALUE;
 8001a10:	485c      	ldr	r0, [pc, #368]	; (8001b84 <UART_SetConfig+0x238>)
  UART_GETCLOCKSOURCE(huart, clocksource);
 8001a12:	2502      	movs	r5, #2
      if ((lpuart_ker_ck_pres < (3 * huart->Init.BaudRate)) ||
 8001a14:	6862      	ldr	r2, [r4, #4]
 8001a16:	eb02 0342 	add.w	r3, r2, r2, lsl #1
 8001a1a:	4283      	cmp	r3, r0
 8001a1c:	d8e8      	bhi.n	80019f0 <UART_SetConfig+0xa4>
 8001a1e:	ebb0 3f02 	cmp.w	r0, r2, lsl #12
 8001a22:	d8e5      	bhi.n	80019f0 <UART_SetConfig+0xa4>
        switch (clocksource)
 8001a24:	2d08      	cmp	r5, #8
 8001a26:	d838      	bhi.n	8001a9a <UART_SetConfig+0x14e>
 8001a28:	e8df f005 	tbb	[pc, r5]
 8001a2c:	3726370f 	.word	0x3726370f
 8001a30:	3737372e 	.word	0x3737372e
 8001a34:	31          	.byte	0x31
 8001a35:	00          	.byte	0x00
        lpuart_ker_ck_pres = HAL_RCC_GetPCLK1Freq();
 8001a36:	f7ff fd8d 	bl	8001554 <HAL_RCC_GetPCLK1Freq>
    if (lpuart_ker_ck_pres != 0U)
 8001a3a:	2800      	cmp	r0, #0
 8001a3c:	d1ea      	bne.n	8001a14 <UART_SetConfig+0xc8>
 8001a3e:	4602      	mov	r2, r0
 8001a40:	e7d7      	b.n	80019f2 <UART_SetConfig+0xa6>
        lpuart_ker_ck_pres = HAL_RCC_GetSysClockFreq();
 8001a42:	f7ff fa4f 	bl	8000ee4 <HAL_RCC_GetSysClockFreq>
        break;
 8001a46:	2504      	movs	r5, #4
 8001a48:	e7f7      	b.n	8001a3a <UART_SetConfig+0xee>
            usartdiv = (uint32_t)(UART_DIV_LPUART(HAL_RCC_GetPCLK1Freq(), huart->Init.BaudRate));
 8001a4a:	f7ff fd83 	bl	8001554 <HAL_RCC_GetPCLK1Freq>
            usartdiv = (uint32_t)(UART_DIV_LPUART(HAL_RCC_GetSysClockFreq(), huart->Init.BaudRate));
 8001a4e:	6862      	ldr	r2, [r4, #4]
 8001a50:	f44f 7180 	mov.w	r1, #256	; 0x100
 8001a54:	0856      	lsrs	r6, r2, #1
 8001a56:	2700      	movs	r7, #0
 8001a58:	fbe1 6700 	umlal	r6, r7, r1, r0
 8001a5c:	2300      	movs	r3, #0
 8001a5e:	4630      	mov	r0, r6
 8001a60:	4639      	mov	r1, r7
            usartdiv = (uint32_t)(UART_DIV_LPUART(LSE_VALUE, huart->Init.BaudRate));
 8001a62:	f7fe fbbb 	bl	80001dc <__aeabi_uldivmod>
            break;
 8001a66:	2200      	movs	r2, #0
        if ((usartdiv >= LPUART_BRR_MIN) && (usartdiv <= LPUART_BRR_MAX))
 8001a68:	4b47      	ldr	r3, [pc, #284]	; (8001b88 <UART_SetConfig+0x23c>)
 8001a6a:	f5a0 7140 	sub.w	r1, r0, #768	; 0x300
 8001a6e:	4299      	cmp	r1, r3
 8001a70:	d8be      	bhi.n	80019f0 <UART_SetConfig+0xa4>
          huart->Instance->BRR = usartdiv;
 8001a72:	6823      	ldr	r3, [r4, #0]
 8001a74:	60d8      	str	r0, [r3, #12]
 8001a76:	e7bc      	b.n	80019f2 <UART_SetConfig+0xa6>
            usartdiv = (uint32_t)(UART_DIV_LPUART(HSI_VALUE, huart->Init.BaudRate));
 8001a78:	4844      	ldr	r0, [pc, #272]	; (8001b8c <UART_SetConfig+0x240>)
 8001a7a:	0855      	lsrs	r5, r2, #1
 8001a7c:	2300      	movs	r3, #0
 8001a7e:	2100      	movs	r1, #0
 8001a80:	1940      	adds	r0, r0, r5
            usartdiv = (uint32_t)(UART_DIV_LPUART(LSE_VALUE, huart->Init.BaudRate));
 8001a82:	f141 0100 	adc.w	r1, r1, #0
 8001a86:	e7ec      	b.n	8001a62 <UART_SetConfig+0x116>
            usartdiv = (uint32_t)(UART_DIV_LPUART(HAL_RCC_GetSysClockFreq(), huart->Init.BaudRate));
 8001a88:	f7ff fa2c 	bl	8000ee4 <HAL_RCC_GetSysClockFreq>
 8001a8c:	e7df      	b.n	8001a4e <UART_SetConfig+0x102>
            usartdiv = (uint32_t)(UART_DIV_LPUART(LSE_VALUE, huart->Init.BaudRate));
 8001a8e:	0850      	lsrs	r0, r2, #1
 8001a90:	2100      	movs	r1, #0
 8001a92:	2300      	movs	r3, #0
 8001a94:	f510 0000 	adds.w	r0, r0, #8388608	; 0x800000
 8001a98:	e7f3      	b.n	8001a82 <UART_SetConfig+0x136>
            ret = HAL_ERROR;
 8001a9a:	2201      	movs	r2, #1
  uint32_t usartdiv                   = 0x00000000U;
 8001a9c:	2000      	movs	r0, #0
 8001a9e:	e7e3      	b.n	8001a68 <UART_SetConfig+0x11c>
        usartdiv = (uint16_t)(UART_DIV_SAMPLING8(HAL_RCC_GetPCLK1Freq(), huart->Init.BaudRate));
 8001aa0:	f7ff fd58 	bl	8001554 <HAL_RCC_GetPCLK1Freq>
        usartdiv = (uint16_t)(UART_DIV_SAMPLING8(HAL_RCC_GetSysClockFreq(), huart->Init.BaudRate));
 8001aa4:	6861      	ldr	r1, [r4, #4]
 8001aa6:	084a      	lsrs	r2, r1, #1
 8001aa8:	eb02 0340 	add.w	r3, r2, r0, lsl #1
 8001aac:	fbb3 f3f1 	udiv	r3, r3, r1
 8001ab0:	b29b      	uxth	r3, r3
  HAL_StatusTypeDef ret               = HAL_OK;
 8001ab2:	2200      	movs	r2, #0
    if ((usartdiv >= UART_BRR_MIN) && (usartdiv <= UART_BRR_MAX))
 8001ab4:	f1a3 0010 	sub.w	r0, r3, #16
 8001ab8:	f64f 71ef 	movw	r1, #65519	; 0xffef
 8001abc:	4288      	cmp	r0, r1
 8001abe:	d897      	bhi.n	80019f0 <UART_SetConfig+0xa4>
      brrtemp = usartdiv & 0xFFF0U;
 8001ac0:	f023 010f 	bic.w	r1, r3, #15
      huart->Instance->BRR = brrtemp;
 8001ac4:	6820      	ldr	r0, [r4, #0]
      brrtemp |= (uint16_t)((usartdiv & (uint16_t)0x000FU) >> 1U);
 8001ac6:	f3c3 0342 	ubfx	r3, r3, #1, #3
      huart->Instance->BRR = brrtemp;
 8001aca:	430b      	orrs	r3, r1
 8001acc:	60c3      	str	r3, [r0, #12]
 8001ace:	e790      	b.n	80019f2 <UART_SetConfig+0xa6>
        usartdiv = (uint16_t)(UART_DIV_SAMPLING8(HAL_RCC_GetPCLK2Freq(), huart->Init.BaudRate));
 8001ad0:	f7ff fd52 	bl	8001578 <HAL_RCC_GetPCLK2Freq>
 8001ad4:	e7e6      	b.n	8001aa4 <UART_SetConfig+0x158>
        usartdiv = (uint16_t)(UART_DIV_SAMPLING8(HSI_VALUE, huart->Init.BaudRate));
 8001ad6:	6860      	ldr	r0, [r4, #4]
 8001ad8:	0843      	lsrs	r3, r0, #1
 8001ada:	f103 73f4 	add.w	r3, r3, #31981568	; 0x1e80000
 8001ade:	f503 4390 	add.w	r3, r3, #18432	; 0x4800
        usartdiv = (uint16_t)(UART_DIV_SAMPLING8(LSE_VALUE, huart->Init.BaudRate));
 8001ae2:	fbb3 f3f0 	udiv	r3, r3, r0
 8001ae6:	e7e3      	b.n	8001ab0 <UART_SetConfig+0x164>
        usartdiv = (uint16_t)(UART_DIV_SAMPLING8(HAL_RCC_GetSysClockFreq(), huart->Init.BaudRate));
 8001ae8:	f7ff f9fc 	bl	8000ee4 <HAL_RCC_GetSysClockFreq>
 8001aec:	e7da      	b.n	8001aa4 <UART_SetConfig+0x158>
        usartdiv = (uint16_t)(UART_DIV_SAMPLING8(LSE_VALUE, huart->Init.BaudRate));
 8001aee:	6860      	ldr	r0, [r4, #4]
 8001af0:	0843      	lsrs	r3, r0, #1
 8001af2:	f503 3380 	add.w	r3, r3, #65536	; 0x10000
 8001af6:	e7f4      	b.n	8001ae2 <UART_SetConfig+0x196>
        ret = HAL_ERROR;
 8001af8:	2201      	movs	r2, #1
  uint32_t usartdiv                   = 0x00000000U;
 8001afa:	2300      	movs	r3, #0
 8001afc:	e7da      	b.n	8001ab4 <UART_SetConfig+0x168>
    switch (clocksource)
 8001afe:	2b08      	cmp	r3, #8
 8001b00:	d830      	bhi.n	8001b64 <UART_SetConfig+0x218>
 8001b02:	e8df f003 	tbb	[pc, r3]
 8001b06:	1805      	.short	0x1805
 8001b08:	2f242f1b 	.word	0x2f242f1b
 8001b0c:	2f2f      	.short	0x2f2f
 8001b0e:	27          	.byte	0x27
 8001b0f:	00          	.byte	0x00
        usartdiv = (uint16_t)(UART_DIV_SAMPLING16(HAL_RCC_GetPCLK1Freq(), huart->Init.BaudRate));
 8001b10:	f7ff fd20 	bl	8001554 <HAL_RCC_GetPCLK1Freq>
        usartdiv = (uint16_t)(UART_DIV_SAMPLING16(HAL_RCC_GetPCLK2Freq(), huart->Init.BaudRate));
 8001b14:	6862      	ldr	r2, [r4, #4]
 8001b16:	eb00 0352 	add.w	r3, r0, r2, lsr #1
 8001b1a:	fbb3 f3f2 	udiv	r3, r3, r2
 8001b1e:	b29b      	uxth	r3, r3
  HAL_StatusTypeDef ret               = HAL_OK;
 8001b20:	2200      	movs	r2, #0
    if ((usartdiv >= UART_BRR_MIN) && (usartdiv <= UART_BRR_MAX))
 8001b22:	f1a3 0010 	sub.w	r0, r3, #16
 8001b26:	f64f 71ef 	movw	r1, #65519	; 0xffef
 8001b2a:	4288      	cmp	r0, r1
 8001b2c:	f63f af60 	bhi.w	80019f0 <UART_SetConfig+0xa4>
      huart->Instance->BRR = usartdiv;
 8001b30:	6821      	ldr	r1, [r4, #0]
 8001b32:	60cb      	str	r3, [r1, #12]
 8001b34:	e75d      	b.n	80019f2 <UART_SetConfig+0xa6>
        usartdiv = (uint16_t)(UART_DIV_SAMPLING16(HAL_RCC_GetPCLK2Freq(), huart->Init.BaudRate));
 8001b36:	f7ff fd1f 	bl	8001578 <HAL_RCC_GetPCLK2Freq>
 8001b3a:	e7eb      	b.n	8001b14 <UART_SetConfig+0x1c8>
        usartdiv = (uint16_t)(UART_DIV_SAMPLING16(HSI_VALUE, huart->Init.BaudRate));
 8001b3c:	6860      	ldr	r0, [r4, #4]
 8001b3e:	0843      	lsrs	r3, r0, #1
 8001b40:	f503 0374 	add.w	r3, r3, #15990784	; 0xf40000
 8001b44:	f503 5310 	add.w	r3, r3, #9216	; 0x2400
        usartdiv = (uint16_t)(UART_DIV_SAMPLING16(LSE_VALUE, huart->Init.BaudRate));
 8001b48:	fbb3 f3f0 	udiv	r3, r3, r0
 8001b4c:	e7e7      	b.n	8001b1e <UART_SetConfig+0x1d2>
        usartdiv = (uint16_t)(UART_DIV_SAMPLING16(HAL_RCC_GetSysClockFreq(), huart->Init.BaudRate));
 8001b4e:	f7ff f9c9 	bl	8000ee4 <HAL_RCC_GetSysClockFreq>
 8001b52:	e7df      	b.n	8001b14 <UART_SetConfig+0x1c8>
        usartdiv = (uint16_t)(UART_DIV_SAMPLING16(LSE_VALUE, huart->Init.BaudRate));
 8001b54:	6860      	ldr	r0, [r4, #4]
 8001b56:	0843      	lsrs	r3, r0, #1
 8001b58:	f503 4300 	add.w	r3, r3, #32768	; 0x8000
 8001b5c:	e7f4      	b.n	8001b48 <UART_SetConfig+0x1fc>
  else if (huart->Init.OverSampling == UART_OVERSAMPLING_8)
 8001b5e:	f5b1 4f00 	cmp.w	r1, #32768	; 0x8000
 8001b62:	d0c9      	beq.n	8001af8 <UART_SetConfig+0x1ac>
        ret = HAL_ERROR;
 8001b64:	2201      	movs	r2, #1
  uint32_t usartdiv                   = 0x00000000U;
 8001b66:	2300      	movs	r3, #0
 8001b68:	e7db      	b.n	8001b22 <UART_SetConfig+0x1d6>
 8001b6a:	bf00      	nop
 8001b6c:	efff69f3 	.word	0xefff69f3
 8001b70:	40008000 	.word	0x40008000
 8001b74:	40013800 	.word	0x40013800
 8001b78:	08002283 	.word	0x08002283
 8001b7c:	40004400 	.word	0x40004400
 8001b80:	08002287 	.word	0x08002287
 8001b84:	00f42400 	.word	0x00f42400
 8001b88:	000ffcff 	.word	0x000ffcff
 8001b8c:	f4240000 	.word	0xf4240000

08001b90 <UART_AdvFeatureConfig>:
{
  /* Check whether the set of advanced features to configure is properly set */
  assert_param(IS_UART_ADVFEATURE_INIT(huart->AdvancedInit.AdvFeatureInit));

  /* if required, configure TX pin active level inversion */
  if (HAL_IS_BIT_SET(huart->AdvancedInit.AdvFeatureInit, UART_ADVFEATURE_TXINVERT_INIT))
 8001b90:	6a43      	ldr	r3, [r0, #36]	; 0x24
 8001b92:	07da      	lsls	r2, r3, #31
{
 8001b94:	b510      	push	{r4, lr}
  if (HAL_IS_BIT_SET(huart->AdvancedInit.AdvFeatureInit, UART_ADVFEATURE_TXINVERT_INIT))
 8001b96:	d506      	bpl.n	8001ba6 <UART_AdvFeatureConfig+0x16>
  {
    assert_param(IS_UART_ADVFEATURE_TXINV(huart->AdvancedInit.TxPinLevelInvert));
    MODIFY_REG(huart->Instance->CR2, USART_CR2_TXINV, huart->AdvancedInit.TxPinLevelInvert);
 8001b98:	6801      	ldr	r1, [r0, #0]
 8001b9a:	6a84      	ldr	r4, [r0, #40]	; 0x28
 8001b9c:	684a      	ldr	r2, [r1, #4]
 8001b9e:	f422 3200 	bic.w	r2, r2, #131072	; 0x20000
 8001ba2:	4322      	orrs	r2, r4
 8001ba4:	604a      	str	r2, [r1, #4]
  }

  /* if required, configure RX pin active level inversion */
  if (HAL_IS_BIT_SET(huart->AdvancedInit.AdvFeatureInit, UART_ADVFEATURE_RXINVERT_INIT))
 8001ba6:	079c      	lsls	r4, r3, #30
 8001ba8:	d506      	bpl.n	8001bb8 <UART_AdvFeatureConfig+0x28>
  {
    assert_param(IS_UART_ADVFEATURE_RXINV(huart->AdvancedInit.RxPinLevelInvert));
    MODIFY_REG(huart->Instance->CR2, USART_CR2_RXINV, huart->AdvancedInit.RxPinLevelInvert);
 8001baa:	6801      	ldr	r1, [r0, #0]
 8001bac:	6ac4      	ldr	r4, [r0, #44]	; 0x2c
 8001bae:	684a      	ldr	r2, [r1, #4]
 8001bb0:	f422 3280 	bic.w	r2, r2, #65536	; 0x10000
 8001bb4:	4322      	orrs	r2, r4
 8001bb6:	604a      	str	r2, [r1, #4]
  }

  /* if required, configure data inversion */
  if (HAL_IS_BIT_SET(huart->AdvancedInit.AdvFeatureInit, UART_ADVFEATURE_DATAINVERT_INIT))
 8001bb8:	0759      	lsls	r1, r3, #29
 8001bba:	d506      	bpl.n	8001bca <UART_AdvFeatureConfig+0x3a>
  {
    assert_param(IS_UART_ADVFEATURE_DATAINV(huart->AdvancedInit.DataInvert));
    MODIFY_REG(huart->Instance->CR2, USART_CR2_DATAINV, huart->AdvancedInit.DataInvert);
 8001bbc:	6801      	ldr	r1, [r0, #0]
 8001bbe:	6b04      	ldr	r4, [r0, #48]	; 0x30
 8001bc0:	684a      	ldr	r2, [r1, #4]
 8001bc2:	f422 2280 	bic.w	r2, r2, #262144	; 0x40000
 8001bc6:	4322      	orrs	r2, r4
 8001bc8:	604a      	str	r2, [r1, #4]
  }

  /* if required, configure RX/TX pins swap */
  if (HAL_IS_BIT_SET(huart->AdvancedInit.AdvFeatureInit, UART_ADVFEATURE_SWAP_INIT))
 8001bca:	071a      	lsls	r2, r3, #28
 8001bcc:	d506      	bpl.n	8001bdc <UART_AdvFeatureConfig+0x4c>
  {
    assert_param(IS_UART_ADVFEATURE_SWAP(huart->AdvancedInit.Swap));
    MODIFY_REG(huart->Instance->CR2, USART_CR2_SWAP, huart->AdvancedInit.Swap);
 8001bce:	6801      	ldr	r1, [r0, #0]
 8001bd0:	6b44      	ldr	r4, [r0, #52]	; 0x34
 8001bd2:	684a      	ldr	r2, [r1, #4]
 8001bd4:	f422 4200 	bic.w	r2, r2, #32768	; 0x8000
 8001bd8:	4322      	orrs	r2, r4
 8001bda:	604a      	str	r2, [r1, #4]
  }

  /* if required, configure RX overrun detection disabling */
  if (HAL_IS_BIT_SET(huart->AdvancedInit.AdvFeatureInit, UART_ADVFEATURE_RXOVERRUNDISABLE_INIT))
 8001bdc:	06dc      	lsls	r4, r3, #27
 8001bde:	d506      	bpl.n	8001bee <UART_AdvFeatureConfig+0x5e>
  {
    assert_param(IS_UART_OVERRUN(huart->AdvancedInit.OverrunDisable));
    MODIFY_REG(huart->Instance->CR3, USART_CR3_OVRDIS, huart->AdvancedInit.OverrunDisable);
 8001be0:	6801      	ldr	r1, [r0, #0]
 8001be2:	6b84      	ldr	r4, [r0, #56]	; 0x38
 8001be4:	688a      	ldr	r2, [r1, #8]
 8001be6:	f422 5280 	bic.w	r2, r2, #4096	; 0x1000
 8001bea:	4322      	orrs	r2, r4
 8001bec:	608a      	str	r2, [r1, #8]
  }

  /* if required, configure DMA disabling on reception error */
  if (HAL_IS_BIT_SET(huart->AdvancedInit.AdvFeatureInit, UART_ADVFEATURE_DMADISABLEONERROR_INIT))
 8001bee:	0699      	lsls	r1, r3, #26
 8001bf0:	d506      	bpl.n	8001c00 <UART_AdvFeatureConfig+0x70>
  {
    assert_param(IS_UART_ADVFEATURE_DMAONRXERROR(huart->AdvancedInit.DMADisableonRxError));
    MODIFY_REG(huart->Instance->CR3, USART_CR3_DDRE, huart->AdvancedInit.DMADisableonRxError);
 8001bf2:	6801      	ldr	r1, [r0, #0]
 8001bf4:	6bc4      	ldr	r4, [r0, #60]	; 0x3c
 8001bf6:	688a      	ldr	r2, [r1, #8]
 8001bf8:	f422 5200 	bic.w	r2, r2, #8192	; 0x2000
 8001bfc:	4322      	orrs	r2, r4
 8001bfe:	608a      	str	r2, [r1, #8]
  }

  /* if required, configure auto Baud rate detection scheme */
  if (HAL_IS_BIT_SET(huart->AdvancedInit.AdvFeatureInit, UART_ADVFEATURE_AUTOBAUDRATE_INIT))
 8001c00:	065a      	lsls	r2, r3, #25
 8001c02:	d50f      	bpl.n	8001c24 <UART_AdvFeatureConfig+0x94>
  {
    assert_param(IS_USART_AUTOBAUDRATE_DETECTION_INSTANCE(huart->Instance));
    assert_param(IS_UART_ADVFEATURE_AUTOBAUDRATE(huart->AdvancedInit.AutoBaudRateEnable));
    MODIFY_REG(huart->Instance->CR2, USART_CR2_ABREN, huart->AdvancedInit.AutoBaudRateEnable);
 8001c04:	6801      	ldr	r1, [r0, #0]
 8001c06:	6c04      	ldr	r4, [r0, #64]	; 0x40
 8001c08:	684a      	ldr	r2, [r1, #4]
 8001c0a:	f422 1280 	bic.w	r2, r2, #1048576	; 0x100000
 8001c0e:	4322      	orrs	r2, r4
    /* set auto Baudrate detection parameters if detection is enabled */
    if (huart->AdvancedInit.AutoBaudRateEnable == UART_ADVFEATURE_AUTOBAUDRATE_ENABLE)
 8001c10:	f5b4 1f80 	cmp.w	r4, #1048576	; 0x100000
    MODIFY_REG(huart->Instance->CR2, USART_CR2_ABREN, huart->AdvancedInit.AutoBaudRateEnable);
 8001c14:	604a      	str	r2, [r1, #4]
    if (huart->AdvancedInit.AutoBaudRateEnable == UART_ADVFEATURE_AUTOBAUDRATE_ENABLE)
 8001c16:	d105      	bne.n	8001c24 <UART_AdvFeatureConfig+0x94>
    {
      assert_param(IS_UART_ADVFEATURE_AUTOBAUDRATEMODE(huart->AdvancedInit.AutoBaudRateMode));
      MODIFY_REG(huart->Instance->CR2, USART_CR2_ABRMODE, huart->AdvancedInit.AutoBaudRateMode);
 8001c18:	684a      	ldr	r2, [r1, #4]
 8001c1a:	6c44      	ldr	r4, [r0, #68]	; 0x44
 8001c1c:	f422 02c0 	bic.w	r2, r2, #6291456	; 0x600000
 8001c20:	4322      	orrs	r2, r4
 8001c22:	604a      	str	r2, [r1, #4]
    }
  }

  /* if required, configure MSB first on communication line */
  if (HAL_IS_BIT_SET(huart->AdvancedInit.AdvFeatureInit, UART_ADVFEATURE_MSBFIRST_INIT))
 8001c24:	061b      	lsls	r3, r3, #24
 8001c26:	d506      	bpl.n	8001c36 <UART_AdvFeatureConfig+0xa6>
  {
    assert_param(IS_UART_ADVFEATURE_MSBFIRST(huart->AdvancedInit.MSBFirst));
    MODIFY_REG(huart->Instance->CR2, USART_CR2_MSBFIRST, huart->AdvancedInit.MSBFirst);
 8001c28:	6802      	ldr	r2, [r0, #0]
 8001c2a:	6c81      	ldr	r1, [r0, #72]	; 0x48
 8001c2c:	6853      	ldr	r3, [r2, #4]
 8001c2e:	f423 2300 	bic.w	r3, r3, #524288	; 0x80000
 8001c32:	430b      	orrs	r3, r1
 8001c34:	6053      	str	r3, [r2, #4]
 8001c36:	bd10      	pop	{r4, pc}

08001c38 <UART_WaitOnFlagUntilTimeout>:
  * @param Tickstart Tick start value
  * @param Timeout   Timeout duration
  * @retval HAL status
  */
HAL_StatusTypeDef UART_WaitOnFlagUntilTimeout(UART_HandleTypeDef *huart, uint32_t Flag, FlagStatus Status, uint32_t Tickstart, uint32_t Timeout)
{
 8001c38:	e92d 41f0 	stmdb	sp!, {r4, r5, r6, r7, r8, lr}
 8001c3c:	9d06      	ldr	r5, [sp, #24]
 8001c3e:	4604      	mov	r4, r0
 8001c40:	460f      	mov	r7, r1
 8001c42:	4616      	mov	r6, r2
 8001c44:	4698      	mov	r8, r3
  /* Wait until flag is set */
  while ((__HAL_UART_GET_FLAG(huart, Flag) ? SET : RESET) == Status)
 8001c46:	6821      	ldr	r1, [r4, #0]
 8001c48:	69ca      	ldr	r2, [r1, #28]
 8001c4a:	ea37 0302 	bics.w	r3, r7, r2
 8001c4e:	bf0c      	ite	eq
 8001c50:	2201      	moveq	r2, #1
 8001c52:	2200      	movne	r2, #0
 8001c54:	42b2      	cmp	r2, r6
 8001c56:	d002      	beq.n	8001c5e <UART_WaitOnFlagUntilTimeout+0x26>

        return HAL_TIMEOUT;
      }
    }
  }
  return HAL_OK;
 8001c58:	2000      	movs	r0, #0
}
 8001c5a:	e8bd 81f0 	ldmia.w	sp!, {r4, r5, r6, r7, r8, pc}
    if (Timeout != HAL_MAX_DELAY)
 8001c5e:	1c6b      	adds	r3, r5, #1
 8001c60:	d0f2      	beq.n	8001c48 <UART_WaitOnFlagUntilTimeout+0x10>
      if ((Timeout == 0U) || ((HAL_GetTick() - Tickstart) > Timeout))
 8001c62:	b99d      	cbnz	r5, 8001c8c <UART_WaitOnFlagUntilTimeout+0x54>
        CLEAR_BIT(huart->Instance->CR1, (USART_CR1_RXNEIE | USART_CR1_PEIE | USART_CR1_TXEIE));
 8001c64:	6823      	ldr	r3, [r4, #0]
 8001c66:	681a      	ldr	r2, [r3, #0]
 8001c68:	f422 72d0 	bic.w	r2, r2, #416	; 0x1a0
 8001c6c:	601a      	str	r2, [r3, #0]
        CLEAR_BIT(huart->Instance->CR3, USART_CR3_EIE);
 8001c6e:	689a      	ldr	r2, [r3, #8]
 8001c70:	f022 0201 	bic.w	r2, r2, #1
 8001c74:	609a      	str	r2, [r3, #8]
        huart->gState = HAL_UART_STATE_READY;
 8001c76:	2320      	movs	r3, #32
 8001c78:	f884 3071 	strb.w	r3, [r4, #113]	; 0x71
        huart->RxState = HAL_UART_STATE_READY;
 8001c7c:	f884 3072 	strb.w	r3, [r4, #114]	; 0x72
        __HAL_UNLOCK(huart);
 8001c80:	2300      	movs	r3, #0
 8001c82:	f884 3070 	strb.w	r3, [r4, #112]	; 0x70
 8001c86:	2003      	movs	r0, #3
 8001c88:	e8bd 81f0 	ldmia.w	sp!, {r4, r5, r6, r7, r8, pc}
      if ((Timeout == 0U) || ((HAL_GetTick() - Tickstart) > Timeout))
 8001c8c:	f7fe ff72 	bl	8000b74 <HAL_GetTick>
 8001c90:	eba0 0008 	sub.w	r0, r0, r8
 8001c94:	4285      	cmp	r5, r0
 8001c96:	d2d6      	bcs.n	8001c46 <UART_WaitOnFlagUntilTimeout+0xe>
 8001c98:	e7e4      	b.n	8001c64 <UART_WaitOnFlagUntilTimeout+0x2c>

08001c9a <HAL_UART_Transmit>:
{
 8001c9a:	e92d 41f3 	stmdb	sp!, {r0, r1, r4, r5, r6, r7, r8, lr}
 8001c9e:	461f      	mov	r7, r3
  if (huart->gState == HAL_UART_STATE_READY)
 8001ca0:	f890 3071 	ldrb.w	r3, [r0, #113]	; 0x71
 8001ca4:	2b20      	cmp	r3, #32
{
 8001ca6:	4604      	mov	r4, r0
 8001ca8:	460d      	mov	r5, r1
 8001caa:	4690      	mov	r8, r2
  if (huart->gState == HAL_UART_STATE_READY)
 8001cac:	d14a      	bne.n	8001d44 <HAL_UART_Transmit+0xaa>
    if ((pData == NULL) || (Size == 0U))
 8001cae:	2900      	cmp	r1, #0
 8001cb0:	d046      	beq.n	8001d40 <HAL_UART_Transmit+0xa6>
 8001cb2:	2a00      	cmp	r2, #0
 8001cb4:	d044      	beq.n	8001d40 <HAL_UART_Transmit+0xa6>
    __HAL_LOCK(huart);
 8001cb6:	f890 3070 	ldrb.w	r3, [r0, #112]	; 0x70
 8001cba:	2b01      	cmp	r3, #1
 8001cbc:	d042      	beq.n	8001d44 <HAL_UART_Transmit+0xaa>
 8001cbe:	2301      	movs	r3, #1
 8001cc0:	f880 3070 	strb.w	r3, [r0, #112]	; 0x70
    huart->ErrorCode = HAL_UART_ERROR_NONE;
 8001cc4:	2300      	movs	r3, #0
 8001cc6:	6743      	str	r3, [r0, #116]	; 0x74
    huart->gState = HAL_UART_STATE_BUSY_TX;
 8001cc8:	2321      	movs	r3, #33	; 0x21
 8001cca:	f880 3071 	strb.w	r3, [r0, #113]	; 0x71
    tickstart = HAL_GetTick();
 8001cce:	f7fe ff51 	bl	8000b74 <HAL_GetTick>
    huart->TxXferSize  = Size;
 8001cd2:	f8a4 8050 	strh.w	r8, [r4, #80]	; 0x50
    tickstart = HAL_GetTick();
 8001cd6:	4606      	mov	r6, r0
    huart->TxXferCount = Size;
 8001cd8:	f8a4 8052 	strh.w	r8, [r4, #82]	; 0x52
    while (huart->TxXferCount > 0U)
 8001cdc:	f8b4 2052 	ldrh.w	r2, [r4, #82]	; 0x52
      if (UART_WaitOnFlagUntilTimeout(huart, UART_FLAG_TXE, RESET, tickstart, Timeout) != HAL_OK)
 8001ce0:	9700      	str	r7, [sp, #0]
    while (huart->TxXferCount > 0U)
 8001ce2:	b292      	uxth	r2, r2
      if (UART_WaitOnFlagUntilTimeout(huart, UART_FLAG_TXE, RESET, tickstart, Timeout) != HAL_OK)
 8001ce4:	4633      	mov	r3, r6
    while (huart->TxXferCount > 0U)
 8001ce6:	b952      	cbnz	r2, 8001cfe <HAL_UART_Transmit+0x64>
    if (UART_WaitOnFlagUntilTimeout(huart, UART_FLAG_TC, RESET, tickstart, Timeout) != HAL_OK)
 8001ce8:	2140      	movs	r1, #64	; 0x40
 8001cea:	4620      	mov	r0, r4
 8001cec:	f7ff ffa4 	bl	8001c38 <UART_WaitOnFlagUntilTimeout>
 8001cf0:	b958      	cbnz	r0, 8001d0a <HAL_UART_Transmit+0x70>
    huart->gState = HAL_UART_STATE_READY;
 8001cf2:	2320      	movs	r3, #32
 8001cf4:	f884 3071 	strb.w	r3, [r4, #113]	; 0x71
    __HAL_UNLOCK(huart);
 8001cf8:	f884 0070 	strb.w	r0, [r4, #112]	; 0x70
    return HAL_OK;
 8001cfc:	e006      	b.n	8001d0c <HAL_UART_Transmit+0x72>
      if (UART_WaitOnFlagUntilTimeout(huart, UART_FLAG_TXE, RESET, tickstart, Timeout) != HAL_OK)
 8001cfe:	2200      	movs	r2, #0
 8001d00:	2180      	movs	r1, #128	; 0x80
 8001d02:	4620      	mov	r0, r4
 8001d04:	f7ff ff98 	bl	8001c38 <UART_WaitOnFlagUntilTimeout>
 8001d08:	b118      	cbz	r0, 8001d12 <HAL_UART_Transmit+0x78>
        return HAL_TIMEOUT;
 8001d0a:	2003      	movs	r0, #3
}
 8001d0c:	b002      	add	sp, #8
 8001d0e:	e8bd 81f0 	ldmia.w	sp!, {r4, r5, r6, r7, r8, pc}
      if ((huart->Init.WordLength == UART_WORDLENGTH_9B) && (huart->Init.Parity == UART_PARITY_NONE))
 8001d12:	68a3      	ldr	r3, [r4, #8]
 8001d14:	6822      	ldr	r2, [r4, #0]
 8001d16:	f5b3 5f80 	cmp.w	r3, #4096	; 0x1000
 8001d1a:	d10d      	bne.n	8001d38 <HAL_UART_Transmit+0x9e>
 8001d1c:	6923      	ldr	r3, [r4, #16]
 8001d1e:	b95b      	cbnz	r3, 8001d38 <HAL_UART_Transmit+0x9e>
        huart->Instance->TDR = (*tmp & (uint16_t)0x01FFU);
 8001d20:	f835 3b02 	ldrh.w	r3, [r5], #2
 8001d24:	f3c3 0308 	ubfx	r3, r3, #0, #9
 8001d28:	8513      	strh	r3, [r2, #40]	; 0x28
      huart->TxXferCount--;
 8001d2a:	f8b4 3052 	ldrh.w	r3, [r4, #82]	; 0x52
 8001d2e:	3b01      	subs	r3, #1
 8001d30:	b29b      	uxth	r3, r3
 8001d32:	f8a4 3052 	strh.w	r3, [r4, #82]	; 0x52
 8001d36:	e7d1      	b.n	8001cdc <HAL_UART_Transmit+0x42>
        huart->Instance->TDR = (*pData++ & (uint8_t)0xFFU);
 8001d38:	782b      	ldrb	r3, [r5, #0]
 8001d3a:	8513      	strh	r3, [r2, #40]	; 0x28
 8001d3c:	3501      	adds	r5, #1
 8001d3e:	e7f4      	b.n	8001d2a <HAL_UART_Transmit+0x90>
      return  HAL_ERROR;
 8001d40:	2001      	movs	r0, #1
 8001d42:	e7e3      	b.n	8001d0c <HAL_UART_Transmit+0x72>
    return HAL_BUSY;
 8001d44:	2002      	movs	r0, #2
 8001d46:	e7e1      	b.n	8001d0c <HAL_UART_Transmit+0x72>

08001d48 <UART_CheckIdleState>:
{
 8001d48:	b573      	push	{r0, r1, r4, r5, r6, lr}
 8001d4a:	4604      	mov	r4, r0
  huart->ErrorCode = HAL_UART_ERROR_NONE;
 8001d4c:	2600      	movs	r6, #0
 8001d4e:	6746      	str	r6, [r0, #116]	; 0x74
  tickstart = HAL_GetTick();
 8001d50:	f7fe ff10 	bl	8000b74 <HAL_GetTick>
  if ((huart->Instance->CR1 & USART_CR1_TE) == USART_CR1_TE)
 8001d54:	6823      	ldr	r3, [r4, #0]
 8001d56:	681b      	ldr	r3, [r3, #0]
 8001d58:	071a      	lsls	r2, r3, #28
  tickstart = HAL_GetTick();
 8001d5a:	4605      	mov	r5, r0
  if ((huart->Instance->CR1 & USART_CR1_TE) == USART_CR1_TE)
 8001d5c:	d417      	bmi.n	8001d8e <UART_CheckIdleState+0x46>
  if ((huart->Instance->CR1 & USART_CR1_RE) == USART_CR1_RE)
 8001d5e:	6823      	ldr	r3, [r4, #0]
 8001d60:	681b      	ldr	r3, [r3, #0]
 8001d62:	075b      	lsls	r3, r3, #29
 8001d64:	d50a      	bpl.n	8001d7c <UART_CheckIdleState+0x34>
    if (UART_WaitOnFlagUntilTimeout(huart, USART_ISR_REACK, RESET, tickstart, HAL_UART_TIMEOUT_VALUE) != HAL_OK)
 8001d66:	f06f 437e 	mvn.w	r3, #4261412864	; 0xfe000000
 8001d6a:	9300      	str	r3, [sp, #0]
 8001d6c:	2200      	movs	r2, #0
 8001d6e:	462b      	mov	r3, r5
 8001d70:	f44f 0180 	mov.w	r1, #4194304	; 0x400000
 8001d74:	4620      	mov	r0, r4
 8001d76:	f7ff ff5f 	bl	8001c38 <UART_WaitOnFlagUntilTimeout>
 8001d7a:	b9a0      	cbnz	r0, 8001da6 <UART_CheckIdleState+0x5e>
  huart->gState = HAL_UART_STATE_READY;
 8001d7c:	2320      	movs	r3, #32
  __HAL_UNLOCK(huart);
 8001d7e:	2000      	movs	r0, #0
  huart->gState = HAL_UART_STATE_READY;
 8001d80:	f884 3071 	strb.w	r3, [r4, #113]	; 0x71
  __HAL_UNLOCK(huart);
 8001d84:	f884 0070 	strb.w	r0, [r4, #112]	; 0x70
  huart->RxState = HAL_UART_STATE_READY;
 8001d88:	f884 3072 	strb.w	r3, [r4, #114]	; 0x72
  return HAL_OK;
 8001d8c:	e00c      	b.n	8001da8 <UART_CheckIdleState+0x60>
    if (UART_WaitOnFlagUntilTimeout(huart, USART_ISR_TEACK, RESET, tickstart, HAL_UART_TIMEOUT_VALUE) != HAL_OK)
 8001d8e:	f06f 437e 	mvn.w	r3, #4261412864	; 0xfe000000
 8001d92:	9300      	str	r3, [sp, #0]
 8001d94:	4632      	mov	r2, r6
 8001d96:	4603      	mov	r3, r0
 8001d98:	f44f 1100 	mov.w	r1, #2097152	; 0x200000
 8001d9c:	4620      	mov	r0, r4
 8001d9e:	f7ff ff4b 	bl	8001c38 <UART_WaitOnFlagUntilTimeout>
 8001da2:	2800      	cmp	r0, #0
 8001da4:	d0db      	beq.n	8001d5e <UART_CheckIdleState+0x16>
      return HAL_TIMEOUT;
 8001da6:	2003      	movs	r0, #3
}
 8001da8:	b002      	add	sp, #8
 8001daa:	bd70      	pop	{r4, r5, r6, pc}

08001dac <HAL_UART_Init>:
{
 8001dac:	b510      	push	{r4, lr}
  if (huart == NULL)
 8001dae:	4604      	mov	r4, r0
 8001db0:	b360      	cbz	r0, 8001e0c <HAL_UART_Init+0x60>
  if (huart->gState == HAL_UART_STATE_RESET)
 8001db2:	f890 3071 	ldrb.w	r3, [r0, #113]	; 0x71
 8001db6:	f003 02ff 	and.w	r2, r3, #255	; 0xff
 8001dba:	b91b      	cbnz	r3, 8001dc4 <HAL_UART_Init+0x18>
    huart->Lock = HAL_UNLOCKED;
 8001dbc:	f880 2070 	strb.w	r2, [r0, #112]	; 0x70
    HAL_UART_MspInit(huart);
 8001dc0:	f000 f97a 	bl	80020b8 <HAL_UART_MspInit>
  __HAL_UART_DISABLE(huart);
 8001dc4:	6822      	ldr	r2, [r4, #0]
  huart->gState = HAL_UART_STATE_BUSY;
 8001dc6:	2324      	movs	r3, #36	; 0x24
 8001dc8:	f884 3071 	strb.w	r3, [r4, #113]	; 0x71
  __HAL_UART_DISABLE(huart);
 8001dcc:	6813      	ldr	r3, [r2, #0]
 8001dce:	f023 0301 	bic.w	r3, r3, #1
 8001dd2:	6013      	str	r3, [r2, #0]
  if (UART_SetConfig(huart) == HAL_ERROR)
 8001dd4:	4620      	mov	r0, r4
 8001dd6:	f7ff fdb9 	bl	800194c <UART_SetConfig>
 8001dda:	2801      	cmp	r0, #1
 8001ddc:	d016      	beq.n	8001e0c <HAL_UART_Init+0x60>
  if (huart->AdvancedInit.AdvFeatureInit != UART_ADVFEATURE_NO_INIT)
 8001dde:	6a63      	ldr	r3, [r4, #36]	; 0x24
 8001de0:	b113      	cbz	r3, 8001de8 <HAL_UART_Init+0x3c>
    UART_AdvFeatureConfig(huart);
 8001de2:	4620      	mov	r0, r4
 8001de4:	f7ff fed4 	bl	8001b90 <UART_AdvFeatureConfig>
  CLEAR_BIT(huart->Instance->CR2, (USART_CR2_LINEN | USART_CR2_CLKEN));
 8001de8:	6823      	ldr	r3, [r4, #0]
 8001dea:	685a      	ldr	r2, [r3, #4]
 8001dec:	f422 4290 	bic.w	r2, r2, #18432	; 0x4800
 8001df0:	605a      	str	r2, [r3, #4]
  CLEAR_BIT(huart->Instance->CR3, (USART_CR3_SCEN | USART_CR3_HDSEL | USART_CR3_IREN));
 8001df2:	689a      	ldr	r2, [r3, #8]
 8001df4:	f022 022a 	bic.w	r2, r2, #42	; 0x2a
 8001df8:	609a      	str	r2, [r3, #8]
  __HAL_UART_ENABLE(huart);
 8001dfa:	681a      	ldr	r2, [r3, #0]
 8001dfc:	f042 0201 	orr.w	r2, r2, #1
  return (UART_CheckIdleState(huart));
 8001e00:	4620      	mov	r0, r4
  __HAL_UART_ENABLE(huart);
 8001e02:	601a      	str	r2, [r3, #0]
}
 8001e04:	e8bd 4010 	ldmia.w	sp!, {r4, lr}
  return (UART_CheckIdleState(huart));
 8001e08:	f7ff bf9e 	b.w	8001d48 <UART_CheckIdleState>
}
 8001e0c:	2001      	movs	r0, #1
 8001e0e:	bd10      	pop	{r4, pc}

08001e10 <FATFS_LinkDriverEx>:
  * @param  lun : only used for USB Key Disk to add multi-lun management
            else the parameter must be equal to 0
  * @retval Returns 0 in case of success, otherwise 1.
  */
uint8_t FATFS_LinkDriverEx(const Diskio_drvTypeDef *drv, char *path, uint8_t lun)
{
 8001e10:	b530      	push	{r4, r5, lr}
  uint8_t ret = 1;
  uint8_t DiskNum = 0;

  if(disk.nbr < _VOLUMES)
 8001e12:	4b0f      	ldr	r3, [pc, #60]	; (8001e50 <FATFS_LinkDriverEx+0x40>)
 8001e14:	7a5d      	ldrb	r5, [r3, #9]
 8001e16:	f005 04ff 	and.w	r4, r5, #255	; 0xff
 8001e1a:	b9b5      	cbnz	r5, 8001e4a <FATFS_LinkDriverEx+0x3a>
  {
    disk.is_initialized[disk.nbr] = 0;
 8001e1c:	7a5d      	ldrb	r5, [r3, #9]
 8001e1e:	555c      	strb	r4, [r3, r5]
    disk.drv[disk.nbr] = drv;
 8001e20:	7a5d      	ldrb	r5, [r3, #9]
 8001e22:	eb03 0585 	add.w	r5, r3, r5, lsl #2
 8001e26:	6068      	str	r0, [r5, #4]
    disk.lun[disk.nbr] = lun;
 8001e28:	7a58      	ldrb	r0, [r3, #9]
 8001e2a:	4418      	add	r0, r3
 8001e2c:	7202      	strb	r2, [r0, #8]
    DiskNum = disk.nbr++;
 8001e2e:	7a5a      	ldrb	r2, [r3, #9]
 8001e30:	b2d2      	uxtb	r2, r2
 8001e32:	1c50      	adds	r0, r2, #1
 8001e34:	b2c0      	uxtb	r0, r0
 8001e36:	7258      	strb	r0, [r3, #9]
    path[0] = DiskNum + '0';
    path[1] = ':';
 8001e38:	233a      	movs	r3, #58	; 0x3a
    path[0] = DiskNum + '0';
 8001e3a:	3230      	adds	r2, #48	; 0x30
    path[1] = ':';
 8001e3c:	704b      	strb	r3, [r1, #1]
    path[2] = '/';
 8001e3e:	232f      	movs	r3, #47	; 0x2f
    path[0] = DiskNum + '0';
 8001e40:	700a      	strb	r2, [r1, #0]
    path[2] = '/';
 8001e42:	708b      	strb	r3, [r1, #2]
    path[3] = 0;
 8001e44:	70cc      	strb	r4, [r1, #3]
 8001e46:	4620      	mov	r0, r4
 8001e48:	bd30      	pop	{r4, r5, pc}
  uint8_t ret = 1;
 8001e4a:	2001      	movs	r0, #1
    ret = 0;
  }

  return ret;
}
 8001e4c:	bd30      	pop	{r4, r5, pc}
 8001e4e:	bf00      	nop
 8001e50:	20000038 	.word	0x20000038

08001e54 <FATFS_LinkDriver>:
  * @param  path: pointer to the logical drive path
  * @retval Returns 0 in case of success, otherwise 1.
  */
uint8_t FATFS_LinkDriver(const Diskio_drvTypeDef *drv, char *path)
{
  return FATFS_LinkDriverEx(drv, path, 0);
 8001e54:	2200      	movs	r2, #0
 8001e56:	f7ff bfdb 	b.w	8001e10 <FATFS_LinkDriverEx>
	...

08001e5c <MX_FATFS_Init>:
/* USER CODE BEGIN Variables */

/* USER CODE END Variables */    

void MX_FATFS_Init(void) 
{
 8001e5c:	b508      	push	{r3, lr}
  /*## FatFS: Link the USER driver ###########################*/
  retUSER = FATFS_LinkDriver(&USER_Driver, USERPath);
 8001e5e:	4903      	ldr	r1, [pc, #12]	; (8001e6c <MX_FATFS_Init+0x10>)
 8001e60:	4803      	ldr	r0, [pc, #12]	; (8001e70 <MX_FATFS_Init+0x14>)
 8001e62:	f7ff fff7 	bl	8001e54 <FATFS_LinkDriver>
 8001e66:	4b03      	ldr	r3, [pc, #12]	; (8001e74 <MX_FATFS_Init+0x18>)
 8001e68:	7018      	strb	r0, [r3, #0]
 8001e6a:	bd08      	pop	{r3, pc}
 8001e6c:	2000004c 	.word	0x2000004c
 8001e70:	20000008 	.word	0x20000008
 8001e74:	20000050 	.word	0x20000050

08001e78 <SystemClock_Config>:
/**
  * @brief System Clock Configuration
  * @retval None
  */
void SystemClock_Config(void)
{
 8001e78:	b570      	push	{r4, r5, r6, lr}
 8001e7a:	b0ac      	sub	sp, #176	; 0xb0
  RCC_OscInitTypeDef RCC_OscInitStruct = {0};
  RCC_ClkInitTypeDef RCC_ClkInitStruct = {0};
 8001e7c:	2414      	movs	r4, #20
  RCC_OscInitTypeDef RCC_OscInitStruct = {0};
 8001e7e:	2244      	movs	r2, #68	; 0x44
 8001e80:	2100      	movs	r1, #0
 8001e82:	a806      	add	r0, sp, #24
 8001e84:	f000 f9e8 	bl	8002258 <memset>
  RCC_ClkInitTypeDef RCC_ClkInitStruct = {0};
 8001e88:	4622      	mov	r2, r4
 8001e8a:	2100      	movs	r1, #0
 8001e8c:	a801      	add	r0, sp, #4
 8001e8e:	f000 f9e3 	bl	8002258 <memset>
  RCC_PeriphCLKInitTypeDef PeriphClkInit = {0};
 8001e92:	2100      	movs	r1, #0
 8001e94:	2254      	movs	r2, #84	; 0x54
 8001e96:	a817      	add	r0, sp, #92	; 0x5c
 8001e98:	f000 f9de 	bl	8002258 <memset>

  /**Configure LSE Drive Capability 
  */
  HAL_PWR_EnableBkUpAccess();
 8001e9c:	f7fe ff9a 	bl	8000dd4 <HAL_PWR_EnableBkUpAccess>
  __HAL_RCC_LSEDRIVE_CONFIG(RCC_LSEDRIVE_LOW);
 8001ea0:	4a19      	ldr	r2, [pc, #100]	; (8001f08 <SystemClock_Config+0x90>)
 8001ea2:	f8d2 3090 	ldr.w	r3, [r2, #144]	; 0x90
 8001ea6:	f023 0318 	bic.w	r3, r3, #24
 8001eaa:	f8c2 3090 	str.w	r3, [r2, #144]	; 0x90
  */
  RCC_OscInitStruct.OscillatorType = RCC_OSCILLATORTYPE_LSE|RCC_OSCILLATORTYPE_MSI;
  RCC_OscInitStruct.LSEState = RCC_LSE_ON;
  RCC_OscInitStruct.MSIState = RCC_MSI_ON;
  RCC_OscInitStruct.MSICalibrationValue = 0;
  RCC_OscInitStruct.MSIClockRange = RCC_MSIRANGE_6;
 8001eae:	2360      	movs	r3, #96	; 0x60
 8001eb0:	930e      	str	r3, [sp, #56]	; 0x38
  RCC_OscInitStruct.PLL.PLLState = RCC_PLL_ON;
  RCC_OscInitStruct.PLL.PLLSource = RCC_PLLSOURCE_MSI;
  RCC_OscInitStruct.PLL.PLLM = 1;
  RCC_OscInitStruct.PLL.PLLN = 16;
 8001eb2:	2310      	movs	r3, #16
  RCC_OscInitStruct.LSEState = RCC_LSE_ON;
 8001eb4:	2501      	movs	r5, #1
  RCC_OscInitStruct.PLL.PLLState = RCC_PLL_ON;
 8001eb6:	2602      	movs	r6, #2
  RCC_OscInitStruct.OscillatorType = RCC_OSCILLATORTYPE_LSE|RCC_OSCILLATORTYPE_MSI;
 8001eb8:	9406      	str	r4, [sp, #24]
  RCC_OscInitStruct.PLL.PLLN = 16;
 8001eba:	9313      	str	r3, [sp, #76]	; 0x4c
  RCC_OscInitStruct.MSICalibrationValue = 0;
 8001ebc:	2400      	movs	r4, #0
  RCC_OscInitStruct.PLL.PLLP = RCC_PLLP_DIV7;
 8001ebe:	2307      	movs	r3, #7
  RCC_OscInitStruct.PLL.PLLQ = RCC_PLLQ_DIV2;
  RCC_OscInitStruct.PLL.PLLR = RCC_PLLR_DIV2;
  if (HAL_RCC_OscConfig(&RCC_OscInitStruct) != HAL_OK)
 8001ec0:	a806      	add	r0, sp, #24
  RCC_OscInitStruct.PLL.PLLP = RCC_PLLP_DIV7;
 8001ec2:	9314      	str	r3, [sp, #80]	; 0x50
  RCC_OscInitStruct.LSEState = RCC_LSE_ON;
 8001ec4:	9508      	str	r5, [sp, #32]
  RCC_OscInitStruct.MSIState = RCC_MSI_ON;
 8001ec6:	950c      	str	r5, [sp, #48]	; 0x30
  RCC_OscInitStruct.MSICalibrationValue = 0;
 8001ec8:	940d      	str	r4, [sp, #52]	; 0x34
  RCC_OscInitStruct.PLL.PLLState = RCC_PLL_ON;
 8001eca:	9610      	str	r6, [sp, #64]	; 0x40
  RCC_OscInitStruct.PLL.PLLSource = RCC_PLLSOURCE_MSI;
 8001ecc:	9511      	str	r5, [sp, #68]	; 0x44
  RCC_OscInitStruct.PLL.PLLM = 1;
 8001ece:	9512      	str	r5, [sp, #72]	; 0x48
  RCC_OscInitStruct.PLL.PLLQ = RCC_PLLQ_DIV2;
 8001ed0:	9615      	str	r6, [sp, #84]	; 0x54
  RCC_OscInitStruct.PLL.PLLR = RCC_PLLR_DIV2;
 8001ed2:	9616      	str	r6, [sp, #88]	; 0x58
  if (HAL_RCC_OscConfig(&RCC_OscInitStruct) != HAL_OK)
 8001ed4:	f7ff f85a 	bl	8000f8c <HAL_RCC_OscConfig>
  {
    Error_Handler();
  }
  /**Initializes the CPU, AHB and APB busses clocks 
  */
  RCC_ClkInitStruct.ClockType = RCC_CLOCKTYPE_HCLK|RCC_CLOCKTYPE_SYSCLK
 8001ed8:	230f      	movs	r3, #15
  RCC_ClkInitStruct.SYSCLKSource = RCC_SYSCLKSOURCE_PLLCLK;
  RCC_ClkInitStruct.AHBCLKDivider = RCC_SYSCLK_DIV1;
  RCC_ClkInitStruct.APB1CLKDivider = RCC_HCLK_DIV1;
  RCC_ClkInitStruct.APB2CLKDivider = RCC_HCLK_DIV1;

  if (HAL_RCC_ClockConfig(&RCC_ClkInitStruct, FLASH_LATENCY_1) != HAL_OK)
 8001eda:	4629      	mov	r1, r5
  RCC_ClkInitStruct.ClockType = RCC_CLOCKTYPE_HCLK|RCC_CLOCKTYPE_SYSCLK
 8001edc:	9301      	str	r3, [sp, #4]
  if (HAL_RCC_ClockConfig(&RCC_ClkInitStruct, FLASH_LATENCY_1) != HAL_OK)
 8001ede:	a801      	add	r0, sp, #4
  RCC_ClkInitStruct.SYSCLKSource = RCC_SYSCLKSOURCE_PLLCLK;
 8001ee0:	2303      	movs	r3, #3
 8001ee2:	9302      	str	r3, [sp, #8]
  RCC_ClkInitStruct.AHBCLKDivider = RCC_SYSCLK_DIV1;
 8001ee4:	9403      	str	r4, [sp, #12]
  RCC_ClkInitStruct.APB1CLKDivider = RCC_HCLK_DIV1;
 8001ee6:	9404      	str	r4, [sp, #16]
  RCC_ClkInitStruct.APB2CLKDivider = RCC_HCLK_DIV1;
 8001ee8:	9405      	str	r4, [sp, #20]
  if (HAL_RCC_ClockConfig(&RCC_ClkInitStruct, FLASH_LATENCY_1) != HAL_OK)
 8001eea:	f7ff faa1 	bl	8001430 <HAL_RCC_ClockConfig>
  {
    Error_Handler();
  }
  PeriphClkInit.PeriphClockSelection = RCC_PERIPHCLK_USART2;
  PeriphClkInit.Usart2ClockSelection = RCC_USART2CLKSOURCE_PCLK1;
  if (HAL_RCCEx_PeriphCLKConfig(&PeriphClkInit) != HAL_OK)
 8001eee:	a817      	add	r0, sp, #92	; 0x5c
  PeriphClkInit.PeriphClockSelection = RCC_PERIPHCLK_USART2;
 8001ef0:	9617      	str	r6, [sp, #92]	; 0x5c
  PeriphClkInit.Usart2ClockSelection = RCC_USART2CLKSOURCE_PCLK1;
 8001ef2:	9420      	str	r4, [sp, #128]	; 0x80
  if (HAL_RCCEx_PeriphCLKConfig(&PeriphClkInit) != HAL_OK)
 8001ef4:	f7ff fbde 	bl	80016b4 <HAL_RCCEx_PeriphCLKConfig>
  {
    Error_Handler();
  }
  /**Configure the main internal regulator output voltage 
  */
  if (HAL_PWREx_ControlVoltageScaling(PWR_REGULATOR_VOLTAGE_SCALE1) != HAL_OK)
 8001ef8:	f44f 7000 	mov.w	r0, #512	; 0x200
 8001efc:	f7fe ff7a 	bl	8000df4 <HAL_PWREx_ControlVoltageScaling>
  {
    Error_Handler();
  }
  /**Enable MSI Auto calibration 
  */
  HAL_RCCEx_EnableMSIPLLMode();
 8001f00:	f7ff fd1c 	bl	800193c <HAL_RCCEx_EnableMSIPLLMode>
}
 8001f04:	b02c      	add	sp, #176	; 0xb0
 8001f06:	bd70      	pop	{r4, r5, r6, pc}
 8001f08:	40021000 	.word	0x40021000

08001f0c <main>:
{
 8001f0c:	b580      	push	{r7, lr}
static void MX_GPIO_Init(void)
{
  GPIO_InitTypeDef GPIO_InitStruct = {0};

  /* GPIO Ports Clock Enable */
  __HAL_RCC_GPIOC_CLK_ENABLE();
 8001f0e:	4c52      	ldr	r4, [pc, #328]	; (8002058 <main+0x14c>)
{
 8001f10:	b088      	sub	sp, #32
  HAL_Init();
 8001f12:	f7fe fe17 	bl	8000b44 <HAL_Init>
  SystemClock_Config();
 8001f16:	f7ff ffaf 	bl	8001e78 <SystemClock_Config>
  GPIO_InitTypeDef GPIO_InitStruct = {0};
 8001f1a:	2214      	movs	r2, #20
 8001f1c:	2100      	movs	r1, #0
 8001f1e:	a803      	add	r0, sp, #12
 8001f20:	f000 f99a 	bl	8002258 <memset>
  __HAL_RCC_GPIOC_CLK_ENABLE();
 8001f24:	6ce3      	ldr	r3, [r4, #76]	; 0x4c
  __HAL_RCC_GPIOA_CLK_ENABLE();
  __HAL_RCC_GPIOB_CLK_ENABLE();

  /*Configure GPIO pin Output Level */
  HAL_GPIO_WritePin(LD3_GPIO_Port, LD3_Pin, GPIO_PIN_RESET);
 8001f26:	484d      	ldr	r0, [pc, #308]	; (800205c <main+0x150>)
  __HAL_RCC_GPIOC_CLK_ENABLE();
 8001f28:	f043 0304 	orr.w	r3, r3, #4
 8001f2c:	64e3      	str	r3, [r4, #76]	; 0x4c
 8001f2e:	6ce3      	ldr	r3, [r4, #76]	; 0x4c
 8001f30:	f003 0304 	and.w	r3, r3, #4
 8001f34:	9300      	str	r3, [sp, #0]
 8001f36:	9b00      	ldr	r3, [sp, #0]
  __HAL_RCC_GPIOA_CLK_ENABLE();
 8001f38:	6ce3      	ldr	r3, [r4, #76]	; 0x4c
 8001f3a:	f043 0301 	orr.w	r3, r3, #1
 8001f3e:	64e3      	str	r3, [r4, #76]	; 0x4c
 8001f40:	6ce3      	ldr	r3, [r4, #76]	; 0x4c
 8001f42:	f003 0301 	and.w	r3, r3, #1
 8001f46:	9301      	str	r3, [sp, #4]
 8001f48:	9b01      	ldr	r3, [sp, #4]
  __HAL_RCC_GPIOB_CLK_ENABLE();
 8001f4a:	6ce3      	ldr	r3, [r4, #76]	; 0x4c
 8001f4c:	f043 0302 	orr.w	r3, r3, #2
 8001f50:	64e3      	str	r3, [r4, #76]	; 0x4c
 8001f52:	6ce3      	ldr	r3, [r4, #76]	; 0x4c
 8001f54:	f003 0302 	and.w	r3, r3, #2
  HAL_GPIO_WritePin(LD3_GPIO_Port, LD3_Pin, GPIO_PIN_RESET);
 8001f58:	2200      	movs	r2, #0
  __HAL_RCC_GPIOB_CLK_ENABLE();
 8001f5a:	9302      	str	r3, [sp, #8]
  HAL_GPIO_WritePin(LD3_GPIO_Port, LD3_Pin, GPIO_PIN_RESET);
 8001f5c:	2108      	movs	r1, #8

  /*Configure GPIO pin : BTN_Pin */
  GPIO_InitStruct.Pin = BTN_Pin;
  GPIO_InitStruct.Mode = GPIO_MODE_INPUT;
 8001f5e:	2500      	movs	r5, #0
  __HAL_RCC_GPIOB_CLK_ENABLE();
 8001f60:	9b02      	ldr	r3, [sp, #8]
  HAL_GPIO_WritePin(LD3_GPIO_Port, LD3_Pin, GPIO_PIN_RESET);
 8001f62:	f7fe ff31 	bl	8000dc8 <HAL_GPIO_WritePin>
  GPIO_InitStruct.Pin = BTN_Pin;
 8001f66:	2302      	movs	r3, #2
  GPIO_InitStruct.Pull = GPIO_PULLDOWN;
  HAL_GPIO_Init(BTN_GPIO_Port, &GPIO_InitStruct);
 8001f68:	a903      	add	r1, sp, #12
 8001f6a:	f04f 4090 	mov.w	r0, #1207959552	; 0x48000000
  GPIO_InitStruct.Pin = BTN_Pin;
 8001f6e:	9303      	str	r3, [sp, #12]
  GPIO_InitStruct.Pull = GPIO_PULLDOWN;
 8001f70:	9305      	str	r3, [sp, #20]

  /*Configure GPIO pin : LD3_Pin */
  GPIO_InitStruct.Pin = LD3_Pin;
 8001f72:	2608      	movs	r6, #8
  GPIO_InitStruct.Mode = GPIO_MODE_OUTPUT_PP;
 8001f74:	2701      	movs	r7, #1
  GPIO_InitStruct.Mode = GPIO_MODE_INPUT;
 8001f76:	9504      	str	r5, [sp, #16]
  HAL_GPIO_Init(BTN_GPIO_Port, &GPIO_InitStruct);
 8001f78:	f7fe fe6c 	bl	8000c54 <HAL_GPIO_Init>
  GPIO_InitStruct.Pull = GPIO_NOPULL;
  GPIO_InitStruct.Speed = GPIO_SPEED_FREQ_LOW;
  HAL_GPIO_Init(LD3_GPIO_Port, &GPIO_InitStruct);
 8001f7c:	a903      	add	r1, sp, #12
 8001f7e:	4837      	ldr	r0, [pc, #220]	; (800205c <main+0x150>)
  GPIO_InitStruct.Pin = LD3_Pin;
 8001f80:	9603      	str	r6, [sp, #12]
  GPIO_InitStruct.Mode = GPIO_MODE_OUTPUT_PP;
 8001f82:	9704      	str	r7, [sp, #16]
  GPIO_InitStruct.Pull = GPIO_NOPULL;
 8001f84:	9505      	str	r5, [sp, #20]
  GPIO_InitStruct.Speed = GPIO_SPEED_FREQ_LOW;
 8001f86:	9506      	str	r5, [sp, #24]
  HAL_GPIO_Init(LD3_GPIO_Port, &GPIO_InitStruct);
 8001f88:	f7fe fe64 	bl	8000c54 <HAL_GPIO_Init>
  huart2.Instance = USART2;
 8001f8c:	4834      	ldr	r0, [pc, #208]	; (8002060 <main+0x154>)
  huart2.Init.BaudRate = 115200;
 8001f8e:	4a35      	ldr	r2, [pc, #212]	; (8002064 <main+0x158>)
  huart2.Init.WordLength = UART_WORDLENGTH_8B;
 8001f90:	6085      	str	r5, [r0, #8]
  huart2.Init.BaudRate = 115200;
 8001f92:	f44f 33e1 	mov.w	r3, #115200	; 0x1c200
 8001f96:	e880 000c 	stmia.w	r0, {r2, r3}
  huart2.Init.Mode = UART_MODE_TX_RX;
 8001f9a:	230c      	movs	r3, #12
 8001f9c:	6143      	str	r3, [r0, #20]
  huart2.Init.StopBits = UART_STOPBITS_1;
 8001f9e:	60c5      	str	r5, [r0, #12]
  huart2.Init.Parity = UART_PARITY_NONE;
 8001fa0:	6105      	str	r5, [r0, #16]
  huart2.Init.HwFlowCtl = UART_HWCONTROL_NONE;
 8001fa2:	6185      	str	r5, [r0, #24]
  huart2.Init.OverSampling = UART_OVERSAMPLING_16;
 8001fa4:	61c5      	str	r5, [r0, #28]
  huart2.Init.OneBitSampling = UART_ONE_BIT_SAMPLE_DISABLE;
 8001fa6:	6205      	str	r5, [r0, #32]
  huart2.AdvancedInit.AdvFeatureInit = UART_ADVFEATURE_NO_INIT;
 8001fa8:	6245      	str	r5, [r0, #36]	; 0x24
  if (HAL_UART_Init(&huart2) != HAL_OK)
 8001faa:	f7ff feff 	bl	8001dac <HAL_UART_Init>
  MX_FATFS_Init();
 8001fae:	f7ff ff55 	bl	8001e5c <MX_FATFS_Init>
  HAL_GPIO_WritePin(LD3_GPIO_Port,LD3_Pin,GPIO_PIN_SET);
 8001fb2:	4631      	mov	r1, r6
 8001fb4:	463a      	mov	r2, r7
 8001fb6:	4829      	ldr	r0, [pc, #164]	; (800205c <main+0x150>)
 8001fb8:	f7fe ff06 	bl	8000dc8 <HAL_GPIO_WritePin>
  DBG_println("Inicio de bootloader");
 8001fbc:	482a      	ldr	r0, [pc, #168]	; (8002068 <main+0x15c>)
 8001fbe:	f7fe fa95 	bl	80004ec <DBG_println>
  HAL_Delay(500);
 8001fc2:	f44f 70fa 	mov.w	r0, #500	; 0x1f4
 8001fc6:	f7fe fddb 	bl	8000b80 <HAL_Delay>
      if(__HAL_RCC_GET_FLAG(RCC_FLAG_OBLRST))
 8001fca:	f8d4 3094 	ldr.w	r3, [r4, #148]	; 0x94
 8001fce:	0199      	lsls	r1, r3, #6
 8001fd0:	d50b      	bpl.n	8001fea <main+0xde>
          DBG_println("OBL flag is active.");
 8001fd2:	4826      	ldr	r0, [pc, #152]	; (800206c <main+0x160>)
 8001fd4:	f7fe fa8a 	bl	80004ec <DBG_println>
          __HAL_RCC_CLEAR_RESET_FLAGS();
 8001fd8:	f8d4 3094 	ldr.w	r3, [r4, #148]	; 0x94
          DBG_println("Reset flags cleared.");
 8001fdc:	4824      	ldr	r0, [pc, #144]	; (8002070 <main+0x164>)
          __HAL_RCC_CLEAR_RESET_FLAGS();
 8001fde:	f443 0300 	orr.w	r3, r3, #8388608	; 0x800000
 8001fe2:	f8c4 3094 	str.w	r3, [r4, #148]	; 0x94
          DBG_println("Reset flags cleared.");
 8001fe6:	f7fe fa81 	bl	80004ec <DBG_println>
 8001fea:	4c22      	ldr	r4, [pc, #136]	; (8002074 <main+0x168>)
    	  if(BTNcounter == 10) { DBG_println("Release button to enter Bootloader."); }
 8001fec:	4d22      	ldr	r5, [pc, #136]	; (8002078 <main+0x16c>)
    	  if(BTNcounter == 40) { DBG_println("Release button to enter System Memory."); }
 8001fee:	4e23      	ldr	r6, [pc, #140]	; (800207c <main+0x170>)
      while(HAL_GPIO_ReadPin(BTN_GPIO_Port,BTN_Pin) && BTNcounter < 90)
 8001ff0:	2102      	movs	r1, #2
 8001ff2:	f04f 4090 	mov.w	r0, #1207959552	; 0x48000000
 8001ff6:	f7fe fee1 	bl	8000dbc <HAL_GPIO_ReadPin>
 8001ffa:	b110      	cbz	r0, 8002002 <main+0xf6>
 8001ffc:	7823      	ldrb	r3, [r4, #0]
 8001ffe:	2b59      	cmp	r3, #89	; 0x59
 8002000:	d911      	bls.n	8002026 <main+0x11a>
      HAL_GPIO_WritePin(LD3_GPIO_Port,LD3_Pin,GPIO_PIN_RESET);
 8002002:	2200      	movs	r2, #0
 8002004:	2108      	movs	r1, #8
 8002006:	4815      	ldr	r0, [pc, #84]	; (800205c <main+0x150>)
 8002008:	f7fe fede 	bl	8000dc8 <HAL_GPIO_WritePin>
      if(BTNcounter < 90)
 800200c:	7823      	ldrb	r3, [r4, #0]
 800200e:	2b59      	cmp	r3, #89	; 0x59
 8002010:	d808      	bhi.n	8002024 <main+0x118>
          if(BTNcounter > 40)
 8002012:	2b28      	cmp	r3, #40	; 0x28
 8002014:	d919      	bls.n	800204a <main+0x13e>
              DBG_println("Entering System Memory...");
 8002016:	481a      	ldr	r0, [pc, #104]	; (8002080 <main+0x174>)
 8002018:	f7fe fa68 	bl	80004ec <DBG_println>
              HAL_Delay(1000);
 800201c:	f44f 707a 	mov.w	r0, #1000	; 0x3e8
 8002020:	f7fe fdae 	bl	8000b80 <HAL_Delay>
 8002024:	e7fe      	b.n	8002024 <main+0x118>
    	  if(BTNcounter == 10) { DBG_println("Release button to enter Bootloader."); }
 8002026:	2b0a      	cmp	r3, #10
 8002028:	d102      	bne.n	8002030 <main+0x124>
 800202a:	4628      	mov	r0, r5
 800202c:	f7fe fa5e 	bl	80004ec <DBG_println>
    	  if(BTNcounter == 40) { DBG_println("Release button to enter System Memory."); }
 8002030:	7823      	ldrb	r3, [r4, #0]
